:020000040800F2
:1000000008240020FD01000833330008F52E000805
:1000100031330008A3050008514E0008000000001D
:100020000000000000000000000000006501000862
:100030007F06000800000000A9010008393400080C
:10004000170200081702000817020008170200082C
:10005000170200081702000817020008170200081C
:10006000170200081702000817020008170200080C
:1000700017020008250600081702000831060008CC
:100080003D0600084906000817020008BD050008E3
:10009000A5050008B10500081702000817020008AE
:1000A00017020008170200081702000817020008CC
:1000B00017020008170200081702000817020008BC
:1000C00017020008170200081702000817020008AC
:1000D00017020008ED3A0008F93A0008213B000831
:1000E00017020008170200081702000800000000AD
:1000F0000000000000000000000000000000000000
:1001000000000000000000001702000817020008AD
:10011000170200081702000817020008170200085B
:10012000170200081702000817020008170200084B
:10013000170200080000000000000000E1050008B0
:10014000C9050008D5050008170200085533000846
:10015000DFF80CD000F0E8F90048004771530008C0
:1001600008240020224B19680868B0E8F00F80F3DB
:100170000988BFF36F8F4FF0000080F311884EF0B5
:100180000D0E70470000000006480068006880F30C
:10019000088862B661B6BFF34F8FBFF36F8F00DF81
:1001A00000BF00BF08ED00E0EFF30980BFF36F8FE1
:1001B0000F4B1A6820E9F00F106008B54FF050009F
:1001C00080F31188BFF34F8FBFF36F8F05F0CEFE22
:1001D0004FF0000080F31188BDE8084019680868F6
:1001E000B0E8F00F80F30988BFF36F8F704700BF4E
:1001F00094000020EFF30580704700000648804718
:1002000006480047FEE7FEE7FEE7FEE7FEE7FEE7FB
:10021000FEE7FEE7FEE7FEE7B934000851010008FB
:100220002DE9F05F0546002092469B46884606462B
:10023000814640241BE0284641464746224600F0BE
:1002400020F853465A46C01A914110D31146184619
:10025000224600F023F92D1A67EB01084F4622468B
:100260000120002100F01AF917EB00094E41201E71
:10027000A4F10104DFDC484631462A464346BDE886
:10028000F09F202A04DB203A21FA02F00021704777
:1002900021FA02F3D040C2F12002914008431946EE
:1002A000704740EA01039B0703D009E008C9121F09
:1002B00008C0042AFAD203E011F8013B00F8013B20
:1002C000521EF9D27047D2B201E000F8012B491E4C
:1002D000FBD270470022F6E710B513460A460446E3
:1002E0001946FFF7F0FF204610BDF0B480EA010286
:1002F000D40F4200B2EB410F02D20246084611462B
:100300004A0042D0C30DDDB2C1F3C752AD1A202D51
:1003100035DAC1F3160141F4000204B15242C5F1CD
:10032000200602FA06F12A411044B3EBD05F23D035
:10033000C4B1012DA0EBC35009DCF0BC4FF000426A
:1003400002EAC352DBB200F5000000F0BFB8400083
:1003500000F1807000EBC350A0F1807040EAD170D2
:10036000490009E0490841EAC071A0EBC35000F51B
:100370000000400800EBC350F0BC00F09EB86142A2
:10038000012202EB4101001BF6E7F0BC704781F04F
:100390000041AAE780F00040A7E780EA010210B51B
:1003A00002F00043400022D04A001FD0010E01EBB2
:1003B0001261C0F35600C2F3560240F4000042F44A
:1003C0000002A0FB022000047F39140400D0401C6E
:1003D00050EA124001D44000491EC2B20C0604EBA0
:1003E000D010401C4008802A02D003E0002010BD3D
:1003F00020F00100002900DA0020184310BDC10FD1
:1004000080EAE0700844CA079623002100F05EB835
:1004100096230022114600F059B800F0004220F067
:100420000040C10DC0F3160040F400007F2901DA3E
:1004300000207047962903DCC1F19601C84001E015
:1004400096398840002AF4D04042704720F000409E
:10045000C10DC0F3160040F400007F2901DA00202E
:100460007047962903DCC1F19601C8407047963960
:1004700088407047002801DBC0F10040002901DB03
:10048000C1F1004181427047002801DBC0F100400A
:10049000002901DBC1F1004188427047202A04DBBA
:1004A000203A00FA02F1002070479140C2F1200387
:1004B00020FA03F31943904070470029A8BF704702
:1004C000401C490008BF20F00100704710B4B0FA8A
:1004D00080FC00FA0CF050EA010404BF10BC704725
:1004E00049B1CCF1200421FA04F411FA0CF118BF3F
:1004F000012121430843A3EB0C01CB1D4FEA00610E
:100500004FEA102042BF002010BC704700EBC350E0
:1005100010440029A4BF10BC7047401C490008BF0C
:1005200020F0010010BC7047064C074D06E0E06863
:1005300040F0010394E8070098471034AC42F6D32A
:10054000FFF70AFE586300087863000870B58C183E
:1005500010F8015B15F0070301D110F8013B2A11D7
:1005600006D110F8012B03E010F8016B01F8016BC4
:100570005B1EF9D12B0705D40023521E0DD401F8C0
:10058000013BFAE710F8013BCB1A921C03E013F889
:10059000015B01F8015B521EF9D5A142D8D30020BE
:1005A00070BDFEE7014800F094BA0000E0010020B1
:1005B000014800F08EBA0000E0010020014800F080
:1005C00088BA0000E0010020014800F082BA000073
:1005D00008020020014800F07CBA00000802002058
:1005E000014800F076BA00000802002000B587B08C
:1005F0000823049300230293039300910223694686
:1006000000F007F907B000BD0020704700207047D8
:1006100010B54FF40051024801F080F8002010BDE1
:1006200000100140014800F0EFBD00003C04002034
:10063000014800F0E9BD000070030020014800F00F
:10064000E3BD0000F8030020014800F0DDBD00001C
:10065000B403002030B590F840500124AC40C56B85
:100660006C60046863604368102B036803D0996072
:100670000068C26030BD9A600068C16030BD7047DC
:100680000249A1F10A0004F0E5BB0000E81D0020CA
:100690007047000030B58BB00F2000240125CDE954
:1006A00004406803CDE90004089542F22000079554
:1006B000CDE9020406956946184800F00FF9009448
:1006C00001940895029405AA1020CDE9034582E81B
:1006D00031006946114800F001F90895CDE904455B
:1006E00001940294009469460D480394CDE90645AF
:1006F00000F0F4F80A4800F0BBFC084800F0B8FC31
:100700000221074800F073F80221044800F06FF856
:100710001021024800F06BF80BB030BD0802002039
:10072000E00100201CB50446B0F92400FFF767FE85
:100730000346217B206ACDE9000104F1780104F130
:100740002C00A26A04F03AFEFFF767FE00B2A08216
:10075000A168A1F50071053906D0012908D0022948
:100760000AD003290FD10BE0010AA175E0750AE058
:10077000010A2176607606E0010AA176E07602E0C1
:10078000010A2177607704F116001CBD10B50446FC
:10079000088840BAE0834A8852BAA284898849BA54
:1007A000E184FFF735FE014604F1C40000F01DF8B6
:1007B000206210BD05F092BC70B505F08FFC4FF0C3
:1007C000E02200215369946952691B1B4FF47A742B
:1007D0006343B3FBF2F22546A0FB053601FB05653A
:1007E00000FB0154D018614170BD04F05BBB90F870
:1007F0002020012A07D0022A05D0416A41F4802135
:10080000416201207047006842690A43426100204A
:100810007047F0B590F820500468A468012D05D009
:10082000022D03D0416A41F4802153E014F0406F5F
:1008300001D1E5004BD5C4F30164022C03D9416A10
:1008400041F4000146E00125A5401D608D684FF48C
:10085000C0739DB1CE6835434E6845EAC60506684B
:1008600003EB0417F5514FF4C275076805EB041547
:100870000E697E51097D012905D009E00E88CD68F9
:1008800045EA4655EBE701684E5946F480764E51ED
:100890001179D2F805504FF4C67641EA0525016872
:1008A00006EB04168D511178D2F801204FF4C4756F
:1008B00041EA0221026805EB04155151006803EB7F
:1008C0000411425842F0010242500020F0BD416A3A
:1008D00041F4001141620120F0BD000010B590F814
:1008E0002020012A07D0022A05D0416A41F4802144
:1008F0004162012010BD3B48D0F8002242F00102C5
:10090000C0F80022D0F8002222F47C52C0F8002265
:10091000D0F800224B6A42EA0322C0F800220A7D86
:1009200002F01F0301229A40D0F81C329343C0F812
:100930001C32CB69B3B9D0F80C329343C0F80C32F7
:100940008C894B6864F31F434C6900EBC404C4F802
:1009500040320C890B6864F31F434C6900EBC404FC
:10096000C4F84432CB69012B16D1D0F80C321343B2
:10097000C0F80C320C884B6864F31F434C6900EBE1
:10098000C404C4F840320C89CB6864F31F434C693B
:1009900000EBC404C4F844328B69002BD0F8043255
:1009A0000ED01343C0F804320B69002BD0F8143278
:1009B00008D01343C0F81432096A012904D008E0B2
:1009C0009343EFE79343F5E7D0F81C121143C0F8C7
:1009D0001C12D0F8001221F00101C0F80012002012
:1009E00010BD000000640040704730B590F8204012
:1009F000012C05D0022C03D0416A41F480215DE036
:100A00000468002955D02469A40754D04FF4D87441
:100A1000056804EB01142D5915F00405956005686F
:100A20002D594ED0ED08556005682C59C4F340048B
:100A3000D4604FF4DA74056804EB01142D5905F005
:100A40000F05156105682D59C5F3072595610568E2
:100A50002C59240C54614FF4DC72046802EB01122F
:100A6000A4581C700468A458240A5C700468A45834
:100A7000240C9C700468A258120EDA704FF4DE72D7
:100A8000046802EB0112A4581C710468A458240ADB
:100A90005C710468A458240C9C710468A258120E5E
:100AA000DA71006881B1016941F020010161002023
:100AB00030BDE468A8E7416A41F4001141620120B9
:100AC00030BD6D0D1560AFE7C16841F02001C16018
:100AD000EDE72DE9F05F0546006800244669D0F88F
:100AE00004908768D0F80CB0D0F810A0D0F8188027
:100AF000F10748D0F90714D001218160B80703D568
:100B0000284600F0E2FA0CE0780702D54FF40064C2
:100B100007E0380702D54FF4805402E0284600F081
:100B2000D3FAF80516D529684FF480708860B805A7
:100B300003D5284600F0CBFA0CE0780502D544F442
:100B4000005407E0380502D544F4804402E028460A
:100B500000F0BCFAF80316D529684FF4803088609D
:100B6000B80303D5284600F0B4FA0CE0780302D5A8
:100B700044F4004407E0380302D544F4803402E032
:100B8000284600F0A5FA300707D55FEACB6004D508
:100B90002968102044F40074C86070074FF00807FB
:100BA00007D55FEA0B7004D52868C760284600F0B7
:100BB000C5F9B00706D52868C068800702D0284666
:100BC00000F0BEF9700607D55FEACA6004D529684F
:100BD000102044F480640861B00607D55FEA0A700B
:100BE00004D528680761284600F0F4F9F00606D518
:100BF00028680069800702D0284600F0EDF9B003AC
:100C000008D55FEAC96005D52968102048602846E4
:100C100000F02CFAF00307D55FEA097004D52868C4
:100C20004760284600F056FA300446D55FEA49701E
:100C300040D5F00504D55FEAC87001D044F0010446
:100C4000B00504D55FEA887001D544F00204700550
:100C500004D55FEA487001D544F00404300529D575
:100C600018F0700F26D008F07000402815D006DC70
:100C7000102809D020280AD0302816D10AE05028A0
:100C80000ED0602811D10EE044F008040DE044F0CD
:100C900010040AE044F0200407E044F0400404E0BB
:100CA00044F0800401E044F480742868816921F0F4
:100CB00070018161296804204860002C05D0686AB1
:100CC000204368622846FFF78FFEBDE8F09F70B5AD
:100CD000040003D094F8200010B104E0012070BD9E
:100CE000204600F081F82068016821F002010160CF
:100CF00000F01EFD0546052604E000F019FD401B2E
:100D00000A2811D8206840688007F6D42068016856
:100D100041F00101016000F00BFD05460BE000F021
:100D200007FD401B0A2806D9606A40F40030606263
:100D300084F82060D2E720684068C007EFD0207EAA
:100D40000128206801683DD021F080010160607EAB
:100D500001282068016838D021F040010160A07EA0
:100D600001282068016833D021F020010160E07E75
:100D70000128206801682ED041F010010160207F19
:100D800001282068016829D021F008010160607FF6
:100D900001282068016824D021F004010160D4E911
:100DA00002010843D4E90412114308436168491E53
:100DB00008432168C86100206062012084F8200097
:100DC000002070BD41F08001C0E741F04001C5E75F
:100DD00041F02001CAE721F01001CFE741F00801FE
:100DE000D4E741F00401D9E7F0B585B000214E4ABF
:100DF000009101910291039103681068494F4B4C97
:100E0000022503264A49401CBB4242D110600128FA
:100E100007D1C86940F00070C861C86900F000706F
:100E20000490886940F0080088618869694600F08C
:100E3000080004904FF480700090204600F090FB72
:100E40004FF40070CDE9000569460396204600F096
:100E500087FB3848416821F4C04141F0E06141F42A
:100E60008041416000220521132000F011FD132074
:100E700000F003FD00220521142000F009FD1420DC
:100E800000F0FBFC00220521152000F001FD1520DB
:100E900043E0294FBB4242D1CB6943F08063CB6131
:100EA000CB69012803F080630493106007D1C869FF
:100EB00040F00070C861C86900F000700490886953
:100EC00040F0080088618869694600F008000490D5
:100ED0004FF480500090204600F042FB4FF4005049
:100EE000CDE9000569460396204600F039FB002253
:100EF00005213F2000F0CCFC3F2000F0BEFC00228A
:100F00000521402000F0C4FC402000F0B6FC002287
:100F10000521412000F0BCFC412000F0AEFC05B0F2
:100F2000F0BD00000064004000000020000C014003
:100F300000100240000001400068004070470000BF
:100F400000B51F4A016887B0914214D11D4B6A4613
:100F50000021FFF74AFD0098B0F5807F03D0A0F58F
:100F60008071013905D11749A0F58072084604F057
:100F700029F907B000BD144A9142FAD1114B6A46D3
:100F80000021FFF732FD0098A0F5007107390DD060
:100F9000A0F500710139ECD10A490C4801F0DFFFDE
:100FA000FFF708FC0949C1F8DC00E2E705490848F9
:100FB000FFF7ECFBFFF7FEFB0549C1F8E400D8E7BB
:100FC000006800407601002000640040281F0020D7
:100FD000401E00207047000000B51F4A016887B01E
:100FE000914214D11D4B6A460021FFF7FEFC009888
:100FF000B0F5807F03D0A0F58071013905D1174984
:10100000A0F58072084604F0DDF807B000BD144A70
:101010009142FAD1114B6A460021FFF7E6FC009895
:10102000A0F5007107390DD0A0F500710139ECD1A0
:101030000A490C4801F093FFFFF7BCFB0949C1F8CE
:10104000DC00E2E705490848FFF7A0FBFFF7B2FB29
:101050000549C1F8E400D8E7006800407E0100209F
:1010600000640040281F0020401E00207047000040
:1010700070B5044690F82000012804D0606A40F45E
:101080000020606218E0022084F8200020680168D7
:1010900021F00101016000F04BFB05460EE000BFAE
:1010A00000F046FB401B0A2808D9606A40F4003073
:1010B0006062052084F82000012070BD206840682F
:1010C000C007EDD1606270BD7047704770477047D0
:1010D00070477047704700002DE9F05F90F82110CD
:1010E0000024022903D004218163012485E00168E2
:1010F0000A6822F00E020A6001680A6822F0010202
:101100000A603F4E3E4FB215DFF8F4C0DFF8F090B2
:10111000DFF8ECA0DFF8E8B0DFF8E4E00168783F42
:1011200013011502ACF1640CA9F15009AAF13C0AB3
:10113000ABF1280BAEF1140E4FF48018B14227D951
:10114000B9420ED0614512D049451DD0514518D045
:10115000594518D0714501D1424615E0294EB1429A
:1011600001D1012210E0274E1436B14201D11022E4
:101170000AE0244E2836B14206D0224A3C3291423F
:1011800001D11A4600E02A461E49091F0A602BE0D9
:10119000B94213D0614517D0494522D051451DD0E1
:1011A00059451DD0714501D142461AE0B14202D1E4
:1011B0004FF0807215E0134EB14201D1012210E0D0
:1011C000104E1436B14201D110220AE00D4E2836DD
:1011D000B14206D00B4A3C32914201D11A4600E09E
:1011E0002A46074980394A60012180F821100021F0
:1011F00080F82010416B01B188472046BDE8F09F80
:1012000080000240080402402DE9F05FC16B0A68CB
:1012100001680B68046C4FF0040808FA04F8844D68
:10122000844E854FDFF814C2DFF81492DFF814A261
:10123000DFF814B2DFF814E218EA020F65D05FEAB3
:10124000437862D50A68920603D40A6822F0040241
:101250000A60DFF8F0814FF48062016808F1140839
:1012600013011402414524D9A9420DD0B1420FD037
:10127000B9421AD0614515D0494515D0514501D123
:10128000120312E0594501D104220EE0714501D14B
:1012900040220AE06D4D1435A94206D06B4A28322F
:1012A000914201D11A4600E022466749091F0A60AF
:1012B00029E0A94213D0B14215D0B94220D06145EE
:1012C0001BD049451BD0514502D14FF4800217E095
:1012D000414502D14FF0806212E0594501D104220C
:1012E0000EE0714501D140220AE0584D1435A94263
:1012F00006D0564A2832914201D11A4600E02246D1
:101300004B4908394A60C16A71E04FF0020808FA97
:1013100004F818EA020F70D05FEA83786DD50A6886
:10132000920606D40A6822F00A020A60012180F8B7
:101330002110DFF810814FF40072016808F11408E1
:1013400013011402414524D9A9420DD0B1420FD056
:10135000B9421AD0614515D0494515D0514501D142
:10136000120312E0594501D102220EE0714501D16C
:1013700020220AE0354D1435A94206D0334A2832DE
:10138000914201D11A4600E022462F49091F0A6006
:1013900029E0A94213D0B14215D0B94220D061450D
:1013A0001BD049451BD0514502D14FF4001217E024
:1013B000414502D14FF0007212E0594501D102229D
:1013C0000EE0714501D120220AE0204D1435A942DA
:1013D00006D01E4A2832914201D11A4600E0224628
:1013E000134908394A60002180F82010816A0029D9
:1013F0001CD0BDE8F05F0847FFE70825A54015426F
:1014000014D01A0712D50A6822F00E020A6090F86A
:101410004020C36B012101FA02F25A60816380F817
:101420002110002180F82010016BE0E7BDE8F09F5B
:10143000080002401C00024030000240440002400C
:10144000580002406C000240080402401C040240A4
:1014500030B560B11A4B026814219A4209D2194B77
:101460001344B3FBF1F18900016417490AE001203C
:1014700030BD134B5B421344B3FBF1F189000164AF
:101480000F490839C163022180F82110136843F61F
:10149000F0718B43F0E901142143D0E902452C435C
:1014A0002143046921434469214384692143194349
:1014B000116000214163012242770177084630BD67
:1014C00008040240F8FFFDBF0000024070B504466A
:1014D00090F82000002501280CD0012084F820007D
:1014E00094F821600020012E06D084F82000022507
:1014F000284670BD022070BD022684F82160A063DA
:101500002068066826F0010606602046FFF7A2F86C
:10151000E06A00282068016802D041F00E0106E070
:1015200021F0040101602068016841F00A010160B6
:101530002068016841F001010160D9E770B50446F7
:1015400000F0F6F80546601C02D004480078044418
:1015500000F0EEF8401BA042FAD370BD84000020DA
:101560002DE9F84FDFF890A100220AF1040B144690
:1015700001274FF00F090BF1040E00BF0B6807FAAB
:1015800004F52B40AB4274D1DFF870C14E68A6EB76
:101590000C0866452BD00DDC032E34D005DC36B3A9
:1015A000012E19D0022E2FD11BE0112E16D0122E93
:1015B0002AD119E0B8F5881F19D006DCB8F5803FAC
:1015C00015D0B8F5801F1FD111E0B8F5001F0ED05F
:1015D000B8F5041F18D10AE0CA6815E0CA68121DE0
:1015E00012E0CA6808320FE0CA680C320CE08A6860
:1015F0002AB1012A4FF0080203D0456104E0042219
:1016000002E0056100E00022FF2B01D8064601E060
:1016100000F104064FEA840501D9A5F12005D6F8AA
:1016200000C009FA05F82CEA080C02FA05F54CEAA4
:10163000050CC6F800C04D68ED0057D5304DAE69B9
:1016400046F00106AE61AD6924F0030605F0010520
:1016500000952C4D06EB050CDCF80850A6074FEA68
:10166000167809FA08F6B543274EB04202D1002693
:1016700010E03BE0254EB04201D101260AE0244EA5
:10168000B04201D1022605E0224EB04201D103262C
:1016900000E0042606FA08F62E43CCF808604D68F0
:1016A000DAF80060ED03554601D51E4300E09E4385
:1016B0002E604D68DBF80060AD035D4601D51E432A
:1016C00000E09E432E604D68DEF80060ED02754636
:1016D00001D51E4300E09E432E604D68AD020E4DC5
:1016E0002E6801D51E4300E09E432E60641C102C22
:1016F000FFF444AFBDE8F88F000401400000111072
:10170000001002400000014000080140000C0140B0
:1017100000100140001401400C040140C2684A401E
:10172000C26070470AB1016170470904FBE700001D
:1017300001488068704700008400002002488168EA
:10174000027811448160704784000020074810B57A
:10175000016841F010010160032000F0B9F80F208A
:1017600000F006F800F024F8002010BD0020024030
:1017700070B50D4D04464FF47A712878B1FBF0F046
:101780000A490968B1FBF0F001F032F848B9102CB1
:1017900007D200222146501E00F07AF800206C602B
:1017A00070BD012070BD000084000020900000206A
:1017B0000F4808B5816941F001018161816901F03B
:1017C00001010091C16941F08051C161C0690022ED
:1017D00000F0805000900F21901E00F059F805484D
:1017E000416821F0E06141F00071416008BD0000F6
:1017F00000100240000001402DE9F04116460F465E
:10180000040004D094F83900002518B107E0012045
:10181000BDE8F08184F83850204601F0C9F9242051
:1018200084F839002068C16821F40051C160204665
:1018300002F040F82068016921F4904101612068BC
:10184000416921F02A0141612068016921F00F01FD
:10185000394301612068C16821F400613143C160EE
:101860002068C16841F40051C160E563202084F81C
:10187000390084F83A000020CAE700F01F02012175
:1018800091404009800000F1E020C0F8001170474D
:10189000F0B40E4B1B680C46C3F30223C3F10705DB
:1018A000042D00D90425191D072901D2002300E0C9
:1018B000DB1E012606FA05F1491E214099409E4093
:1018C000761E16403143F0BC01F034BD0CED00E053
:1018D000064900F0070208684FF6FF03184040EA87
:1018E0000220034A10430860704700000CED00E03E
:1018F0000000FA0570470068416200207047F0B5AB
:1019000000680023446A31B1856A4FF4827604EBA3
:1019100015444D1E0AE044EA024181620FE006EBE5
:101920008307C7595B1C04EB1744DBB2AB42F6DB01
:101930004FF4807303EB810144EA024242500020DD
:10194000F0BDD0F8DC0302F0ECBBC1EBC10200EB50
:101950008202D0F8DC03526B02F059BBC1EBC1022A
:1019600000EB8202D0F8DC03D2F8F42102F0A4BB31
:10197000D0F8DC0302F0D7BB10B504460A460B06CC
:1019800001F07F00C0EBC00104EB810101D52831DB
:1019900001E001F5F4710870D009487094F8A803CB
:1019A000012809D0012084F8A803206802F0D6FE9F
:1019B000002084F8A80310BD022010BD70B50A46AF
:1019C0000446090602F07F0005D5C0EBC00104EB18
:1019D0008101283105E0C2EBC20104EB810101F570
:1019E000F47100258D700870D009487094F8A80330
:1019F000012809D0012084F8A803206803F02FF8FB
:101A000084F8A853002070BD022070BD70B5044654
:101A10000D460E0601F07F00C0EBC00104EB810112
:101A200001D5283101E001F5F4710870E80948702A
:101A30008A60CB7094F8A803012809D0012084F8AB
:101A4000A803206802F0F4FD002084F8A80370BD0C
:101A5000022070BD70B50C4601F07F05C5EBC501D5
:101A600000EB8101C1F8F4210022C1E97F3281F845
:101A7000E92181F8E851006801F5F471620603D0AC
:101A800003F04EF8002070BD02F044FFFAE770B595
:101A90000D460446090605F07F0005D5C0EBC001E0
:101AA00004EB8101283105E0C5EBC50104EB8101A0
:101AB00001F5F47101228A700870E809487094F801
:101AC000A803012807D084F8A823206802F0F9FFB2
:101AD000680602D006E0022070BD04F56B71206834
:101AE00002F0A6FF002084F8A80370BD70B50C4674
:101AF00001F07F05C5EBC50100EB81014A630022BF
:101B0000C1E90F32012281F8292001F8285F00681D
:101B1000620603D003F004F8002070BD02F0FAFE64
:101B2000FAE700002DE9F05F04460068002605464C
:101B300003F018F900287DD1206803F03CF9002853
:101B400078D0206803F037F980074FF0020B02D5F8
:101B50002168C1F814B0206803F02DF900034FF09C
:101B600008092CD5206803F008F9074625E0F80796
:101B700021D0F1B2206803F016F98046C00708D0E2
:101B800005EB46100121C0F8081BF1B22046FFF713
:101B9000E5FE5FEA087006D5204600F015FA05EB71
:101BA0004610C0F8089B5FEAC86004D505EB4610F4
:101BB0001021C0F8081B7F08761C002FD7D12068A1
:101BC00003F0F9F840034FF0400A48D5206803F0CD
:101BD000CDF80746002640E0F8073CD0F1B2206877
:101BE00003F0D2F88046C0070FD00121D5F8342881
:101BF00001FA06F08243C5F8342805EB4610C0F818
:101C00000819F1B22046FFF7A0FE5FEA087003D57D
:101C100005EB4610C0F808995FEAC86004D505EBEB
:101C200046101021C0F808195FEA486005D505EB99
:101C3000461000E011E1C0F808A95FEA887003D5FA
:101C400005EB4610C0F808B95FEA086003D53146D5
:101C5000204601F085FB7F08761C002FBCD1206850
:101C600003F0A9F800280CDAD5F8040820F00100E8
:101C7000C5F80408204600F08BF921684FF00040B9
:101C80004861206803F097F800050AD5D5F80808E0
:101C9000C00702D0204600F0B7F921684FF4006079
:101CA0004861206803F087F8C10404F56B7B3BD5DD
:101CB000D5F8040820F00100C5F8040810212068B8
:101CC00003F03EF80020FF2107E000BF05EB4012C3
:101CD000C2F80819C2F8081B401C62688242F5D895
:101CE0004FF0FF30C5F81808D5F81C0840F0011077
:101CF000C5F81C08D5F8140840F00B00C5F8140806
:101D0000D5F8100840F00B00C5F81008D5F8000809
:101D100020F4FE60C5F800085946206802F088FEED
:101D200021684FF480504861206803F044F8800433
:101D300016D5206802F0C4FC2068C16821F47051F7
:101D4000C1600320C4E9030A2068C16841F4A051BE
:101D5000C160204600F00CF920684FF40051416149
:101D6000206803F028F8C00636D52068816921F084
:101D700010018161D5F8208008F00F00C0EBC00091
:101D800004EB8007C8F3434007F5F477022802D03C
:101D9000062812D01BE047F6F07118EA010F16D0A2
:101DA000C8F30A1290462846F96803F008F8F86864
:101DB0004044F860B869404408E008225946284683
:101DC00002F0FDFFB969C8F30A100844B861206841
:101DD000816941F010018161206802F0ECFF000789
:101DE00005D5204600F0D8F82168C1F81490206885
:101DF00002F0E1FFC00207D5F1B2204600F02FF853
:101E000021684FF480104861206802F0D4FF8002FE
:101E100007D5F1B2204600F026F821684FF40010F3
:101E20004861206802F0C7FF400006D52046FFF752
:101E300088FD21684FF080404861206802F0BBFFB8
:101E400040070AD520684568680702D52046FFF795
:101E50008FFD2068416829434160BDE8F09FD0F8BC
:101E6000DC0302F0A7B9D0F8DC0302F0A5B900004A
:101E70002DE9F04186B004004FF0000504D094F83D
:101E8000A903002620B108E0012006B0BDE8F081DA
:101E900084F8A863204600F04FF8032084F8A903D3
:101EA000206802F031FD04F11001142288466846D2
:101EB000FEF7F7F994E80F0002F01CFC00212068FF
:101EC00002F08DFF5FF00107C5EBC50004EB800059
:101ED00080F8297000F8285FC580C6708660C660EB
:101EE0006D1C46610F2DEFD35FF00000C0EBC00109
:101EF00004EB810181F8E96181F8E801C88581F886
:101F0000EB61C1F8F061C1F8F461401CC1F8FC61FB
:101F10000F28EBD3142241466846FEF7C2F994E835
:101F20000F0002F06BFC84F8246084F8A973206829
:101F300002F057FC0020A8E708B50068B0F1A04FF8
:101F400012D10A48416941F480514161406900223F
:101F500000F48050009005214320FFF799FCBDE874
:101F600008404320FFF789BC08BD00000010024074
:101F700010B50446C068012100B90021D4F8DC0383
:101F800002F070F9D4F8DC03BDE8104002F039B972
:101F9000D0F8DC0302F054B9D0F8DC0302F056B9F3
:101FA00010B5044690F8A80301280BD0012084F84E
:101FB000A80384F82410206802F027FF002084F88A
:101FC000A80310BD022010BDD0F8DC2300F56B7112
:101FD000104602F05AB910B5044690F8A80301283B
:101FE00010D0012084F8A80301462046FFF782FCA8
:101FF000206802F0EAFB206802F08CFE002084F8E2
:10200000A80310BD022010BD10B50446D0F8DC03B3
:1020100002F088F92068D0F8001E41F00101C0F8F4
:10202000001EA069002804D00248016841F00601A2
:10203000016010BD10ED00E02DE9F8430446007882
:102040005B4DC0074FF0010951D0E8690026C00080
:1020500008D4E86940F08050E861E869012600F0A2
:102060008050009053480168C90512D40168804629
:1020700041F480710160FFF75BFB074605E000BF9C
:10208000FFF756FBC01B642877D8D8F80000C005BE
:10209000F6D5286A10F440701ED0A18801F4407172
:1020A000814219D0286A444920F44070C1F8009058
:1020B00000220A602862C0070ED0FFF739FB0746EE
:1020C00041F2883805E000BFFFF732FBC11B4145F4
:1020D00053D8286A8007F7D5286A616820F44070D1
:1020E000084328621EB1E86920F08050E86120783A
:1020F000800705D56868A16820F4404008436860FF
:102100002078400705D5E86AE16820F400300843EC
:10211000E8622078000705D5E86A216920F480206C
:102120000843E862E86A800302D4E86A400333D5D2
:102130002868C00028D42868400105D5E86AA1694C
:1021400000F0F000884225D1E86AA16920F0F00093
:102150000843E862E86A616920F470400843E86275
:102160001649C1F87090FFF7E3FA064608E004E06C
:10217000FFF7DEFA801B642802D90320BDE8F8834C
:1021800028688000F4D507E0E86A616900F47040CF
:10219000884201D00120F1E72078C00605D56868A3
:1021A000E16920F48000084368600020E6E7000051
:1021B00000100240007000404004424200004242D1
:1021C0002DE9F047DFF8548105460E46D8F80000A7
:1021D00000F00700B0420CD2D8F8001021F007013F
:1021E0003143C8F80010D8F8000000F00700B042F2
:1021F0006FD128684A4C810712D5400703D5606823
:1022000040F4E06060602878000703D5606840F41F
:10221000605060606068A96820F0F000084360606A
:102220002878C00744D06868012816D021680228A1
:1022300016D0890700294CDA616821F003010143B7
:102240006160FFF775FA6968074641F28830012935
:102250000ED00229814618D026E021688903E9E7DB
:102260008901E7E7FFF764FAC11B494501D918E086
:1022700081466068C0F381000128F3D118E000BFF7
:10228000FFF756FAC11B49450BD86068C0F38100BF
:102290000228F5D10CE000BFFFF74AFAC11B4945FF
:1022A00002D90320BDE8F087606810F00C0FF3D16D
:1022B000D8F80010404601F00701B1420BD901687F
:1022C00021F0070131430160006800F00700B042CF
:1022D00001D00120E6E72878400705D56068E96865
:1022E00020F4E060084360602878000706D5606845
:1022F000296920F4605040EAC100606000F036F8BF
:102300006168084AC1F30311515CC840064908607E
:102310000F20FFF72DFA0020C4E700000020024044
:10232000001002409C62000890000020044805490B
:1023300000684968044AC1F30221515CC8407047F3
:102340009000002000100240AC62000804480549DB
:1023500000684968044AC1F3C221515CC840704713
:102360009000002000100240AC620008F0B523A2EB
:1023700089B00FCA04AC84E80F0024A10FC98DE80E
:102380000F0026494A68264802F00C03042B2FD080
:10239000082B2DD104A8C2F38343C45CD00329D5F4
:1023A000C86A00F00F001DF80020C86AC00316D5E7
:1023B000C86AC96AC0F30310C1F30321401C891C19
:1023C000A0FB0223A1FB0416154F0025A1FB070C5F
:1023D00006FB07C601FB0561FDF722FF03E010487D
:1023E0006043B0FBF2F09DF81D10A14200D14008FF
:1023F00009B0F0BD0B486043FAE700000000040597
:102400000607080900000000000D00000102030497
:1024100005060708090A0B0C0D0E0F1000100240EC
:1024200000127A0000093D002DE9F84F04460078BB
:10243000EA4DC00748D06868C0F38100012807D082
:102440006868C0F38100022809D16868C00306D516
:102450002868800338D5A06800286FD034E0A068D1
:10246000B0F5803F0BD010B1B0F5A02F11D0286887
:1024700020F480302860286820F4802002E028685A
:1024800040F480302860A06888B1FFF751F9064613
:1024900009E0286840F480202860F0E7FFF748F959
:1024A000801B642878D828688003F7D50CE0FFF7F4
:1024B0003FF9064605E000BFFFF73AF9801B6428A4
:1024C000F0D828688003F7D42078C54E80074FF0F5
:1024D00001094FF000073CD5686810F00C0F07D0D9
:1024E0006868C0F38100022809D16868C00306D477
:1024F0002868800715D5606901281FD111E060693F
:10250000B8B1C6F80090FFF713F9804606E000BFA7
:10251000FFF70EF9A0EB08000228C3D8286880074F
:10252000F6D52868A16920F0F80040EAC1002860CB
:102530000FE03760FFF7FCF8804607E02DE100BFB1
:10254000FFF7F6F8A0EB08000228ABD82868800750
:10255000F6D4207800072ED5A248E169E9B1C0F889
:102560000090FFF7E5F8804606E000BFFFF7E0F8CF
:10257000A0EB0800022895D8686A8007F6D59A482B
:102580004FF4FA510068B0FBF1F0009000BF0098E2
:10259000411E0091FAD20EE0B0E00760FFF7C8F8E4
:1025A000804605E0FFF7C4F8A0EB0800022887D8B2
:1025B000686A8007F6D42078400763D5E8694FF051
:1025C0000008C00009D4E86940F08050E861E8697B
:1025D0004FF0010800F08050009084480168C90560
:1025E00012D40168834641F480710160FFF7A0F8BE
:1025F000824605E0FFF79CF8A0EB0A0064287DD82E
:10260000DBF80000C005F5D5206901280AD008B123
:10261000052813D0286A20F001002862286A20F0DB
:10262000040002E0286A40F001002862206941F2BB
:10263000883B98B1FFF77CF882460BE0286A40F0AF
:1026400004002862EEE700BFFFF772F8A0EB0A0172
:10265000594553D8286A8007F6D50CE0FFF768F88B
:10266000824605E0FFF764F8A0EB0A01594545D81A
:10267000286A8007F6D4B8F1000F03D0E86920F08B
:102680008050E861E06AD0B36968C90307D569681A
:10269000C1F38101022902D1E96AC9037DD402286C
:1026A00008D0E86A20F48030E862B766FFF740F8A7
:1026B00080463BE02868C00005D5E86A616B00F001
:1026C000F000884269D1B766FFF732F8804605E02E
:1026D000FFF72EF8A0EB0800642874D828680001E2
:1026E000F6D4E86A616B20F0F0000843E862E86A1B
:1026F000216B20F470600843E86201E063E018E0B9
:10270000C6F86890FFF714F8804605E0FFF710F868
:10271000A0EB0800642856D828680001F6D508E028
:10272000FFF706F8A0EB080064284CD828680001E1
:10273000F6D4206A90B36968C1F3810102294AD0B6
:102740000228376603D0FEF7F3FF04463EE0FEF7AB
:10275000EFFF074605E000BFFEF7EAFFC01B0228B7
:1027600031D828688001F7D4606AB0F5803F09D17C
:10277000E86A61680843E862E86AE16820F00F00EF
:102780000843E862D4E909010843696821F4741137
:1027900008436860C6F8609001E01CE019E0FEF7AD
:1027A000C7FF044605E000BFFEF7C2FF001B02287A
:1027B00009D828688001F7D50BE000BFFEF7B8FF05
:1027C000001B022802D90320BDE8F88F2868800189
:1027D000F4D40020F8E70120F6E7000000100240E2
:1027E00000004242800442429000002000700040FD
:1027F00010B5401EB0F1807F01D3012010BD4FF015
:10280000E02460610F21601700F094FD0020A061BA
:1028100007202061002010BD30B590F83C20012A2F
:1028200020D0012280F83C20022380F83D3003684C
:102830005C6824F070045C6003685C680D682C437D
:102840005C6003689C6824F080049C6003689C685A
:1028500049680C439C6080F83D20002180F83C10C2
:10286000084630BD022030BD30B585B00021009152
:10287000019102910391016825480224254DB1F18F
:10288000804F1CD0244A914217D1816941F0100138
:1028900081618069694600F010000490C020CDE994
:1028A00000041E480394FEF75BFE686820F4406055
:1028B00040F0E06040F44060686005B030BD816980
:1028C00041F004018161816901F004010491816991
:1028D00041F0080181618069694600F008000490B8
:1028E0004FF40040CDE900040D480394FEF738FE94
:1028F0000820CDE9000469460A480394FEF730FE3B
:10290000686820F4407040F0E06040F48070D3E7E5
:10291000001002400000014000040040001001408F
:1029200000080140000C014070B5044690F83C00DE
:102930000D4601280DD0012684F83C60022084F861
:102940003D0042B1042A18D0082A2AD00C2A4DD1C1
:1029500039E0022070BD206800F022FE2068816905
:1029600041F0080181612068816921F004018161E1
:10297000206881692A69114311E0206800F038FE5F
:102980002068816941F4006181612068816921F4D6
:1029900080618161206881692A6941EA022181613F
:1029A00024E0206800F050FE2068C16941F0080171
:1029B000C1612068C16921F00401C1612068C16959
:1029C0002A69114311E0206800F06AFE2068C1699D
:1029D00041F40061C1612068C16921F48061C16175
:1029E0002068C1692A6941EA0221C16184F83D6019
:1029F000002084F83C0070BD10B5040003D094F8AA
:102A00003D0010B107E0012010BD002084F83C001B
:102A1000204600F00DF8022084F83D00211D2068BA
:102A200000F074FD012084F83D00002010BD00007E
:102A300008B501680B48B1F1804F0BD00A4A9142AA
:102A400007D1C16941F00201C161C06900F0020013
:102A5000009008BDC16941F00101C161C06900F089
:102A60000100F5E7001002400004004010B50446E4
:102A70000068012200F088FD07492068884203D1E0
:102A8000416C41F4004141642068016841F001015A
:102A90000160002010BD0000002C014070470000C4
:102AA00070B5026804461068D168536910F00F0FC2
:102AB00050D003F0010501F4907635435DD0C20794
:102AC00005D0CA0503D5E26B42F00102E26342077A
:102AD00005D5DA0703D0E26B42F00202E263820717
:102AE00005D5DA0703D0E26B42F00402E263020785
:102AF00005D5DA0703D0E26B42F00802E263E26B2D
:102B0000002A33D0800604D5880602D5204600F07E
:102B100086FE20684069E16BC0F38010090700D48D
:102B200028B3204600F064FE2068416949061AD5A2
:102B3000416921F040014161606BA0B11B494163D3
:102B4000606BFEF7C9FA002810D0606B416BBDE8DE
:102B500070400847830610D58B060ED52046BDE889
:102B6000704000F05CBE2046FFF798FF70BD204625
:102B7000FFF794FF0020E06370BD030606D50B0647
:102B800004D52046BDE8704000F04CBF4006F3D5A8
:102B90004806F1D5D168204621F04001D1602021BE
:102BA00084F8391000F0A5F970BD00005137000815
:102BB0002DE9F04385B00025009501950295039518
:102BC0000446DFF8B8C103686D48022103226D4F47
:102BD00080264FF480684FF02009634537D1836920
:102BE00043F480438361836903F4804304938369DE
:102BF00043F0040383618069039200F004000490B1
:102C00000802CDE9000169463846FEF7A9FCCDE986
:102C10000085694638460295FEF7A2FC5B4F5A488C
:102C2000C7E90005C7E902563D61C7E905593846BD
:102C3000FD61FEF70DFC08B1FDF72AFD6763002278
:102C4000052125207C62FEF723FE252052E0DFF8D7
:102C500040C1634553D1C36943F40033C361C369C1
:102C600003F400330493836943F0040383618069B0
:102C7000039200F0040004900420CDE900016946AD
:102C80003846FEF76DFC0820CDE900056946384658
:102C90000295FEF765FC3D4F3B484437283001C79D
:102CA000102061C7394847F8105944307D61BD6133
:102CB000FD61FEF7CDFB08B1FDF7EAFC27637C62FE
:102CC000324F314888371430C7E90005C7E902564A
:102CD0003D617D61BD613846FD61FEF7B9FB08B11C
:102CE000FDF7D6FC67630022052126207C62FEF7F3
:102CF000CFFD2620FEF7C1FD05B0BDE8F083254FCE
:102D0000BB42F9D1C36943F48023C361C36903F4AF
:102D100080230493836943F0080383618069CDE9CC
:102D2000008100F00800CDE903201B4F69463846BA
:102D3000FEF716FCF814CDE9000569463846029501
:102D4000FEF70EFC114F1048CC372838C7E90005B4
:102D5000C7E902563D61C7E905593846FD61FEF7EE
:102D600077FB08B1FDF794FC67630022052127205B
:102D70007C62FEF78DFD2720BCE700000038014093
:102D8000001002400008014058000240700300207B
:102D90000044004000480040000C0140F8B50446E3
:102DA00090F83A0020283CD1C1B3BAB394F8380067
:102DB000012836D0012084F83800A162A2850025C0
:102DC000E563222084F83A00636B17489862636BCE
:102DD0001648D862636B16481863606B13464563E8
:102DE0000846666B216802463046091DFEF76EFBF9
:102DF000206801684168009184F83850C16841F446
:102E00008071C1602068416941F001014161206821
:102E1000416941F0400141610020F8BDFFE7012018
:102E2000FBE70220F9E70000AB370008E7370008AE
:102E300061370008704770472DE9F843044690F861
:102E400039001F4616460D46202850D1A5B19EB127
:102E500094F8380001284AD0012084F838004FF057
:102E60000008C4F83C80212084F83900FEF760FC9B
:102E7000A6848146E68426E00120BDE8F883E08C44
:102E8000401EE084A0684B46B0F5805F4FF0000222
:102E90004FF080012046009703D000F0F4FDE8B920
:102EA0000DE000F0F0FDC8B928882168C0F30800E3
:102EB0004860206908B16D1C05E0AD1C03E0216885
:102EC00015F8010B4860E08C0028D8D14B46002251
:102ED00040212046009700F0D6FD08B10320CCE742
:102EE000202084F8390084F838800020C5E70220CB
:102EF000C3E77047FEE71CB50446B0F92400FDF7B0
:102F00007EFA0346217B206ACDE9000104F17801B5
:102F100004F12C00A26A02F051FAFDF77EFA00B229
:102F2000A082A168A1F50071013906D0012908D05D
:102F300002290AD003290FD10BE0010AA175E0751F
:102F40000AE0010A2176607606E0010AA176E076C1
:102F500002E0010A2177607704F116001CBD10B56C
:102F60000446088840BAE0834A8852BAA284898815
:102F700049BAE184FDF74CFA014604F1C400FDF7BB
:102F800034FC206210BD00000F4810B50D490160EF
:102F90000421416000214FF480228160C0E90312C6
:102FA000D20042610176012242768276C2760177B2
:102FB0004177FDF78CFE002803D0BDE81040FDF7F7
:102FC00067BB10BD00640040E00100200F4810B551
:102FD0000D4901600421416000214FF4802281608D
:102FE000C0E90312D2004261017601224276827664
:102FF000C27601774177FDF76AFE002803D0BDE86D
:103000001040FDF745BB10BD0068004008020020DD
:10301000154808B5416941F001014161406900224C
:1030200000F00100009005210D20FEF731FC0D207D
:10303000FEF723FC002205210F20FEF729FC0F20BC
:10304000FEF71BFC002205211020FEF721FC1020BA
:10305000FEF713FC002205211120FEF719FCBDE844
:1030600008401120FEF709BC0010024000B585B0F1
:10307000142206496846FDF714F90021684602F05B
:10308000DFF90349486005B000BD00007462000824
:10309000040000202DE9F04186B00024244800946B
:1030A000019402940394816941F010018161816966
:1030B00001F010010491816941F020018161816971
:1030C00001F020010491816941F00401816181696D
:1030D00001F004010491816941F008018161806976
:1030E000144F00F0080046F2020504900022294621
:1030F0003846FEF717FBDFF84080002201214046EA
:10310000FEF710FB0095022601250396CDE9015438
:1031100069463846FEF724FA03960095CDE9015436
:1031200069464046FEF71CFA06B0BDE8F081000093
:103130000010024000100140000C014010B58AB0A0
:10314000002407941C2168460894FDF7C3F81A4828
:103150004FF0804101602C21C0E9011440F2CF7191
:10316000C0E903148461FFF747FC08B1FDF790FA4A
:10317000079407A910480894FFF74EFB08B1FDF724
:1031800087FA6020CDE900040294002269460A48CB
:103190000494FFF7C9FB08B1FDF77AFA04226946E7
:1031A0000548FFF7C1FB08B1FDF772FA0248FFF7C7
:1031B0005BFB0AB010BD00003002002010B58AB0E1
:1031C000002407941C2168460894FDF783F81B48E7
:1031D000194901602C21C0E9011440F2CF71C0E906
:1031E000031480218161FFF707FC08B1FDF750FA55
:1031F000079407A911480894FFF70EFB08B1FDF7E3
:1032000047FA6020CDE900040294002269460B4889
:103210000494FFF789FB08B1FDF73AFA04226946E6
:103220000648FFF781FB08B1FDF732FA0348FFF7C4
:103230001BFB0AB010BD000000040040700200201B
:103240000D4810B50B4901604FF4E1314160002198
:1032500081600C22C160C0E9041281610A46C1612B
:10326000FEF7CAFA002803D0BDE81040FDF710BAF7
:1032700010BD000000380140B00200200D4810B51C
:103280000B4901604FF4E1314160002181600C2263
:10329000C160C0E9041281610A46C161FEF7ACFA5F
:1032A000002803D0BDE81040FDF7F2B910BD0000C2
:1032B00000440040F00200200D4810B50B490160A9
:1032C0000C49416000214FF480628160C0E9031223
:1032D0000422C0E905210A46C161FEF78DFA0028E3
:1032E00003D0BDE81040FDF7D3B910BD0048004041
:1032F00030030020A086010010B5002208490948CB
:1033000000F050FE0849074801F039F80749054820
:1033100000F07EFCBDE81040024801F07DB80000DE
:103320001C00002080040020F80000207400002011
:10333000FEE770470907090E002806DA00F00F00C3
:1033400000F1E02080F8141D704700F1E02080F8C3
:10335000001470470148FEF7E5BB0000FC060020A2
:103360002DE9F0470F46C1EBC70100EB8105066868
:10337000D5E90F01441A286B2835A04200D2044633
:10338000E01C4FEA900806EB471913E0441AA868BE
:10339000A04200D20446E01C4FEA9008A3B2FAB261
:1033A0003046E96801F042FDE8682044E860A86919
:1033B0002044A861D9F8180981B2414505D9D5E959
:1033C0000501814201D20028E0D1002C06DC012059
:1033D000D6F83418B8408143C6F834180020BDE848
:1033E000F0870000FEB5044608A890E8E000094810
:1033F00060640948A0648DE8E000204602F07DF892
:10340000D4F848C003B03B46324629462046BDE8C2
:10341000F0406047FB5400081355000810B5014602
:1034200012220448FCF73DFFFDF7C4F90149486149
:1034300010BD00000C1E002010B5FEF77FF9BDE89E
:10344000104001F0F3BF000070B59CB03821684611
:10345000FCF740FF14210EA8FCF73CFF202113A825
:10346000FCF738FF012500242804CDE902040226D8
:10347000CDE908600095059501944FF4E010CDE981
:103480000A046846FEF7D0FF0F20CDE90E06A80219
:10349000CDE9104002210EA81294FEF791FE1020F3
:1034A00013901A9413A8FEF7C7FD024805671CB0D5
:1034B00070BD0000000042421048016841F0010167
:1034C000016041680E4A1140416001680D4A114097
:1034D0000160016821F480210160416821F4FE014E
:1034E0004160016821F0A05101604FF47F018160CB
:1034F0000021C1620449C003086070470010024007
:103500000000FFF0FFFFF6FE08ED00E0F0B50268F6
:10351000194B1A4C1A4D1B4E4FF08047984207D05A
:10352000B84205D0A04203D0A84201D0B04204D195
:1035300022F0700C4A6842EA0C02984207D0B84266
:1035400005D0A04203D0A84201D0B04203D122F45A
:103550004074CA68224322F080044A692243026010
:103560008A68C2620A688262984201D1096901636D
:1035700001214161F0BD0000002C01400004004029
:1035800000080040000C004010B50123046A8B4085
:103590009C430462036A8A401343036210BD000027
:1035A00030B5026A22F001020262026A436884694D
:1035B00024F073050C682C4322F002058A682A4324
:1035C0000A4DA8420BD122F00805CA6823F44073C3
:1035D0002A434D6922F004021D438B692B4343604B
:1035E000846149684163026230BD0000002C0140E3
:1035F00030B5026A22F010020262026A43688469EE
:103600000D6824F4E64444EA05248D6822F0200283
:1036100042EA05120B4DA8420ED1CD6822F080027D
:1036200042EA05124D6923F4406343EA85038D693C
:1036300022F0400243EA8503436084614968816364
:10364000026230BD002C014030B5026A22F4807263
:103650000262036A4268C46923F4007324F07305AC
:103660000C682C438D6843EA05230C4DA8420ED10B
:10367000CD6823F4006343EA05234D6922F44052E8
:1036800042EA05128D6923F4806342EA0512426022
:10369000C4614968C163036230BD0000002C014071
:1036A00030B5026A22F480520262046A4268C36939
:1036B0000D6823F4E64343EA05238D6824F400549F
:1036C00044EA0534064DA84204D14D6922F48042F3
:1036D00042EA85124260C36149680164046230BDF8
:1036E000002C014038B5174D2868016840680090EB
:1036F000FDF762F8144CD4E90223801A61EB030150
:10370000C4E90401FDF758F8C4E90201686B0068D8
:10371000016821F001010160686B01684868C0F12F
:103720001E0000B22080122804D11E2048600748E5
:10373000FFF774FE686B0068016841F001010160E9
:1037400038BD00003003002088010020CC1D00207F
:1037500010B5406A0021C185C184FFF79FF910BDF3
:1037600070B5446A2068406994F83910C0F3C010FD
:103770000025212904D118B1E584204600F046F83F
:103780002068406994F83A10C0F38010222904D1CF
:1037900018B1E585204600F02BF8E06B40F01000F2
:1037A000E0632046FFF77AF970BD10B50146406A24
:1037B00009680968890613D40021C1850168CA68AF
:1037C00022F48072CA6001684A6922F001024A61EB
:1037D00001684A6922F040024A61202180F83A10CB
:1037E000FFF728FB10BD10B5406AFFF724FB10BDA2
:1037F0000168CA6822F49072CA6001684A6922F0BE
:1038000001024A61202180F83A1070470168CA68B5
:1038100022F0C002CA60202180F83910704710B52C
:1038200090F83A10222901D0022010BD8168B1F52C
:10383000805F11D00169002901681FD0496801F03B
:103840007F03816A4A1C82620B70C18D491E090484
:10385000090CC18518D02BE00269816A002A026830
:10386000526805D0D2B20A80816A491C8162ECE7B5
:10387000C2F308020A80816A891CF7E74A68816AF4
:103880004B1C83620A70E0E70168CA6822F02002DC
:10389000CA600168CA6822F48072CA6001684A6915
:1038A00022F001024A61202180F83A10FFF7C2FAA3
:1038B000002010BD2DE9F041044600680169E2686E
:1038C00021F44051114301612169A06808436169F5
:1038D00008432168CA6841F20C639A430243CA60F4
:1038E00020684169A26921F44071114341614C494A
:1038F00020686425322688423CD1FEF727FD00EB84
:10390000C00101EB001061688900B0FBF1F7FEF720
:103910001DFD00EBC00101EB00106168B04689009D
:10392000B0FBF1F0B0FBF5F06FF01801484307EB86
:10393000800106EB0110B0FBF5F000F0F006FEF799
:1039400005FD00EBC00101EB001061688900B0FBD0
:10395000F1F0B0FBF5F006EB0016FEF7F7FC00EB1C
:10396000C00101EB001061688900B0FBF1F7FEF7C0
:10397000EDFC3BE0FEF7DAFC00EBC00101EB0010D0
:1039800061688900B0FBF1F7FEF7D0FC00EBC001E5
:1039900001EB00106168B0468900B0FBF1F0B0FBAC
:1039A000F5F06FF01801484307EB800106EB0110BA
:1039B000B0FBF5F000F0F006FEF7B8FC00EBC0013C
:1039C00001EB001061688900B0FBF1F0B0FBF5F08D
:1039D00006EB0016FEF7AAFC00EBC00101EB00109D
:1039E00061688900B0FBF1F7FEF7A0FC00EBC001B5
:1039F00001EB001061688900B0FBF1F0B0FBF5F05D
:103A00006FF01801484307EB800108EB0110B0FB91
:103A1000F5F0216800F00F0030448860BDE8F081C7
:103A20000038014090F83910212901D00220704758
:103A30008168B1F5805F016A0BD04A1C026202689E
:103A400009785160C18C491E0904090CC1840ED04B
:103A500017E009880268C1F3080151600169002973
:103A6000016A02D0491C0162ECE7891CFBE701688E
:103A7000CA6822F08002CA600068C16841F0400153
:103A8000C160002070472DE9F041984617460E4668
:103A90000446069D1DE0681C1BD02DB1FDF748FEB5
:103AA000A0EB0800A84214D92068C16821F4D071A5
:103AB000C1602068416921F001014161202084F842
:103AC000390084F83A00002084F838000320BDE86B
:103AD000F0812068006836EA000004D00020B84277
:103AE000D9D00020F3E70120F9E700000148FEF7F4
:103AF000D7BF0000B00200200148FEF7D1BF000090
:103B0000F002002010B51E2203490448FFF746F9D1
:103B10000028F8D110BD0000CC1D0020300300208B
:103B2000FFF7E0BDD0F81802002180F850100846D9
:103B3000704770B50546D0F81842D5F81C22617858
:103B4000D26820789047402322460121284600F081
:103B500048FB002070BD10B50446812100F047FAF3
:103B60000121204600F043FAD4F8180250B1D4F8ED
:103B70001C0204F5067480688047206800F052FD3E
:103B800000202060002010BD10B5D0F81842E16C74
:103B9000012908D1D0F81C0223786178C268184640
:103BA00090470020E064002010BD00002921018022
:103BB00000487047340100200A2101800048704706
:103BC0006C01002070B506460025022303228121E6
:103BD00000F0F4FA022303220121304600F0EEFA4D
:103BE000542000F021FDC6F8180278B104460020E8
:103BF00084F85000D6F81C024068804740232246D3
:103C00000121304600F0EDFA284670BD0125FBE7A2
:103C100002460220002902D00020C2F81C12704780
:103C200070B500220D78D0F81832144615F06005F2
:103C300026D0202D4CD14A78921E0A2A1CD2DFE8C9
:103C400002F010081B1B1B1B1B140C058878186442
:103C50003EE0012203F1400131E04888000A586447
:103C600036E0012203F1440129E00122DA648A7975
:103C7000194600F053F82BE000F045F8022070BD23
:103C80004D78062D04D00A2D1CD00B2D20D11DE01F
:103C90004B882225B5EB132F07D1CA88212A00D9DA
:103CA0002122D0F81C120C6808E02125B5EB132F57
:103CB00004D1CA88074C092A00D90922214600F0FC
:103CC00047F805E0012203F14801F8E78878986495
:103CD000002070BD6001002010B5D0F81422526899
:103CE0009047002010BD134610B50A46002100F091
:103CF00078FA002010BD134610B50A46002100F0E6
:103D00001AFB002010BD10B50446802100F0EAFA2D
:103D10002046BDE81040002100F0E4BA10B50323AE
:103D2000C0F80821C0F8F431C0F80C2113460A4647
:103D3000002100F056FA002010BD10B50521002327
:103D4000C0F8F4111A46194600F04BFA002010BDD5
:103D500010B502238261C0F8F431C26113460A46ED
:103D6000002100F0E8FA002010BD10B50421002366
:103D7000C0F8F4111A46194600F0DDFA002010BD13
:103D800010B50A46024903A000F0E9F8004810BD4A
:103D9000DC0A0020437573746F6D2048494420434A
:103DA0006F6E666967000000122008800048704747
:103DB0003C00002010B50A46024903A000F0CFF8ED
:103DC000004810BDDC0A0020437573746F6D2048F5
:103DD000494420496E7465726661636500000000A5
:103DE00004200880004870473800002010B50A46BB
:103DF000024903A000F0B3F8004810BDDC0A00201F
:103E000053544D6963726F656C656374726F6E694C
:103E10006373000010B50A46024903A000F09FF842
:103E2000004810BDDC0A002053544D333220437546
:103E300073746F6D2048756D616E20696E74657264
:103E4000666163650000000010B50A46024903A0E0
:103E500000F085F8004810BDDC0A0020303030301A
:103E6000303030303030314100000000F8B50446C9
:103E700048880D46010A082954D2DFE801F05304AE
:103E8000091753534951D4F81012207C0A6819E0DD
:103E9000207C02260028D4F8140205D0C16A6846A6
:103EA0008847014646704AE0816AF8E7C1B20629B0
:103EB00026D2DFE801F0030A0F14191ED4F81012FD
:103EC000207C4A686946904718E0D4F81012207C9C
:103ED0008A68F7E7D4F81012207CCA68F2E7D4F8B1
:103EE0001012207C0A69EDE7D4F81012207C4A6990
:103EF000E8E7D4F81012207C8A69E3E701461EE067
:103F0000C1B2D4F814026A46836B20469847F5E79D
:103F1000207C38B9D4F81402416B68468847EDE735
:103F2000207C20B129462046FFF7EDFEF8BDD4F8ED
:103F30001402016B68468847014607204870BDF8A7
:103F400000000028F2D0EA88002AEFD0824200D98F
:103F50000246ADF800202046FFF7FAFEF8BD70B526
:103F6000002300281DD00446002502E06D1CEDB2A0
:103F7000641C2678002EF9D1022404EB4504148039
:103F8000CC545B1C0322CA5400245B1C06E0CA54B8
:103F90005B1CDAB28C54521CD3B2401C0278002A4B
:103FA000F5D170BD10B580B1D0F8143213B1002333
:103FB000C0F8143209B1C0F81012012180F8FC11C8
:103FC000027000F0BBF8002010BD022010BD10B53B
:103FD0000024D0F82002FDF7F1FC30B1012801D017
:103FE000022801D0022400E00124204610BD10B5B3
:103FF0000024D0F82002FDF7BFFC30B1012801D029
:10400000022801D0022400E00124204610BD2DE941
:10401000F0411746044641B1D4F8140242698AB30C
:1040200094F8FC01032842D043E0D4F8F4110025B1
:1040300004F11400022933D1D0E902639E4207D96A
:10404000F31A83609AB239462046FFF754FE12E015
:104050004068B0FBF3F103FB1101A1B9984212D300
:10406000D4F8F81188420ED2002211462046FFF7FC
:1040700042FEC4F8F85100231A461946204600F0C3
:10408000B0F80DE012E0D4F81402C16829B194F838
:10409000FC01032801D1204688472046FFF74DFE4A
:1040A00094F80002012804D184F8005201E020466F
:1040B00090470020BDE8F08170B51546044641B137
:1040C000D4F8140282693AB394F8FC01032824D08E
:1040D00025E0D4F8F41104F5827003291FD1D0E94A
:1040E00002218A420BD9531A83600846834200D3C7
:1040F00003469AB229462046FFF7F5FD0FE0D4F8B3
:104100001402016929B194F8FC01032801D1204669
:1041100088472046FFF729FE01E02046904700200F
:1041200070BD0020704710B5012180F8FC11D0F857
:104130001422017952689047002010BD10B5017813
:1041400021BB1349C1F8DC03C0F820124FF0A04096
:104150000860042048600220C860002008614861AF
:104160008861C8610846FDF783FE08B1FCF790FA44
:1041700080210748FDF7BFFB402200210448FDF7DE
:10418000BEFB802201210248FDF7B9FB002010BDD3
:10419000FC0600200A0601F07F01D0F82002C1EBE6
:1041A000C10100EB810002D590F82A00704790F819
:1041B000EA017047002070470020704770B51D4627
:1041C00013460024D0F820022A46FDF71FFC30B128
:1041D000012801D0022801D0022400E00124204659
:1041E00070BD10B50024D0F82002FDF733FC30B1CB
:1041F000012801D0022801D0022400E00124204639
:1042000010BD70B50022044640231146FFF7D6FFCB
:1042100040252B46002280212046C4F81051FFF78C
:10422000CDFF0120256284F8FC01D4F8180228B1E2
:10423000D4F814022179426820469047002070BDCE
:1042400090F8FD1180F8FC110020704710B590F82F
:10425000FC11032904D1D0F81412C96901B18847AF
:10426000002010BD01740020704710B50024D0F864
:104270002002FDF795FE30B1012801D0022801D0BF
:10428000022400E00124204610BD70B5044600F56C
:104290000270054600F05FF80120C4F8F401B4F89C
:1042A0000E02C4F8F80194F8080210F01F010AD0B9
:1042B00001290DD0022910D000F08001204600F025
:1042C00011F8002070BD2946204600F0AAF8F8E752
:1042D0002946204600F08CF9F3E72946204600F0F5
:1042E00019F9EEE710B50024D0F82002FDF7CFFB56
:1042F00030B1012801D0022801D0022400E00124BD
:10430000204610BD10B50024D0F82002FDF763FE52
:1043100030B1012801D0022801D0022400E001249C
:10432000204610BD90F8FC1180F8FD11042180F8A2
:10433000FC110020704710B50024D0F82002FDF7D2
:10434000D5FB30B1012801D0022801D0022400E0C1
:104350000124204610BD0A7802704A7842708A789B
:10436000CB7802EB032242800A794B7902EB0322DD
:1043700082808A79C97902EB0121C18070470246A7
:10438000002011B1C2F8141270470220704710B516
:10439000D0F8142202241AB11268904700B9002400
:1043A000204610BD70B50E461A4D89780446297016
:1043B000012928D894F8FC01022802D0032822D130
:1043C00005E099B10320616084F8FC0109E091B136
:1043D000606888420AD0C1B22046FFF77DFC297888
:1043E00061602046FFF7D3FF02280CD02046BDE8CD
:1043F0007040FFF7BABC022084F8FC0120466160DF
:10440000FFF76AFCF2E731462046BDE87040FFF74F
:104410007ABC0000F400002010B5FFF773FF002005
:1044200010BD2DE9F04100264B78012532460A2BBC
:1044300043D2DFE803F03C584251420805422A27A4
:10444000FFF714FD63E004468888C8B9C888B8B986
:10445000887800F07F0794F8FC01032810D084F8D6
:10446000FE7139462046FFF700FF2046FFF77DFC2E
:104470001FB1022084F8FC0149E084F8FC5146E0B9
:1044800020461AE0FFF78EFF41E0CB88012B14D1C4
:1044900090F8FC31022B02D0032B0ED104E0826095
:1044A000012200F1080114E00122011D11E090F841
:1044B000FC21022A04D0032A02D0FFF724FC26E0C4
:1044C000C560D0F8041209B10321C160022200F1D5
:1044D0000C01FFF73DFC1AE004464888012816D17C
:1044E000C4F804520BE0044690F8FC01022801D005
:1044F0000328C5D14888012809D1C4F80422D4F87A
:1045000014028268204690472046FFF72EFC304672
:10451000BDE8F08170B50D4604462878002609797B
:10452000C0F34110012806D06878A0B301281FD03D
:1045300003283FD107E0D4F81402294682682046B8
:104540009047002070BD94F8FC01022817D0032882
:104550002CD1688828B921B1802902D02046FFF7E4
:10456000C1FED4F81402294682682046904713E021
:1045700094F8FC01022802D0032817D103E0C9B146
:1045800080291BD116E06888A0B9480604D02046CF
:10459000FFF71DFDE5E703E02046FFF7E6FB09E036
:1045A00094F8FC01022807D003280BD029462046A6
:1045B000FFF7A9FB304670BD4806FBD02046FFF749
:1045C00091FEF7E7080601F07F0004EB001501D526
:1045D000143501E005F582752046FFF7DBFD00B1DB
:1045E00001202860022229462046FFF7B1FBE1E7BF
:1045F00070B5054690F8FC010C4603280DD12079D2
:1046000001280AD8D5F81402826828469047E08825
:1046100030B92846FFF7A9FB02E02846FFF773FBF5
:10462000002070BD7047000000487047A4060020BD
:1046300030B54B780A7803B1CA80CA78022A01D112
:1046400000220A711D4C01220D78AA40012BD0F8DE
:104650001C3818D043EA0242C0F81C280A7800EB44
:104660004210D0F8002B12040BD4D0F8002B0B8989
:10467000C3F30A031A43C97844EA81410A43C0F8E4
:10468000002B002030BD92B21343C0F81C380B78C9
:1046900000EB4310D0F800291204F2D4D0F800291E
:1046A0000D89C5F30A052A43C978890441EA835173
:1046B0000A432243C0F80029E3E70000008000100D
:1046C000D0F800196FF30A01C0F80019D0F80818E3
:1046D000C1F34101022905D1D0F8001941F00301CD
:1046E000C0F80019D0F8041841F48071C0F804181B
:1046F0000020704710B50446C06840F04000E060FC
:10470000204600F005F84FF48030A063002010BD73
:104710000146002200BF501C02460F4B984201D9AF
:1047200003207047086900F000400028F3D0002201
:10473000086940F00100086100BF501C0246064BAA
:10474000984201D90320ECE7086900F00100002835
:10475000F3D100BFE5E70000400D030030B54D7810
:1047600001220C7802FA04F3012DD0F83C4816D04F
:1047700024EA0343C0F83C38D0F81C380C78A24037
:1047800023EA0242C0F81C28097800EB4110D0F857
:10479000001B21F40041C0F8001B002030BD9BB27B
:1047A0009C43C0F83C48D0F81C380C78A24092B228
:1047B0009343C0F81C38097800EB4110D0F8001979
:1047C00021F40041C0F80019E7E710B5D0F804184B
:1047D00021F00201C0F804180320FCF7AFFE00200E
:1047E00010BD10B5D0F8041841F00201C0F804184B
:1047F0000320FCF7A3FE002010BD00002DE9F041CE
:104800000E46044600200546DDF82480DDF81C70C5
:1048100004EB8001C1F80451401C0F28F8D3A06BB1
:1048200040F40020A063C4F8005ED4F80008C4F887
:104830000008D4F8000840F00300C4F80008102174
:10484000204600F07DFA204600F06AFAC4F81058BD
:10485000C4F814584FF0FF30C4F81808C4F81C58B6
:1048600000204FF09042FF2311E000BF04EB401105
:10487000D1F800C9BCF1000F02DAC1F8002901E04B
:10488000C1F80059C1F81059C1F80839401C8642D6
:10489000ECD8002011E000BF04EB4011D1F800CBB0
:1048A000BCF1000F02DAC1F8002B01E0C1F8005B97
:1048B000C1F8105BC1F8083B401C8642ECD8D4F824
:1048C000100820F48070C4F81008A5616FF08040D3
:1048D0006061A06940F01000A061A0690849084328
:1048E000A0611FB1A06940F00800A061B8F1010FFC
:1048F00003D1A06903490843A0610020BDE8F0810D
:1049000000383C8004000040816821F00101816092
:104910000020704710B54C78444B0A7800EB4212E7
:10492000012C30D0D2F8104B6FF31204C2F8104BA8
:104930000A7800EB4212D2F8104B1C40C2F8104B20
:104940004A690AB18A684A610A7800EB4212D2F8D1
:10495000103B43F40023C2F8103B0A7800EB4212EC
:10496000D2F8103B8C68C4F312042343C2F8103B06
:10497000097800EB4110D0F8001B41F00441C0F869
:10498000001B002010BD4C69002CD2F8104939D012
:104990006FF31204C2F810490A7800EB4212D2F801
:1049A00010491C40C2F810494B698A68934200D9EB
:1049B0004A610A7800EB4212D2F8103943F400231E
:1049C000C2F810390A7800EB4212D2F810394C695B
:1049D000C4F3120453EA0403C2F810394A693AB125
:1049E000D0F834280C780123A3401A43C0F83428A7
:1049F000097800EB4110D0F8001941F00441C0F8EB
:104A00000019BEE71C40C2F810490A7800EB4212B8
:104A1000D2F8103943F40023C2F810390A7800EBB9
:104A20004212D2F810396FF31203D5E7FFFF07E007
:104A30000021C0F8101BD0F8101B41F40021C0F871
:104A4000101BD0F8101B41F01801C0F8101BD0F853
:104A5000101B41F0C041C0F8101B002070474B787C
:104A60000A7800EB4212012B0BD0D2F8003B23F462
:104A70000013C2F8003BCA78032A17D0022A15D0C7
:104A80001DE0D2F8003923F40013C2F80039CA78C7
:104A9000032A01D0022A12D1097800EB4110D0F884
:104AA000001941F08051C0F8001908E0097800EBC6
:104AB0004110D0F8001B41F08051C0F8001B0020CD
:104AC00070474B780A7800EB4212012B14D0D2F8D1
:104AD000003B002B05DBD2F8003B23F08043C2F8FB
:104AE000003B097800EB4110D0F8001B41F40011A5
:104AF000C0F8001B00207047D2F80039002B05DBFE
:104B0000D2F8003923F08043C2F80039097800EB6D
:104B10004110D0F8001941F40011C0F80019E9E77C
:104B200030B54D786FF06044794B0A7800EB421253
:104B3000012D30D0D2F8105B6FF31205C2F8105B74
:104B40000A7800EB4212D2F8105B1D40C2F8105BED
:104B50004A69002A7ED08B681A44521EB2FBF3F2D7
:104B600092B20B7800EB4313D3F8105B04EAC24413
:104B70002543C3F8105B0B7800EB4313D3F8104BBD
:104B80008D685543C5F312021443C3F8104BCA781D
:104B9000012A75D0B1E04D6965B3D2F810596FF3B1
:104BA0001205C2F810590A7800EB4212D2F81059D7
:104BB0001D40C2F810594B698A6813445B1EB3FB51
:104BC000F2F204EAC2430A7800EB4212D2F810492A
:104BD0002343C2F810390A7800EB4212D2F8103998
:104BE0004C69C4F312042343C2F81039CA78012A6D
:104BF00016D02AE0D2F810491C40C2F810490A78B1
:104C000000EB4212D2F8103943F40023C2F81039F5
:104C10000A7800EB4212D2F810396FF312030FE05A
:104C20000A7800EB4212D2F8103923F0C043C2F8E0
:104C300010390A7800EB4212D2F8103943F00053D1
:104C4000C2F81039CA78012A0ED04A69EAB1D0F800
:104C5000342800E02CE00C780123A3401A43C0F86C
:104C60003428CA78012A10D1D0F80828D2050A7849
:104C700000EB4212D2F8003903D443F0005302E0B3
:104C80002BE043F08053C2F800390A7800EB42125F
:104C9000D2F8003943F00443C2F80039CA78012A37
:104CA00034D18A8A93B20A78C96800F0BFF82DE03F
:104CB0000A7800EB4212D2F8103B8C68C4F312045D
:104CC0002343C2F8103B0A7800EB4212D2F8103BA3
:104CD00043F40023C2F8103B59E7D0F80828D20566
:104CE0000A7800EB4212D2F8003B02D443F00053A2
:104CF00001E043F08053C2F8003B097800EB41101B
:104D0000D0F8001B41F00441C0F8001B002030BD6A
:104D1000FFFF07E0816841F00101816000207047DA
:104D2000002110220261054A491C914201D9032049
:104D300070470369DB06F7D400207047400D03007D
:104D40000022202343EA811101610549521C8A4255
:104D500001D90320704703699B06F7D400207047F0
:104D6000400D0300406900F001007047D0F81818AA
:104D7000D0F81C08084080B27047D0F81818D0F856
:104D80001C080840000C7047D0F81038D0F83428C0
:104D9000CA4002F0010243EAC21200EB4110D0F80F
:104DA00008091040704700EB4111D1F8081BD0F8FA
:104DB000140808407047416980690840704710B581
:104DC00003460020D21C920803F5805303E01C68C0
:104DD00041F8044B401C9042F9D3084610BD10B571
:104DE000C26822F0C042C260012901D021B107E0AF
:104DF000C16841F0005102E0C16841F08041C160EA
:104E00003220FCF79BFB002010BDD0F8002822F4D4
:104E1000FE62C0F80028D0F800284FF4FE6303EAD1
:104E200001110A43C0F800280020704710B5002483
:104E3000DB1C9B0800EB023000F5805004E000BF53
:104E400051F8042B0260641C9C42F9D3002010BD71
:104E5000FEE7000070B50D460178492916D141786A
:104E6000427930398CB2C1780079303901EBC10315
:104E700003EB011102EB8101054A00EB800002EB1C
:104E800040000844FBF7BBFA45F82400204670BDFB
:104E9000F0FDFFFF00220261C0E9021242614260A0
:104EA000704700002DE9F0410F4601610446C168DA
:104EB0004FF07E563846FBF76AFAE76005466061B8
:104EC0001649A068FBF769FA2946FBF7D3FA09D21D
:104ED000A1686069FBF75BFA606131466068FBF7C7
:104EE00004FA60600E49A068FBF757FA6169FBF7A6
:104EF000CBFA09D2A1686069FBF7F7F96061314626
:104F00006068FBF744FA6060D4E90101FBF745FAF9
:104F10002169BDE8F041FBF73DBA00003333333F70
:104F2000333333BF02E008C8121F08C1002AFAD188
:104F300070477047002001E001C1121F002AFBD119
:104F4000704770B504460E4681F000450068FBF7D7
:104F50009BFA00D2266028462168FBF795FA00D21A
:104F6000256070BD012251030148FCF7DBBB000046
:104F70000010014000224FF400510148FCF7D2BB61
:104F8000001001404FF400510148FCF7C7BB00007E
:104F900000100140012000F03DFAFBE700B58BB0A6
:104FA00014220C496846FBF77CF90021684600F0A2
:104FB00047FA094914220860064905A81431FBF78D
:104FC00070F9002105A800F03BFA044908600BB015
:104FD00000BD0000DC6200080C0000201000002072
:104FE000074D084C002600BFFBF74AFB2068401C19
:104FF0002060A84200DD2660012000F00BFAF3E7F4
:10500000A0860100B801002010B504460246012127
:10501000054800F091FC002804D1224602210248F4
:1050200000F08AFC10BD00007002002000F088F83B
:105030003B4EDFF8F0803C4DDFF8F0903C4C40F206
:10504000EE277079C0F30110022865D0032802D042
:1050500001281DD03FE0B6F90600FBF7D0F934492E
:10506000091F09688A46FBF798F9A96AFBF73DF919
:10507000A862B6F90800FBF7C2F95146FBF78DF9B3
:1050800082462088FBF7C4F95146FBF72EF91FE052
:10509000D6F80100C0F38A30A0F58060FBF7AFF9C5
:1050A0002449FBF77AF9A96AFBF71FF9A862B088CF
:1050B000C0F34A00A0F58060FBF7A1F91E49FBF799
:1050C0006CF982462088FBF7A3F95146FBF75FF99C
:1050D000FBF7BCF920802088B84201D9278003E083
:1050E000DC2801D2DC202080A96A414502DDC5F818
:1050F000288003E0494501DAC5F828900A48FBF703
:1051000011FB024640F2FF110C48FBF76FFA2088B2
:1051100000F00EFD00F0F0FC012000F07BF990E7BC
:105120000C1E002000007A45401E00200080BB4479
:10513000C00100200AD7A33C0AD7A33BE00100200E
:105140003EB5174C00201749207040F20720A060A0
:1051500004F1C400FFF79EFE032020731248A062F2
:105160001448124A12498DE807000D4847F230549E
:105170005023224601217830FEF734F90E480F49BA
:10518000CDE90010029006485023224601212C3020
:10519000FEF728F90A494FF4FA7008803EBD000076
:1051A000401E002000F8FF4500802245CDCC4C3D3C
:1051B0006F12833ACDCCCC3D0000204100009643D5
:1051C000C001002010B5094C12B1012A05D008E039
:1051D000016861604068E06003E00868206048683A
:1051E000A060FBF7E7FAA06110BD0000241E0020BC
:1051F00086B0FEF781F8FBF74DFAFEF783FC142228
:1052000006496846FBF74DF80021684600F018F99A
:1052100003490860012000F0FDF8FBE78862000800
:105220000400002070B5184C1425A06890FBF5F11F
:1052300005FB110131B190FBF5F105FB11000228CE
:1052400003D004E0FFF796FE01E0FFF78BFEA068B5
:1052500090FBF5F105FB11010A2906D090FBF5F151
:1052600005FB11000C2803D004E000F09FFB01E0D7
:1052700000F094FBA0680549401CA060884201DD55
:105280000020A06070BD0000A0010020A0860100E9
:1052900010B5FFF767FE0E4C1421206990FBF1F268
:1052A00001FB120232B190FBF1F201FB1200022865
:1052B00003D004E000F07AFB01E000F06FFB20690E
:1052C0000449401C2061884201DD0020206110BD9E
:1052D000A0010020A086010010B500F05FFB0C4C7F
:1052E0001421206890FBF1F201FB12022AB190FB1D
:1052F000F1F201FB1200022801D1FFF743FE206802
:105300000449401C2060884201DD0020206010BD5F
:10531000A0010020A086010010B500F047FBBDE809
:105320001040FFF727BE000010B5FFF71BFE0E4C24
:105330000521606990FBF1F201FB120232B190FB92
:10534000F1F201FB1200012803D004E000F02EFB73
:1053500001E000F023FB60690449401C6061884261
:1053600001DD0020606110BDA0010020A0860100C9
:10537000FCF7ECF9FEF768F8FDF78CFEFDF748FE48
:10538000FDF702FEFDF71AFFFDF720FEFDF794FF83
:10539000FDF756FFFDF772FFFDF7D0FEFDF766FE45
:1053A00000F03FF84FF4FA742046FCF7C7F8FBE72B
:1053B00001460020842900D0C81C704770B51D46E6
:1053C0000B460446DDE9041058B101280BD0022831
:1053D0000BD003280BD0042809D005280CD00020BE
:1053E00070BD104670BD29460DE018460CE0184609
:1053F00000F042F80246F6E7054D1846296800F02D
:105400003BF8A96802462046BDE8704000F034B879
:10541000241E002010B500B9012000F0EFFC002090
:1054200010BD10B500F066FD002010BD10B500F0F5
:1054300047FE012803D0BDE8104000F0FFBD10BDBD
:105440003EB504460D46B0F90800FFF7B1FF02A9CA
:10545000CDE90001208A2B4682B2D4E9001000F089
:1054600003FE012801D000203EBD02983EBD10B5CC
:1054700000F0EAFC002010BD2DE9F0410446104682
:10548000C4E90321FAF783FF054660612946206BD2
:10549000FAF72BFFA5612063206CFAF7B9FF0146EC
:1054A00004F13000FFF74DFD656920682946FAF7E1
:1054B00074FF20620746216B6068FAF76EFF606236
:1054C00006462846A169FAF762FFA168FAF765FF68
:1054D0000546A06231463846FAF707FF2946FAF733
:1054E00004FFE062E06BFAF793FF014604F12C0041
:1054F000FFF727FDE06ABDE8F08170B50DF1100CF3
:105500009CE8700000F1380C8CE80E0080E8700018
:1055100070BD80E80E000021016241628162C162BB
:10552000704700002DE9F041184C0F460546E6682B
:105530002068001D00F0ACFB38B9206890F82C10F2
:1055400001208840216981432161681C07D137B15E
:105550002168BDE8F0410E48091D00F0D1BB20686C
:105560003544B5424560216805D2A06BBDE8F041E5
:10557000091D00F0ADBB606B091D00F0A9FBA06A1E
:10558000854200D2A562BDE8F081000094000020B1
:10559000B80D00202DE9F041054600F0BDFB2E4C72
:1055A000A068401CA06020682C4F10B1606940B317
:1055B0002DE02560A068012829D1002606EB860091
:1055C00007EB800000F076FB761C072EF6D323480D
:1055D0008C3000F06FFB2148A03000F06BFB1F48BF
:1055E000B43000F067FB1D48C83000F063FB1B4877
:1055F000DC3000F05FFB19488C3060631430A0632E
:1056000005E02068E96AC06A884200D82560606ABF
:10561000401C6062E96A01202269884010432061D1
:1056200001EB810007EB8000291D00F069FB00F011
:1056300093FB606900280CD02068E96AC06A884240
:1056400007D207494FF080500860BFF34F8FBFF378
:105650006F8FBDE8F081000094000020DC0C00207A
:1056600004ED00E070B5114E114C17E000F076FC2F
:105670003068B8B100F09CFD00F04EFBF068C568E2
:10568000281D00F005FBA068401EA0606068401E59
:10569000606000F061FB284600F00CF860680028AC
:1056A000E4D170BD00F084FDF8E70000A40D0020F7
:1056B0009400002010B50446006B00F061FB20460A
:1056C000BDE8104000F05CBB10484FF48051420729
:1056D00006D0C01D0D4920F00700411AC1F58051C8
:1056E0000B4A00230144C2E900030839103A21F0B3
:1056F000070111604B600B600B1AC0E90013936047
:105700004FF000405360D06070470000CC0D002087
:10571000E0000020074C4FF08056074DFFF7A2FF36
:1057200020680128FAD92E60BFF34F8FBFF36F8F27
:10573000F4E70000DC0C002004ED00E02DE9F04768
:105740009A46DDE9098481466FF00303206B03EB81
:1057500082021044089D20F00706700707D05020F1
:1057600080F31188BFF34F8FBFF36F8FFEE72318CD
:105770000A5C83F834200A5C12B1401C1028F6D36E
:10578000002784F84370072D00D30625E562C4E99D
:105790001157201D00F099FA04F1180000F095FA55
:1057A0002461C5F107006462A061E76484F8507069
:1057B00052464946304600F0DFF82060B8F1000F4D
:1057C00001D0C8F80040BDE8F087000030B51149AD
:1057D00000E011460A688242FBD34B685C188442A1
:1057E00003D1406818444860084643681C18944236
:1057F00009D1084C103C2468A24209D052681A44CE
:1058000042600A6812680260814200D0086030BDC0
:105810000460F9E7E00000200648416B096829B1FF
:10582000416BC968C9684968816270474FF0FF31B0
:10583000FAE700009400002008484068401C4FF040
:10584000500080F3118804D0BFF34F8FBFF36F8FE8
:10585000FEE7BFF34F8FBFF36F8FFEE7E800002036
:105860002DE9F0410546002700F078FB314E306805
:1058700008B9FFF729FFF06805424BD1C5B30835D9
:1058800068070ED005F00700C0F10800054468075E
:1058900007D0502080F31188BFF34F8FBFF36F8F75
:1058A000FEE72DB37068854234D822481030014697
:1058B0000C6801E020460C466168A94202D22168CA
:1058C0000029F7D131688C4224D007682168016033
:1058D00060680837411B10290FD96019420708D0AA
:1058E000502080F31188BFF34F8FBFF36F8FFEE717
:1058F00010E041606560FFF769FF61687068401AF9
:105900007060B268904200D2B060F068014300203D
:10591000C4E9000100F04CFC780707D0502080F368
:105920001188BFF34F8FBFF36F8FFEE73846BDE896
:10593000F0810000D000002010B588B0044660203F
:10594000CDE9000200220292049201290CD0022922
:1059500008D1042269462046FCF7E6FF04212046D0
:10596000FDF784F808B010BD002269462046FCF718
:10597000DBFF0021F3E7000010B5031F4FF0807438
:105980001C601B1F21F001011960191F024B0B60E5
:10599000143940380A6010BD3958000801229103BB
:1059A0000148FBF7BFBE00000010014000224FF489
:1059B00080410148FBF7B6BE001001408AB0FAF7FB
:1059C000F9FE2A4C6060FFF7A7FC4FF4967504E0DF
:1059D00000F056F80120FFF71DFDFAF7EBFE6168B5
:1059E000401AA842F4D3214D08350026687930B911
:1059F0001F480068FFF73BFDFFF7D0FA268014220E
:105A00001C496846FAF74DFC00216846FFF718FD6F
:105A1000194914220860174905A81431FAF741FC06
:105A2000002105A8FFF70CFD1449086000F028F8D4
:105A30006878012808D0A878012808D0287901289A
:105A400008D0687948B10AE0FFF7ECFB07E0FFF700
:105A50001FFC04E0FFF768FC01E0FFF73DFCFFF7E7
:105A60009DFA26806420FFF7D5FCDFE7C8010020FF
:105A700008000020B4620008140000201800002074
:105A800010B5FAF797FE1749012200238969441AD5
:105A900015490A2C01D90A7000E00B70134CD4F898
:105AA000E440041B0A2C01D98A7000E08B70104C72
:105AB0006469041B642C01D94A7000E04B700D4CE2
:105AC000D4F8DC40001B0A2801D90A7100E00B71F0
:105AD000C8784A788B7810430A791A431043487182
