:020000040800F2
:1000000048260020FD010008C3370008853300089A
:10001000C1370008590A00082D53000800000000ED
:100020000000000000000000000000006501000862
:10003000770B000800000000A9010008D93800086B
:10004000170200081702000817020008170200082C
:10005000170200081702000817020008170200081C
:10006000170200081702000817020008170200080C
:10007000170200081D0B000817020008290B0008D2
:10008000350B0008410B000817020008750A00082C
:100090005D0A0008690A0008170200081702000834
:1000A00017020008170200081702000817020008CC
:1000B00017020008170200081702000817020008BC
:1000C00017020008170200081702000817020008AC
:1000D00017020008C93F0008D53F0008FD3F00088F
:1000E00017020008170200081702000800000000AD
:1000F0000000000000000000000000000000000000
:1001000000000000000000001702000817020008AD
:10011000170200081702000817020008170200085B
:10012000170200081702000817020008170200084B
:10013000170200080000000000000000990A0008F3
:10014000810A00088D0A000817020008E537000838
:10015000DFF80CD000F020FC004800472F5E0008BC
:1001600048260020224B19680868B0E8F00F80F399
:100170000988BFF36F8F4FF0000080F311884EF0B5
:100180000D0E70470000000006480068006880F30C
:10019000088862B661B6BFF34F8FBFF36F8F00DF81
:1001A00000BF00BF08ED00E0EFF30980BFF36F8FE1
:1001B0000F4B1A6820E9F00F106008B54FF050009F
:1001C00080F31188BFF34F8FBFF36F8F06F090FD60
:1001D0004FF0000080F31188BDE8084019680868F6
:1001E000B0E8F00F80F30988BFF36F8F704700BF4E
:1001F00094000020EFF30580704700000648804718
:1002000006480047FEE7FEE7FEE7FEE7FEE7FEE7FB
:10021000FEE7FEE7FEE7FEE7593900085101000856
:100220002DE9F05F0546002092469B46884606462B
:10023000814640241BE0284641464746224600F0BE
:1002400020F853465A46C01A914110D31146184619
:10025000224600F0EBFA2D1A67EB01084F462246C2
:100260000120002100F0E2FA17EB00094E41201EA8
:10027000A4F10104DFDC484631462A464346BDE886
:10028000F09F202A04DB203A21FA02F00021704777
:1002900021FA02F3D040C2F12002914008431946EE
:1002A000704740EA01039B0703D009E008C9121F09
:1002B00008C0042AFAD203E011F8013B00F8013B20
:1002C000521EF9D27047D2B201E000F8012B491E4C
:1002D000FBD270470022F6E710B513460A460446E3
:1002E0001946FFF7F0FF204610BDF0B480EA010286
:1002F000D40F4200B2EB410F02D20246084611462B
:100300004A0042D0C30DDDB2C1F3C752AD1A202D51
:1003100035DAC1F3160141F4000204B15242C5F1CD
:10032000200602FA06F12A411044B3EBD05F23D035
:10033000C4B1012DA0EBC35009DCF0BC4FF000426A
:1003400002EAC352DBB200F5000000F099BA4000A7
:1003500000F1807000EBC350A0F1807040EAD170D2
:10036000490009E0490841EAC071A0EBC35000F51B
:100370000000400800EBC350F0BC00F078BA6142C6
:10038000012202EB4101001BF6E7F0BC704781F04F
:100390000041AAE780F00040A7E780EA010210B51B
:1003A00002F00043400022D04A001FD0010E01EBB2
:1003B0001261C0F35600C2F3560240F4000042F44A
:1003C0000002A0FB022000047F39140400D0401C6E
:1003D00050EA124001D44000491EC2B20C0604EBA0
:1003E000D010401C4008802A02D003E0002010BD3D
:1003F00020F00100002900DA0020184310BD30B4BD
:1004000080EA010202F0004530F0004221F0004095
:1004100013D090B1C30DD40DC2F31601C0F3160072
:10042000E41A41F4000140F400027D34914201D30A
:10043000641C00E04900002C02DA30BC0020704748
:100440004FF400000023914201D3891A034340086E
:100450004FEA4101F7D151B1914202D14FF0004131
:1004600005E002D24FF0010101E06FF0010103EB62
:10047000C450284430BC00F0FAB92DE9FE4F804644
:1004800081EA0300C00F0C46009021F0004123F0E8
:100490000045B8EB0200A94105D2404621469046EE
:1004A0001C460B46024623F00040104347D0270D60
:1004B000C7F30A00C3F30A510290401A0190402882
:1004C0006BDAC3F3130040F4801B0098924620B10E
:1004D0000023D2EB030A63EB0B0B01985946C0F1E2
:1004E0004002504600F0A2F906460D4650465946D5
:1004F000019A00F0AAF910EB08006141002487EA94
:10050000115284EAE7731A4340D0009A62B3019A09
:10051000012A4FEA075215DC001B61EB02014FF084
:10052000004202EA0752CDE90042001C41F5801169
:1005300032462B4600F0E1F903B0BDE8F08F4046AB
:100540002146F9E7001B61EB0201001C41F5801315
:1005500000185B412018A2F5001747EB030140EAA1
:10056000D570B6196D4111E06D084FEA360645EABF
:10057000C0754FEA0752001B61EB0201001C41F5F8
:10058000801149084FEA30000019514132462B468C
:1005900003B0BDE8F04F00F0A1B90098012240007F
:1005A0000023D0EB020263EBE073009821464FEA90
:1005B000E074B8EB000061EB0401E9E783F000436D
:1005C0005BE781F0004158E72DE9FE4F81EA030423
:1005D00004F0004421F0004100944FF0000B23F0A0
:1005E000004350EA01045ED052EA03045BD0C3F337
:1005F0000A54C1F30A552C44A4F2F3340194A0FB2D
:100600000254C1F3130141F48011C3F3130343F403
:10061000801301FB024400FB034E840A970A44EA5C
:10062000815447EA8357A4FB076802958D0A05FBAE
:1006300007854FEA932C04FB0C542705029D4FEAD3
:10064000065847EA1637B5EB08056EEB070C870E20
:10065000920E47EA811742EA8312A7FB0201B6EB2A
:100660000B0164EB00042B0D43EA0C335E1844EBE2
:100670001C50DA465146E7FB0201C5F313044FEA6A
:100680000B3343EA14534FEA0432019C43EA060356
:10069000A4F10C040294009CCDE900B400F02DF903
:1006A00003B0BDE8F08F00200146F9E770B521F0F6
:1006B000004303430CD0C1F30A550024D5EB0405D5
:1006C00064EB0403D617AD1AB34102DB00200146E8
:1006D00070BD201841EB025170BDC10F80EAE0707F
:1006E0000844CA079623002100F0CAB896230022C6
:1006F000114600F0C5B80EB5C10F80EAE07008449D
:10070000CA07002140F233438DE80E000A460B462B
:1007100000F0F3F803B000BD00F0004220F000400C
:10072000C10DC0F3160040F400007F2901DA00205B
:100730007047962903DCC1F19601C84001E0963963
:100740008840002AF4D04042704700F0004230F068
:1007500000400AD0C10D01F56071C0F3160042EAF5
:100760000151C208400711437047002001467047FD
:1007700030B5041E71F1000404DB4FF00044404228
:1007800064EB0101141E73F1000405DB1C464FF0FD
:100790000043524263EB0403994208BF904230BDCC
:1007A00001F0004330B421F0004150EA010206D0CC
:1007B0000A0DA2F56072C1F31301002A02DC30BCFD
:1007C00000207047440F44EAC104C100E01830BC67
:1007D00000EBC25000F04BB8002801DBC0F1004034
:1007E000002901DBC1F1004181427047002801DB93
:1007F000C0F10040002901DBC1F10041884270478F
:1008000030B50B46014600202022012409E021FAE0
:1008100002F59D4205D303FA02F5491B04FA02F5DD
:100820002844151EA2F10102F1DC30BD202A04DBB0
:10083000203A00FA02F1002070479140C2F12003F3
:1008400020FA03F3194390407047202A06DBCB17A8
:10085000203A41FA02F043EAE07306E041FA02F37B
:10086000D040C2F120029140084319467047002948
:10087000A8BF7047401C490008BF20F00100704726
:1008800010B4B0FA80FC00FA0CF050EA010404BF86
:1008900010BC704749B1CCF1200421FA04F411FADC
:1008A0000CF118BF012121430843A3EB0C01CB1D20
:1008B0004FEA00614FEA102042BF002010BC704791
:1008C00000EBC35010440029A4BF10BC7047401C6B
:1008D000490008BF20F0010010BC704710B5141E7D
:1008E00073F1000408DA401C41F1000192185B41E9
:1008F0001A4301D120F0010010BD2DE9F04D9246C0
:100900009B4611B1B1FA81F202E0B0FA80F22032D6
:100910009046FFF78BFF04460F4640EA0A0041EA83
:100920000B0153465A46084313D0114653EA0100BF
:1009300019D0C8F140025046FFF7A3FC05460E4609
:10094000504659464246FFF771FF084305D0012043
:1009500004E020463946BDE8F08D0020054346EA14
:10096000E0762C4337430A986305E40AA0EB0800BD
:100970000022FD0A44EA47540A3002D5002001460D
:10098000E9E7010510196941DDE9084500196941E8
:10099000BDE8F04DA2E70000064C074D06E0E06818
:1009A00040F0010394E8070098471034AC42F6D3B6
:1009B000FFF7D2FBF07300081074000870B58C18B4
:1009C00010F8015B15F0070301D110F8013B2A1163
:1009D00006D110F8012B03E010F8016B01F8016B50
:1009E0005B1EF9D12B0705D40023521E0DD401F84C
:1009F000013BFAE710F8013BCB1A921C03E013F815
:100A0000015B01F8015B521EF9D5A142D8D3002049
:100A100070BD000030B50C4605000CD0022C0AD980
:100A20000548A11E0288284600F03EF9291901F860
:100A3000020D000A487030BDC401002030B50C46DC
:100A4000050008D0022C06D9FF22611E00F042F9F1
:100A5000291901F8010C30BDFEE70000014800F043
:100A6000BABA000004020020014800F0B4BA000045
:100A700004020020014800F0AEBA00000402002089
:100A8000014800F0A8BA00002C020020014800F044
:100A9000A2BA00002C020020014800F09CBA00001D
:100AA0002C02002000B587B0082304930023029392
:100AB000039300910223694600F02EF907B000BDB0
:100AC00070B588B008240494002400910294039423
:100AD000214606AC555C5E5C35436554491C0829CB
:100AE000F8DB02232246694600F016F908B070BD13
:100AF0000020704700207047064810B5D0F8180253
:100B0000054CD0E90010C4E9001000F0B1F8E06134
:100B1000002010BDA40400209C1E0020014800F00D
:100B2000D3BD000060040020014800F0CDBD0000EE
:100B300094030020014800F0C7BD00001C04002001
:100B4000014800F0C1BD0000D803002030B590F886
:100B500040500124AC40C56B6C600468636043681E
:100B6000102B036803D099600068C26030BD9A60A2
:100B70000068C16030BD70477047000030B58BB071
:100B8000002401250594019402940895049400948E
:100B9000694611480394CDE9064500F021F908950E
:100BA000CDE9044501940294009469460B480394EE
:100BB000CDE9064500F014F90221084800F09AF842
:100BC0000221054800F096F8044800F0B1FC024804
:100BD00000F0AEFC0BB030BD2C020020040200205F
:100BE0001CB50446B0F92400FFF777FD0346217BCE
:100BF000206ACDE9000104F1780104F12C00A26A19
:100C000005F03EF9FFF788FD00B2A082A168A1F5CA
:100C10000071053906D0012908D002290AD003291C
:100C20000FD10BE0010AA175E0750AE0010A2176F7
:100C3000607606E0010AA176E07602E0010A2177FB
:100C4000607704F116001CBD10B50446088840BA50
:100C5000E0834A8852BAA284898849BAE184FFF7BE
:100C600045FD014604F1C40000F042F8206210BDC9
:100C700006F0F6B870B506F0F3F84FF0E022002168
:100C80005369946952691B1B4FF47A746343B3FB35
:100C9000F2F22546A0FB053601FB056500FB015479
:100CA000D018614170BD000010B558B1084C491E04
:100CB0000BD310F8013B5340DBB234F8133083EA16
:100CC0001222F4E74FF6FF7010BD104610BD000071
:100CD0003870000810B5054C04E000BF10F8013B67
:100CE0005340E25C491EF9D2104610BD387200082C
:100CF00004F024BB90F82020012A07D0022A05D056
:100D0000416A41F4802141620120704700684269D4
:100D10000A43426100207047F0B590F82050046803
:100D2000A468012D05D0022D03D0416A41F4802131
:100D300053E014F0406F01D1E5004BD5C4F30164DA
:100D4000022C03D9416A41F4000146E00125A54087
:100D50001D608D684FF4C0739DB1CE6835434E68F9
:100D600045EAC605066803EB0417F5514FF4C27552
:100D7000076805EB04150E697E51097D012905D030
:100D800009E00E88CD6845EA4655EBE701684E5903
:100D900046F480764E511179D2F805504FF4C6765C
:100DA00041EA0525016806EB04168D511178D2F849
:100DB00001204FF4C47541EA0221026805EB0415D5
:100DC0005151006803EB0411425842F001024250B5
:100DD0000020F0BD416A41F4001141620120F0BDE4
:100DE00010B590F82020012A07D0022A05D0416AC8
:100DF00041F480214162012010BD3B48D0F800221F
:100E000042F00102C0F80022D0F8002222F47C5205
:100E1000C0F80022D0F800224B6A42EA0322C0F850
:100E200000220A7D02F01F0301229A40D0F81C32F2
:100E30009343C0F81C32CB69B3B9D0F80C3293435A
:100E4000C0F80C328C894B6864F31F434C6900EB8B
:100E5000C404C4F840320C890B6864F31F434C6926
:100E600000EBC404C4F84432CB69012B16D1D0F88E
:100E70000C321343C0F80C320C884B6864F31F43E8
:100E80004C6900EBC404C4F840320C89CB6864F3AD
:100E90001F434C6900EBC404C4F844328B69002B37
:100EA000D0F804320ED01343C0F804320B69002B83
:100EB000D0F8143208D01343C0F81432096A01295B
:100EC00004D008E09343EFE79343F5E7D0F81C1212
:100ED0001143C0F81C12D0F8001221F00101C0F833
:100EE0000012002010BD000000640040704730B5C3
:100EF00090F82040012C05D0022C03D0416A41F427
:100F000080215DE00468002955D02469A40754D0ED
:100F10004FF4D874056804EB01142D5915F004053D
:100F2000956005682D594ED0ED08556005682C591F
:100F3000C4F34004D4604FF4DA74056804EB011480
:100F40002D5905F00F05156105682D59C5F30725C5
:100F5000956105682C59240C54614FF4DC720468C7
:100F600002EB0112A4581C700468A458240A5C7097
:100F70000468A458240C9C700468A258120EDA70FD
:100F80004FF4DE72046802EB0112A4581C7104686D
:100F9000A458240A5C710468A458240C9C71046849
:100FA000A258120EDA71006881B1016941F0200186
:100FB0000161002030BDE468A8E7416A41F40011F6
:100FC0004162012030BD6D0D1560AFE7C16841F091
:100FD0002001C160EDE72DE9F05F054600680024BF
:100FE0004669D0F804908768D0F80CB0D0F810A00B
:100FF000D0F81880F10748D0F90714D0012181609A
:10100000B80703D5284600F0C0FA0CE0780702D5EF
:101010004FF4006407E0380702D54FF4805402E033
:10102000284600F0B1FAF80516D529684FF480700B
:101030008860B80503D5284600F0A9FA0CE07805C9
:1010400002D544F4005407E0380502D544F4804446
:1010500002E0284600F09AFAF80316D529684FF402
:1010600080308860B80303D5284600F092FA0CE07F
:10107000780302D544F4004407E0380302D544F471
:10108000803402E0284600F083FA300707D55FEA93
:10109000CB6004D52968102044F40074C860700740
:1010A0004FF0080707D55FEA0B7004D52868C760C2
:1010B000284600F0C5F9B00706D52868C068800743
:1010C00002D0284600F0BEF9700607D55FEACA6074
:1010D00004D52968102044F480640861B00607D55F
:1010E0005FEA0A7004D528680761284600F01CFAF8
:1010F000F00606D528680069800702D0284600F06F
:1011000014FAB00308D55FEAC96005D52968102034
:101110004860284600F00AFAF00307D55FEA097034
:1011200004D528684760284600F034FA300446D5D4
:101130005FEA497040D5F00504D55FEAC87001D078
:1011400044F00104B00504D55FEA887001D544F08D
:101150000204700504D55FEA487001D544F0040428
:10116000300529D518F0700F26D008F070004028FF
:1011700015D006DC102809D020280AD0302816D136
:101180000AE050280ED0602811D10EE044F0080487
:101190000DE044F010040AE044F0200407E044F0BD
:1011A000400404E044F0800401E044F480742868C2
:1011B000816921F070018161296804204860002C58
:1011C00005D0686A204368622846FFF78FFEBDE8B5
:1011D000F09F70B5040003D094F8200010B104E033
:1011E000012070BD204600F081F82068016821F0E0
:1011F0000201016000F0FCFC0546052604E000F059
:10120000F7FC401B0A2811D8206840688007F6D4F4
:101210002068016841F00101016000F0E9FC054629
:101220000BE000F0E5FC401B0A2806D9606A40F498
:101230000030606284F82060D2E720684068C00710
:10124000EFD0207E0128206801683DD021F0800188
:101250000160607E01282068016838D021F04001DB
:101260000160A07E01282068016833D021F02001B0
:101270000160E07E0128206801682ED041F0100155
:101280000160207F01282068016829D021F0080131
:101290000160607F01282068016824D021F00401EA
:1012A0000160D4E902010843D4E904121143084360
:1012B0006168491E08432168C861002060620120FE
:1012C00084F82000002070BD41F08001C0E741F0AB
:1012D0004001C5E741F02001CAE721F01001CFE746
:1012E00041F00801D4E741F00401D9E7F0B585B039
:1012F00000214E4A00910191029103910368106808
:10130000494F4B4C022503264A49401CBB4242D15F
:101310001060012807D1C86940F00070C861C86931
:1013200000F000700490886940F0080088618869C6
:10133000694600F0080004904FF480700090204649
:1013400000F06EFB4FF40070CDE90005694603968E
:10135000204600F065FB3848416821F4C04141F067
:10136000E06141F48041416000220521132000F03A
:10137000EFFC132000F0E1FC00220521142000F016
:10138000E7FC142000F0D9FC00220521152000F014
:10139000DFFC152043E0294FBB4242D1CB6943F02B
:1013A0008063CB61CB69012803F0806304931060F4
:1013B00007D1C86940F00070C861C86900F00070CA
:1013C0000490886940F0080088618869694600F0E7
:1013D000080004904FF480500090204600F020FB5D
:1013E0004FF40050CDE9000569460396204600F011
:1013F00017FB002205213F2000F0AAFC3F2000F04F
:101400009CFC00220521402000F0A2FC402000F0BE
:1014100094FC00220521412000F09AFC412000F0BC
:101420008CFC05B0F0BD000000640040000000200E
:10143000000C014000100240000001400068004024
:101440007047000030B5314A0168314D87B040F235
:10145000022491421ED12F4B6A460021FFF747FD1F
:101460000098B0F5807F0ED0B0EB64010BD0A042A5
:1014700007D1FFF7FDFBC5F8DC002649284601F03F
:10148000B6FF07B030BD2349A0F58072084604F0CE
:1014900085FBF6E7204A9142F3D11E4B6A460021B4
:1014A000FFF725FD0098A0F5007107390ED0A0F5D3
:1014B0000071033914D0A0421AD11649144801F022
:1014C00096FFFFF7D5FBC5F8DC00DAE711491348B2
:1014D000FFF7BAFBFFF7CCFB1049C1F8E400D0E7F7
:1014E0000C490F4801F083FFFFF7C2FB0C490AE0EB
:1014F000A0F500710139C4D106490A4801F077FF0F
:10150000FFF7B6FB0749C1F8DC00BAE70068004006
:10151000842000207601002000640040BC1E0020D2
:10152000A41F00206421002070477047704700000E
:1015300070B5044690F82000012804D0606A40F499
:101540000020606218E0022084F820002068016812
:1015500021F00101016000F04BFB05460EE000BFE9
:1015600000F046FB401B0A2808D9606A40F40030AE
:101570006062052084F82000012070BD206840686A
:10158000C007EDD1606270BD70477047704770470B
:1015900070477047704700002DE9F05F90F8211008
:1015A0000024022903D004218163012485E001681D
:1015B0000A6822F00E020A6001680A6822F001023D
:1015C0000A603F4E3E4FB215DFF8F4C0DFF8F090EE
:1015D000DFF8ECA0DFF8E8B0DFF8E4E00168783F7E
:1015E00013011502ACF1640CA9F15009AAF13C0AEF
:1015F000ABF1280BAEF1140E4FF48018B14227D98D
:10160000B9420ED0614512D049451DD0514518D080
:10161000594518D0714501D1424615E0294EB142D5
:1016200001D1012210E0274E1436B14201D110221F
:101630000AE0244E2836B14206D0224A3C3291427A
:1016400001D11A4600E02A461E49091F0A602BE014
:10165000B94213D0614517D0494522D051451DD01C
:1016600059451DD0714501D142461AE0B14202D11F
:101670004FF0807215E0134EB14201D1012210E00B
:10168000104E1436B14201D110220AE00D4E283618
:10169000B14206D00B4A3C32914201D11A4600E0D9
:1016A0002A46074980394A60012180F8211000212B
:1016B00080F82010416B01B188472046BDE8F09FBB
:1016C00080000240080402402DE9F05FC16B0A6807
:1016D00001680B68046C4FF0040808FA04F8844DA4
:1016E000844E854FDFF814C2DFF81492DFF814A29D
:1016F000DFF814B2DFF814E218EA020F65D05FEAEF
:10170000437862D50A68920603D40A6822F004027C
:101710000A60DFF8F0814FF48062016808F1140874
:1017200013011402414524D9A9420DD0B1420FD072
:10173000B9421AD0614515D0494515D0514501D15E
:10174000120312E0594501D104220EE0714501D186
:1017500040220AE06D4D1435A94206D06B4A28326A
:10176000914201D11A4600E022466749091F0A60EA
:1017700029E0A94213D0B14215D0B94220D0614529
:101780001BD049451BD0514502D14FF4800217E0D0
:10179000414502D14FF0806212E0594501D1042247
:1017A0000EE0714501D140220AE0584D1435A9429E
:1017B00006D0564A2832914201D11A4600E022460C
:1017C0004B4908394A60C16A71E04FF0020808FAD3
:1017D00004F818EA020F70D05FEA83786DD50A68C2
:1017E000920606D40A6822F00A020A60012180F8F3
:1017F0002110DFF810814FF40072016808F114081D
:1018000013011402414524D9A9420DD0B1420FD091
:10181000B9421AD0614515D0494515D0514501D17D
:10182000120312E0594501D102220EE0714501D1A7
:1018300020220AE0354D1435A94206D0334A283219
:10184000914201D11A4600E022462F49091F0A6041
:1018500029E0A94213D0B14215D0B94220D0614548
:101860001BD049451BD0514502D14FF4001217E05F
:10187000414502D14FF0007212E0594501D10222D8
:101880000EE0714501D120220AE0204D1435A94215
:1018900006D01E4A2832914201D11A4600E0224663
:1018A000134908394A60002180F82010816A002914
:1018B0001CD0BDE8F05F0847FFE70825A5401542AA
:1018C00014D01A0712D50A6822F00E020A6090F8A6
:1018D0004020C36B012101FA02F25A60816380F853
:1018E0002110002180F82010016BE0E7BDE8F09F97
:1018F000080002401C000240300002404400024048
:10190000580002406C000240080402401C040240DF
:1019100030B560B11A4B026814219A4209D2194BB2
:101920001344B3FBF1F18900016417490AE0012077
:1019300030BD134B5B421344B3FBF1F189000164EA
:101940000F490839C163022180F82110136843F65A
:10195000F0718B43F0E901142143D0E902452C4397
:101960002143046921434469214384692143194384
:10197000116000214163012242770177084630BDA2
:1019800008040240F8FFFDBF0000024070B50446A5
:1019900090F82000002501280CD0012084F82000B8
:1019A00094F821600020012E06D084F82000022542
:1019B000284670BD022070BD022684F82160A06315
:1019C0002068066826F0010606602046FFF7BEF88C
:1019D000E06A00282068016802D041F00E0106E0AC
:1019E00021F0040101602068016841F00A010160F2
:1019F0002068016841F001010160D9E770B5044633
:101A000000F0F6F80546601C02D004480078044453
:101A100000F0EEF8401BA042FAD370BD8400002015
:101A20002DE9F84FDFF890A100220AF1040B1446CB
:101A300001274FF00F090BF1040E00BF0B6807FAE6
:101A400004F52B40AB4274D1DFF870C14E68A6EBB1
:101A50000C0866452BD00DDC032E34D005DC36B3E4
:101A6000012E19D0022E2FD11BE0112E16D0122ECE
:101A70002AD119E0B8F5881F19D006DCB8F5803FE7
:101A800015D0B8F5801F1FD111E0B8F5001F0ED09A
:101A9000B8F5041F18D10AE0CA6815E0CA68121D1B
:101AA00012E0CA6808320FE0CA680C320CE08A689B
:101AB0002AB1012A4FF0080203D0456104E0042254
:101AC00002E0056100E00022FF2B01D8064601E09C
:101AD00000F104064FEA840501D9A5F12005D6F8E6
:101AE00000C009FA05F82CEA080C02FA05F54CEAE0
:101AF000050CC6F800C04D68ED0057D5304DAE69F5
:101B000046F00106AE61AD6924F0030605F001055B
:101B100000952C4D06EB050CDCF80850A6074FEAA3
:101B2000167809FA08F6B543274EB04202D10026CE
:101B300010E03BE0254EB04201D101260AE0244EE0
:101B4000B04201D1022605E0224EB04201D1032667
:101B500000E0042606FA08F62E43CCF808604D682B
:101B6000DAF80060ED03554601D51E4300E09E43C0
:101B70002E604D68DBF80060AD035D4601D51E4365
:101B800000E09E432E604D68DEF80060ED02754671
:101B900001D51E4300E09E432E604D68AD020E4D00
:101BA0002E6801D51E4300E09E432E60641C102C5D
:101BB000FFF444AFBDE8F88F0004014000001110AD
:101BC000001002400000014000080140000C0140EC
:101BD00000100140001401400C040140C2684A405A
:101BE000C26070470AB1016170470904FBE7000059
:101BF0000148806870470000840000200248816826
:101C0000027811448160704784000020074810B5B5
:101C1000016841F010010160032000F0B9F80F20C5
:101C200000F006F800F024F8002010BD002002406B
:101C300070B50D4D04464FF47A712878B1FBF0F081
:101C40000A490968B1FBF0F001F032F848B9102CEC
:101C500007D200222146501E00F07AF800206C6066
:101C600070BD012070BD00008400002090000020A5
:101C70000F4808B5816941F001018161816901F076
:101C800001010091C16941F08051C161C069002228
:101C900000F0805000900F21901E00F059F8054888
:101CA000416821F0E06141F00071416008BD000031
:101CB00000100240000001402DE9F04116460F4699
:101CC000040004D094F83900002518B107E0012081
:101CD000BDE8F08184F83850204601F0B1F92420A5
:101CE00084F839002068C16821F40051C1602046A1
:101CF00002F04EF82068016921F4904101612068EA
:101D0000416921F02A0141612068016921F00F0138
:101D1000394301612068C16821F400613143C16029
:101D20002068C16841F40051C160E563202084F857
:101D3000390084F83A000020CAE700F01F020121B0
:101D400091404009800000F1E020C0F80011704788
:101D5000F0B40E4B1B680C46C3F30223C3F1070516
:101D6000042D00D90425191D072901D2002300E004
:101D7000DB1E012606FA05F1491E214099409E40CE
:101D8000761E16403143F0BC01F01CBD0CED00E0A6
:101D9000064900F0070208684FF6FF03184040EAC2
:101DA0000220034A10430860704700000CED00E079
:101DB0000000FA0570470068416200207047F0B5E6
:101DC00000680023446A31B1856A4FF4827604EBDF
:101DD00015444D1E0AE044EA024181620FE006EB21
:101DE0008307C7595B1C04EB1744DBB2AB42F6DB3D
:101DF0004FF4807303EB810144EA02424250002019
:101E0000F0BDD0F8DC0302F0FABBC1EBC10200EB7D
:101E10008202D0F8DC03526B02F067BBC1EBC10257
:101E200000EB8202D0F8DC03D2F8F42102F0B2BB5E
:101E3000D0F8DC0302F0E5BB10B504460A460B06F9
:101E400001F07F00C0EBC00104EB810101D5283116
:101E500001E001F5F4710870D009487094F8A80306
:101E6000012809D0012084F8A803206802F0E4FECC
:101E7000002084F8A80310BD022010BD70B50A46EA
:101E80000446090602F07F0005D5C0EBC00104EB53
:101E90008101283105E0C2EBC20104EB810101F5AB
:101EA000F47100258D700870D009487094F8A8036B
:101EB000012809D0012084F8A803206803F03DF828
:101EC00084F8A853002070BD022070BD70B5044690
:101ED0000D460E0601F07F00C0EBC00104EB81014E
:101EE00001D5283101E001F5F4710870E809487066
:101EF0008A60CB7094F8A803012809D0012084F8E7
:101F0000A803206802F002FE002084F8A80370BD38
:101F1000022070BD70B50C4601F07F05C5EBC50110
:101F200000EB8101C1F8F4210022C1E97F3281F880
:101F3000E92181F8E851006801F5F471620603D0E7
:101F400003F05CF8002070BD02F052FFFAE770B5B4
:101F50000D460446090605F07F0005D5C0EBC0011B
:101F600004EB8101283105E0C5EBC50104EB8101DB
:101F700001F5F47101228A700870E809487094F83C
:101F8000A803012807D084F8A823206803F007F8E5
:101F9000680602D006E0022070BD04F56B7120686F
:101FA00002F0B4FF002084F8A80370BD70B50C46A1
:101FB00001F07F05C5EBC50100EB81014A630022FA
:101FC000C1E90F32012281F8292001F8285F006859
:101FD000620603D003F012F8002070BD02F008FF83
:101FE000FAE700002DE9F05F044600680026054688
:101FF00003F026F900287DD1206803F04AF9002873
:1020000078D0206803F045F980074FF0020B02D525
:102010002168C1F814B0206803F03BF900034FF0C9
:1020200008092CD5206803F016F9074625E0F807C3
:1020300021D0F1B2206803F024F98046C00708D00F
:1020400005EB46100121C0F8081BF1B22046FFF74E
:10205000E5FE5FEA087006D5204600F015FA05EBAC
:102060004610C0F8089B5FEAC86004D505EB46102F
:102070001021C0F8081B7F08761C002FD7D12068DC
:1020800003F007F940034FF0400A48D5206803F0F9
:10209000DBF80746002640E0F8073CD0F1B22068A4
:1020A00003F0E0F88046C0070FD00121D5F83428AE
:1020B00001FA06F08243C5F8342805EB4610C0F853
:1020C0000819F1B22046FFF7A0FE5FEA087003D5B9
:1020D00005EB4610C0F808995FEAC86004D505EB27
:1020E00046101021C0F808195FEA486005D505EBD5
:1020F000461000E011E1C0F808A95FEA887003D536
:1021000005EB4610C0F808B95FEA086003D5314610
:10211000204601F06DFB7F08761C002FBCD12068A3
:1021200003F0B7F800280CDAD5F8040820F0010015
:10213000C5F80408204600F08BF921684FF00040F4
:102140004861206803F0A5F800050AD5D5F808080D
:10215000C00702D0204600F0B7F921684FF40060B4
:102160004861206803F095F8C10404F56B7B3BD50A
:10217000D5F8040820F00100C5F8040810212068F3
:1021800003F04CF80020FF2107E000BF05EB4012F0
:10219000C2F80819C2F8081B401C62688242F5D8D0
:1021A0004FF0FF30C5F81808D5F81C0840F00110B2
:1021B000C5F81C08D5F8140840F00B00C5F8140841
:1021C000D5F8100840F00B00C5F81008D5F8000845
:1021D00020F4FE60C5F800085946206802F096FE1B
:1021E00021684FF480504861206803F052F8800461
:1021F00016D5206802F0D2FC2068C16821F4705125
:10220000C1600320C4E9030A2068C16841F4A051F9
:10221000C160204600F00CF920684FF40051416184
:10222000206803F036F8C00636D52068816921F0B1
:1022300010018161D5F8208008F00F00C0EBC000CC
:1022400004EB8007C8F3434007F5F477022802D077
:10225000062812D01BE047F6F07118EA010F16D0DD
:10226000C8F30A1290462846F96803F016F8F86891
:102270004044F860B869404408E0082259462846BE
:1022800003F00BF8B969C8F30A100844B861206874
:10229000816941F010018161206802F0FAFF0007B6
:1022A00005D5204600F0D8F82168C1F814902068C0
:1022B00002F0EFFFC00207D5F1B2204600F02FF880
:1022C00021684FF480104861206802F0E2FF80022C
:1022D00007D5F1B2204600F026F821684FF400102F
:1022E0004861206802F0D5FF400006D52046FFF780
:1022F00088FD21684FF080404861206802F0C9FFE6
:1023000040070AD520684568680702D52046FFF7D0
:102310008FFD2068416829434160BDE8F09FD0F8F7
:10232000DC0302F0B5B9D0F8DC0302F0B3B9000069
:102330002DE9F04186B004004FF0000504D094F878
:10234000A903002620B108E0012006B0BDE8F08115
:1023500084F8A863204600F04FF8032084F8A9030E
:10236000206802F03FFD04F11001142288466846FF
:10237000FDF797FF94E80F0002F02AFC0021206887
:1023800002F09BFF5FF00107C5EBC50004EB800086
:1023900080F8297000F8285FC580C6708660C66026
:1023A0006D1C46610F2DEFD35FF00000C0EBC00144
:1023B00004EB810181F8E96181F8E801C88581F8C1
:1023C000EB61C1F8F061C1F8F461401CC1F8FC6137
:1023D0000F28EBD3142241466846FDF762FF94E8CC
:1023E0000F0002F079FC84F8246084F8A973206857
:1023F00002F065FC0020A8E708B50068B0F1A04F26
:1024000012D10A48416941F480514161406900227A
:1024100000F48050009005214320FFF799FCBDE8AF
:1024200008404320FFF789BC08BD000000100240AF
:1024300010B50446C068012100B90021D4F8DC03BE
:1024400002F07EF9D4F8DC03BDE8104002F047B991
:10245000D0F8DC0302F062B9D0F8DC0302F064B912
:1024600010B5044690F8A80301280BD0012084F889
:10247000A80384F82410206802F035FF002084F8B7
:10248000A80310BD022010BDD0F8DC2300F56B714D
:10249000104602F068B910B5044690F8A803012868
:1024A00010D0012084F8A80301462046FFF782FCE3
:1024B000206802F0F8FB206802F09AFE002084F801
:1024C000A80310BD022010BD10B50446D0F8DC03EF
:1024D00002F096F92068D0F8001E41F00101C0F822
:1024E000001EA069002804D00248016841F00601DE
:1024F000016010BD10ED00E02DE9F84304460078BE
:102500005B4DC0074FF0010951D0E8690026C000BB
:1025100008D4E86940F08050E861E869012600F0DD
:102520008050009053480168C90512D40168804664
:1025300041F480710160FFF75BFB074605E000BFD7
:10254000FFF756FBC01B642877D8D8F80000C005F9
:10255000F6D5286A10F440701ED0A18801F44071AD
:10256000814219D0286A444920F44070C1F8009093
:1025700000220A602862C0070ED0FFF739FB074629
:1025800041F2883805E000BFFFF732FBC11B41452F
:1025900053D8286A8007F7D5286A616820F440700C
:1025A000084328621EB1E86920F08050E861207875
:1025B000800705D56868A16820F44040084368603A
:1025C0002078400705D5E86AE16820F40030084328
:1025D000E8622078000705D5E86A216920F48020A8
:1025E0000843E862E86A800302D4E86A400333D50E
:1025F0002868C00028D42868400105D5E86AA16988
:1026000000F0F000884225D1E86AA16920F0F000CE
:102610000843E862E86A616920F470400843E862B0
:102620001649C1F87090FFF7E3FA064608E004E0A7
:10263000FFF7DEFA801B642802D90320BDE8F88387
:1026400028688000F4D507E0E86A616900F470400A
:10265000884201D00120F1E72078C00605D56868DE
:10266000E16920F48000084368600020E6E700008C
:10267000001002400070004040044242000042420C
:102680002DE9F047DFF8548105460E46D8F80000E2
:1026900000F00700B0420CD2D8F8001021F007017A
:1026A0003143C8F80010D8F8000000F00700B0422D
:1026B0006FD128684A4C810712D5400703D560685E
:1026C00040F4E06060602878000703D5606840F45B
:1026D000605060606068A96820F0F00008436060A6
:1026E0002878C00744D06868012816D021680228DD
:1026F00016D0890700294CDA616821F003010143F3
:102700006160FFF775FA6968074641F28830012970
:102710000ED00229814618D026E021688903E9E716
:102720008901E7E7FFF764FAC11B494501D918E0C1
:1027300081466068C0F381000128F3D118E000BF32
:10274000FFF756FAC11B49450BD86068C0F38100FA
:102750000228F5D10CE000BFFFF74AFAC11B49453A
:1027600002D90320BDE8F087606810F00C0FF3D1A8
:10277000D8F80010404601F00701B1420BD90168BA
:1027800021F0070131430160006800F00700B0420A
:1027900001D00120E6E72878400705D56068E968A0
:1027A00020F4E060084360602878000706D5606880
:1027B000296920F4605040EAC100606000F036F8FA
:1027C0006168084AC1F30311515CC84006490860BA
:1027D0000F20FFF72DFA0020C4E700000020024080
:1027E00000100240207000089000002004480549B5
:1027F00000684968044AC1F30221515CC84070472F
:102800009000002000100240307000080448054984
:1028100000684968044AC1F3C221515CC84070474E
:10282000900000200010024030700008F0B523A294
:1028300089B00FCA04AC84E80F0024A10FC98DE849
:102840000F0026494A68264802F00C03042B2FD0BB
:10285000082B2DD104A8C2F38343C45CD00329D52F
:10286000C86A00F00F001DF80020C86AC00316D522
:10287000C86AC96AC0F30310C1F30321401C891C54
:10288000A0FB0223A1FB0416154F0025A1FB070C9A
:1028900006FB07C601FB0561FDF7C2FC03E010481B
:1028A0006043B0FBF2F09DF81D10A14200D140083A
:1028B00009B0F0BD0B486043FAE7000000000405D2
:1028C0000607080900000000000D000001020304D3
:1028D00005060708090A0B0C0D0E0F100010024028
:1028E00000127A0000093D002DE9F84F04460078F7
:1028F000EA4DC00748D06868C0F38100012807D0BE
:102900006868C0F38100022809D16868C00306D551
:102910002868800338D5A06800286FD034E0A0680C
:10292000B0F5803F0BD010B1B0F5A02F11D02868C2
:1029300020F480302860286820F4802002E0286895
:1029400040F480302860A06888B1FFF751F906464E
:1029500009E0286840F480202860F0E7FFF748F994
:10296000801B642878D828688003F7D50CE0FFF72F
:102970003FF9064605E000BFFFF73AF9801B6428DF
:10298000F0D828688003F7D42078C54E80074FF030
:1029900001094FF000073CD5686810F00C0F07D014
:1029A0006868C0F38100022809D16868C00306D4B2
:1029B0002868800715D5606901281FD111E060697A
:1029C000B8B1C6F80090FFF713F9804606E000BFE3
:1029D000FFF70EF9A0EB08000228C3D8286880078B
:1029E000F6D52868A16920F0F80040EAC100286007
:1029F0000FE03760FFF7FCF8804607E02DE100BFED
:102A0000FFF7F6F8A0EB08000228ABD8286880078B
:102A1000F6D4207800072ED5A248E169E9B1C0F8C4
:102A20000090FFF7E5F8804606E000BFFFF7E0F80A
:102A3000A0EB0800022895D8686A8007F6D59A4866
:102A40004FF4FA510068B0FBF1F0009000BF00981D
:102A5000411E0091FAD20EE0B0E00760FFF7C8F81F
:102A6000804605E0FFF7C4F8A0EB0800022887D8ED
:102A7000686A8007F6D42078400763D5E8694FF08C
:102A80000008C00009D4E86940F08050E861E869B6
:102A90004FF0010800F08050009084480168C9059B
:102AA00012D40168834641F480710160FFF7A0F8F9
:102AB000824605E0FFF79CF8A0EB0A0064287DD869
:102AC000DBF80000C005F5D5206901280AD008B15F
:102AD000052813D0286A20F001002862286A20F017
:102AE000040002E0286A40F001002862206941F2F7
:102AF000883B98B1FFF77CF882460BE0286A40F0EB
:102B000004002862EEE700BFFFF772F8A0EB0A01AD
:102B1000594553D8286A8007F6D50CE0FFF768F8C6
:102B2000824605E0FFF764F8A0EB0A01594545D855
:102B3000286A8007F6D4B8F1000F03D0E86920F0C6
:102B40008050E861E06AD0B36968C90307D5696855
:102B5000C1F38101022902D1E96AC9037DD40228A7
:102B600008D0E86A20F48030E862B766FFF740F8E2
:102B700080463BE02868C00005D5E86A616B00F03C
:102B8000F000884269D1B766FFF732F8804605E069
:102B9000FFF72EF8A0EB0800642874D8286800011D
:102BA000F6D4E86A616B20F0F0000843E862E86A56
:102BB000216B20F470600843E86201E063E018E0F4
:102BC000C6F86890FFF714F8804605E0FFF710F8A4
:102BD000A0EB0800642856D828680001F6D508E064
:102BE000FFF706F8A0EB080064284CD8286800011D
:102BF000F6D4206A90B36968C1F3810102294AD0F2
:102C00000228376603D0FEF7F3FF04463EE0FEF7E6
:102C1000EFFF074605E000BFFEF7EAFFC01B0228F2
:102C200031D828688001F7D4606AB0F5803F09D1B7
:102C3000E86A61680843E862E86AE16820F00F002A
:102C40000843E862D4E909010843696821F4741172
:102C500008436860C6F8609001E01CE019E0FEF7E8
:102C6000C7FF044605E000BFFEF7C2FF001B0228B5
:102C700009D828688001F7D50BE000BFFEF7B8FF40
:102C8000001B022802D90320BDE8F88F28688001C4
:102C9000F4D40020F8E70120F6E70000001002401D
:102CA0000000424280044242900000200070004038
:102CB00010B5401EB0F1807F01D3012010BD4FF050
:102CC000E02460610F21601700F07CFD0020A0610E
:102CD00007202061002010BD30B590F83C20012A6B
:102CE00020D0012280F83C20022380F83D30036888
:102CF0005C6824F070045C6003685C680D682C43B9
:102D00005C6003689C6824F080049C6003689C6895
:102D100049680C439C6080F83D20002180F83C10FD
:102D2000084630BD022030BD30B585B0002100918D
:102D3000019102910391016825480224254DB1F1CA
:102D4000804F1CD0244A914217D1816941F0100173
:102D500081618069694600F010000490C020CDE9CF
:102D600000041E480394FEF75BFE686820F4406090
:102D700040F0E06040F44060686005B030BD8169BB
:102D800041F004018161816901F0040104918169CC
:102D900041F0080181618069694600F008000490F3
:102DA0004FF40040CDE900040D480394FEF738FECF
:102DB0000820CDE9000469460A480394FEF730FE76
:102DC000686820F4407040F0E06040F48070D3E721
:102DD00000100240000001400004004000100140CB
:102DE00000080140000C014070B5044690F83C001A
:102DF0000D4601280DD0012684F83C60022084F89D
:102E00003D0042B1042A18D0082A2AD00C2A4DD1FC
:102E100039E0022070BD206800F006FE206881695C
:102E200041F0080181612068816921F0040181611C
:102E3000206881692A69114311E0206800F01CFEB6
:102E40002068816941F4006181612068816921F411
:102E500080618161206881692A6941EA022181617A
:102E600024E0206800F034FE2068C16941F00801C8
:102E7000C1612068C16921F00401C1612068C16994
:102E80002A69114311E0206800F04EFE2068C169F4
:102E900041F40061C1612068C16921F48061C161B0
:102EA0002068C1692A6941EA0221C16184F83D6054
:102EB000002084F83C0070BD10B5040003D094F8E5
:102EC0003D0010B107E0012010BD002084F83C0057
:102ED000204600F00DF8022084F83D00211D2068F6
:102EE00000F064FD012084F83D00002010BD0000CA
:102EF00008B501680B48B1F1804F0BD00A4A9142E6
:102F000007D1C16941F00201C161C06900F002004E
:102F1000009008BDC16941F00101C161C06900F0C4
:102F20000100F5E700100240000400407047000077
:102F300070B5026804461068D168536910F00F0F2D
:102F400050D003F0010501F4907635435DD0C207FF
:102F500005D0CA0503D5E26B42F00102E2634207E5
:102F600005D5DA0703D0E26B42F00202E263820782
:102F700005D5DA0703D0E26B42F00402E2630207F0
:102F800005D5DA0703D0E26B42F00802E263E26B98
:102F9000002A33D0800604D5880602D5204600F0EA
:102FA000ACFE20684069E16BC0F38010090700D4D3
:102FB00028B3204600F08AFE2068416949061AD5E8
:102FC000416921F040014161606BA0B11B4941633F
:102FD000606BFEF7E1FA002810D0606B416BBDE832
:102FE00070400847830610D58B060ED52046BDE8F5
:102FF000704000F082BE2046FFF798FF70BD20466B
:10300000FFF794FF0020E06370BD030606D50B06B2
:1030100004D52046BDE8704000F072BF4006F3D5ED
:103020004806F1D5D168204621F04001D160202129
:1030300084F8391000F0A5F970BD00002D3C00089F
:103040002DE9F04385B00025009501950295039583
:103050000446DFF8B8C103686D48022103226D4FB2
:1030600080264FF480684FF02009634537D183698B
:1030700043F480438361836903F480430493836949
:1030800043F0040383618069039200F0040004901C
:103090000802CDE9000169463846FEF7C1FCCDE9DA
:1030A0000085694638460295FEF7BAFC5B4F5A48E0
:1030B000C7E90005C7E902563D61C7E90559384629
:1030C000FD61FEF725FC08B1FDF756FD67630022A0
:1030D000052125207C62FEF73BFE252052E0DFF82B
:1030E00040C1634553D1C36943F40033C361C3692D
:1030F00003F400330493836943F00403836180691C
:10310000039200F0040004900420CDE90001694618
:103110003846FEF785FC0820CDE9000569463846AB
:103120000295FEF77DFC3D4F3B484437283001C7F0
:10313000102061C7394847F8105944307D61BD619E
:10314000FD61FEF7E5FB08B1FDF716FD27637C6224
:10315000324F314888371430C7E90005C7E90256B5
:103160003D617D61BD613846FD61FEF7D1FB08B16F
:10317000FDF702FD67630022052126207C62FEF731
:10318000E7FD2620FEF7D9FD05B0BDE8F083254F09
:10319000BB42F9D1C36943F48023C361C36903F41B
:1031A00080230493836943F0080383618069CDE938
:1031B000008100F00800CDE903201B4F6946384626
:1031C000FEF72EFCF814CDE9000569463846029555
:1031D000FEF726FC114F1048CC372838C7E9000508
:1031E000C7E902563D61C7E905593846FD61FEF75A
:1031F0008FFB08B1FDF7C0FC676300220521272083
:103200007C62FEF7A5FD2720BCE7000000380140E6
:1032100000100240000801405800024094030020C2
:103220000044004000480040000C0140F8B504464E
:1032300090F83A0020283CD1C1B3BAB394F83800D2
:10324000012836D0012084F83800A162A28500252B
:10325000E563222084F83A00636B17489862636B39
:103260001648D862636B16481863606B1346456353
:103270000846666B216802463046091DFEF786FB4C
:10328000206801684168009184F83850C16841F4B1
:103290008071C1602068416941F00101416120688D
:1032A000416941F0400141610020F8BDFFE7012084
:1032B000FBE70220F9E70000873C0008C33C000858
:1032C0003D3C0008704770472DE9F843044690F8EC
:1032D00039001F4616460D46202850D1A5B19EB193
:1032E00094F8380001284AD0012084F838004FF0C3
:1032F0000008C4F83C80212084F83900FEF778FCEF
:10330000A6848146E68426E00120BDE8F883E08CAF
:10331000401EE084A0684B46B0F5805F4FF000028D
:103320004FF080012046009703D000F01AFEE8B964
:103330000DE000F016FEC8B928882168C0F3080027
:103340004860206908B16D1C05E0AD1C03E02168F0
:1033500015F8010B4860E08C0028D8D14B460022BC
:1033600040212046009700F0FCFD08B10320CCE787
:10337000202084F8390084F838800020C5E7022036
:10338000C3E77047FEE71CB50446B0F92400FDF71B
:10339000A4F90346217B206ACDE9000104F17801FC
:1033A00004F12C00A26A02F06BFDFDF7B5F900B242
:1033B000A082A168A1F50071013906D0012908D0C9
:1033C00002290AD003290FD10BE0010AA175E0758B
:1033D0000AE0010A2176607606E0010AA176E0762D
:1033E00002E0010A2177607704F116001CBD10B5D8
:1033F0000446088840BAE0834A8852BAA284898881
:1034000049BAE184FDF772F9014604F1C400FDF701
:103410006FFC206210BD00000F4810B50D4901601F
:103420000421416000214FF480228160C0E9031231
:10343000D20042610176012242768276C27601771D
:103440004177FDF7C6FE002803D0BDE81040FDF728
:1034500093BB10BD00640040040200200F4810B56B
:103460000D4901600421416000214FF480228160F8
:10347000C0E90312D20042610176012242768276CF
:10348000C27601774177FDF7A4FE002803D0BDE89E
:103490001040FDF771BB10BD006800402C020020F9
:1034A000154808B5416941F00101416140690022B8
:1034B00000F00100009005210D20FEF749FC0D20D1
:1034C000FEF73BFC002205210F20FEF741FC0F20F8
:1034D000FEF733FC002205211020FEF739FC1020F6
:1034E000FEF72BFC002205211120FEF731FCBDE880
:1034F00008401120FEF721BC0010024000B585B045
:10350000142206496846FCF7CCFE0021684602F00A
:10351000F9FC0349486005B000BD0000F86F0008E1
:10352000040000202DE9F04186B0002424480094D6
:10353000019402940394816941F0100181618169D1
:1035400001F010010491816941F0200181618169DC
:1035500001F020010491816941F0040181618169D8
:1035600001F004010491816941F0080181618069E1
:10357000144F00F0080046F202050490002229468C
:103580003846FEF72FFBDFF840800022012140463D
:10359000FEF728FB0095022601250396CDE901548C
:1035A00069463846FEF73CFA03960095CDE901548A
:1035B00069464046FEF734FA06B0BDE8F0810000E7
:1035C0000010024000100140000C014010B58AB00C
:1035D000002407941C2168460894FCF77BFE1A48D7
:1035E0004FF0804101602C21C0E9011440F2CF71FD
:1035F000C0E903148461FFF75FFC08B1FDF7BCFA72
:10360000079407A910480894FFF766FB08B1FDF777
:10361000B3FA6020CDE900040294002269460A480A
:103620000494FFF7E1FB08B1FDF7A6FA042269460E
:103630000548FFF7D9FB08B1FDF79EFA0248FFF7EE
:1036400073FB0AB010BD00005402002010B58AB010
:10365000002407941C2168460894FCF73BFE1B4895
:10366000194901602C21C0E9011440F2CF71C0E971
:10367000031480218161FFF71FFC08B1FDF77CFA7C
:10368000079407A911480894FFF726FB08B1FDF736
:1036900073FA6020CDE900040294002269460B48C9
:1036A0000494FFF7A1FB08B1FDF766FA042269460E
:1036B0000648FFF799FB08B1FDF75EFA0348FFF7EC
:1036C00033FB0AB010BD000000040040940200204B
:1036D0000D4810B50B4901604FF4E1314160002104
:1036E00081600C22C160C0E9041281610A46C16197
:1036F000FEF7E2FA002803D0BDE81040FDF73CBA1F
:1037000010BD000000380140D40200200D4810B563
:103710000B4901604FF4E1314160002181600C22CE
:10372000C160C0E9041281610A46C161FEF7C4FAB2
:10373000002803D0BDE81040FDF71EBA10BD000000
:1037400000440040140300200D4810B50B490160EF
:103750000C49416000214FF480628160C0E903128E
:103760000422C0E905210A46C161FEF7A5FA002836
:1037700003D0BDE81040FDF7FFB910BD0048004080
:1037800054030020A086010010B500220849094812
:1037900000F076FE0849074801F05FF80749054840
:1037A00000F0A4FCBDE81040024801F0A3B80000FE
:1037B0001C000020A4040020F80000207400002059
:1037C000FEE770470907090E002806DA00F00F002F
:1037D00000F1E02080F8141D704700F1E02080F82F
:1037E000001470470148FEF7FDBB000020070020D1
:1037F0002DE9F0470F46C1EBC70100EB81050668D4
:10380000D5E90F01441A286B2835A04200D204469E
:10381000E01C4FEA900806EB471913E0441AA86829
:10382000A04200D20446E01C4FEA9008A3B2FAB2CC
:103830003046E96801F068FDE8682044E860A8695E
:103840002044A861D9F8180981B2414505D9D5E9C4
:103850000501814201D20028E0D1002C06DC0120C4
:10386000D6F83418B8408143C6F834180020BDE8B3
:10387000F0870000FEB5044608A890E8E00009487B
:1038800060640948A0648DE8E000204602F097FBE0
:10389000D4F848C003B03B46324629462046BDE82E
:1038A000F0406047BF5F0008D75F000810B50146D1
:1038B00012220748FCF7F5FCFDF7DAF9044C6169C0
:1038C000401A04490860FDF7D3F9606110BD00009B
:1038D000581E0020A001002010B5FEF78FF9BDE8AA
:1038E000104002F005BB000070B59CB0382168465E
:1038F000FCF7F0FC14210EA8FCF7ECFC202113A827
:10390000FCF7E8FC012500242804CDE90204022686
:10391000CDE908600095059501944FF4E010CDE9DC
:103920000A046846FEF7E0FF0F20CDE90E06A80264
:10393000CDE9104002210EA81294FEF7A1FE10203E
:1039400013901A9413A8FEF7D7FD024805671CB020
:1039500070BD0000000042421048016841F00101C2
:10396000016041680E4A1140416001680D4A1140F2
:103970000160016821F480210160416821F4FE01A9
:103980004160016821F0A05101604FF47F01816026
:103990000021C1620449C003086070470010024062
:1039A0000000FFF0FFFFF6FE08ED00E0F0B5026852
:1039B000194B1A4C1A4D1B4E4FF08047984207D0B6
:1039C000B84205D0A04203D0A84201D0B04204D1F1
:1039D00022F0700C4A6842EA0C02984207D0B842C2
:1039E00005D0A04203D0A84201D0B04203D122F4B6
:1039F0004074CA68224322F080044A69224302606C
:103A00008A68C2620A688262984201D109690163C8
:103A100001214161F0BD0000002C01400004004084
:103A200000080040000C004030B5026A22F001029C
:103A30000262026A4368846924F073050C682C43AF
:103A400022F002058A682A430A4DA8420BD122F0CF
:103A50000805CA6823F440732A434D6922F0040222
:103A60001D438B692B434360846149684163026253
:103A700030BD0000002C014030B5026A22F0100277
:103A80000262026A436884690D6824F4E64444EAE9
:103A900005248D6822F0200242EA05120B4DA8424F
:103AA0000ED1CD6822F0800242EA05124D6923F45E
:103AB000406343EA85038D6922F0400243EA8503AF
:103AC0004360846149688163026230BD002C01401B
:103AD00030B5026A22F480720262036A4268C469E5
:103AE00023F4007324F073050C682C438D6843EABB
:103AF00005230C4DA8420ED1CD6823F4006343EAA0
:103B000005234D6922F4405242EA05128D6923F4DF
:103B1000806342EA05124260C4614968C16303627E
:103B200030BD0000002C014030B5026A22F4805202
:103B30000262046A4268C3690D6823F4E64343EAFB
:103B400005238D6824F4005444EA0534064DA84248
:103B500004D14D6922F4804242EA85124260C36179
:103B600049680164046230BD002C0140F8B52C4D59
:103B70002868016840680090FDF77CF8294CD4E97A
:103B80000423801A61EB0301C4E90601FDF772F812
:103B9000C4E90401686B0068016821F0010101605B
:103BA000686B0168486840F6B836C0F1240000B27E
:103BB000A080D4E906370022F61ABA410BD20128B8
:103BC00009D0E2883AB962880AB90122628020806D
:103BD0004FF0FF32E28012281AD124204860B4F955
:103BE00000201149C2F1120008444039401C521E05
:103BF000FCF757FB0C48FFF759FEB4F900000A49DF
:103C0000C0F11302403901440748491EFCF749FB43
:103C1000686B0068016841F001010160F8BD0000B7
:103C20005403002080010020301E002010B5406A9F
:103C30000021C185C184FFF779F910BD70B5446AD0
:103C40002068406994F83910C0F3C010002521297C
:103C500004D118B1E584204600F046F82068406998
:103C600094F83A10C0F38010222904D118B1E585E8
:103C7000204600F02BF8E06B40F01000E063204697
:103C8000FFF754F970BD10B50146406A096809682C
:103C9000890613D40021C1850168CA6822F48072A4
:103CA000CA6001684A6922F001024A6101684A69F2
:103CB00022F040024A61202180F83A10FFF702FB0F
:103CC00010BD10B5406AFFF7FEFA10BD0168CA6862
:103CD00022F49072CA6001684A6922F001024A61C6
:103CE000202180F83A1070470168CA6822F0C002AB
:103CF000CA60202180F83910704710B590F83A104A
:103D0000222901D0022010BD8168B1F5805F11D059
:103D10000169002901681FD0496801F07F03816AA9
:103D20004A1C82620B70C18D491E0904090CC185B1
:103D300018D02BE00269816A002A0268526805D017
:103D4000D2B20A80816A491C8162ECE7C2F30802A0
:103D50000A80816A891CF7E74A68816A4B1C836282
:103D60000A70E0E70168CA6822F02002CA600168B0
:103D7000CA6822F48072CA6001684A6922F00102AE
:103D80004A61202180F83A10FFF79CFA002010BD0C
:103D90002DE9F041044600680169E26821F44051D0
:103DA000114301612169A0680843616908432168E2
:103DB000CA6841F20C639A430243CA6020684169B1
:103DC000A26921F44071114341614C492068642586
:103DD000322688423CD1FEF719FD00EBC00101EB11
:103DE000001061688900B0FBF1F7FEF70FFD00EBF2
:103DF000C00101EB00106168B0468900B0FBF1F032
:103E0000B0FBF5F06FF01801484307EB800106EBBB
:103E10000110B0FBF5F000F0F006FEF7F7FC00EB48
:103E2000C00101EB001061688900B0FBF1F0B0FB4C
:103E3000F5F006EB0016FEF7E9FC00EBC00101EB24
:103E4000001061688900B0FBF1F7FEF7DFFC3BE092
:103E5000FEF7CCFC00EBC00101EB001061688900AB
:103E6000B0FBF1F7FEF7C2FC00EBC00101EB001064
:103E70006168B0468900B0FBF1F0B0FBF5F06FF07F
:103E80001801484307EB800106EB0110B0FBF5F089
:103E900000F0F006FEF7AAFC00EBC00101EB0010F9
:103EA00061688900B0FBF1F0B0FBF5F006EB00169D
:103EB000FEF79CFC00EBC00101EB0010616889007B
:103EC000B0FBF1F7FEF792FC00EBC00101EB001034
:103ED00061688900B0FBF1F0B0FBF5F06FF01801FC
:103EE000484307EB800108EB0110B0FBF5F02168B7
:103EF00000F00F0030448860BDE8F08100380140D8
:103F000090F83910212901D0022070478168B1F55D
:103F1000805F016A0BD04A1C026202680978516016
:103F2000C18C491E0904090CC1840ED017E0098810
:103F30000268C1F30801516001690029016A02D0D9
:103F4000491C0162ECE7891CFBE70168CA6822F0A2
:103F50008002CA600068C16841F04001C160002071
:103F600070472DE9F041984617460E460446069DD7
:103F70001DE0681C1BD02DB1FDF73AFEA0EB080038
:103F8000A84214D92068C16821F4D071C1602068AA
:103F9000416921F001014161202084F8390084F851
:103FA0003A00002084F838000320BDE8F081206842
:103FB000006836EA000004D00020B842D9D00020C2
:103FC000F3E70120F9E700000148FEF7B1BF000068
:103FD000D40200200148FEF7ABBF0000140300200C
:103FE00010B51E2203490448FFF720F90028F8D134
:103FF00010BD0000F01D002054030020FFF7B6BDE7
:10400000D0F81802002180F850100846704770B5AB
:104010000546D0F81842D5F81C226178D26820787D
:104020009047402322460121284600F048FB00200B
:1040300070BD10B50446812100F047FA01212046E9
:1040400000F043FAD4F8180250B1D4F81C0204F579
:10405000067480688047206800F052FD00202060D0
:10406000002010BD10B5D0F81842E16C012908D12C
:10407000D0F81C0223786178C26818469047002067
:10408000E064002010BD0000292101800048704735
:10409000340100200A210180004870476C01002093
:1040A00070B50646002502230322812100F0F4FAB0
:1040B000022303220121304600F0EEFA542000F0E2
:1040C00021FDC6F8180278B10446002084F850009B
:1040D000D6F81C0240688047402322460121304622
:1040E00000F0EDFA284670BD0125FBE702460220EC
:1040F000002902D00020C2F81C12704770B50022BF
:104100000D78D0F81832144615F0600526D0202D11
:104110004CD14A78921E0A2A1CD2DFE802F010081D
:104120001B1B1B1B1B140C05887818643EE0012226
:1041300003F1400131E04888000A586436E001226A
:1041400003F1440129E00122DA648A79194600F07A
:1041500053F82BE000F045F8022070BD4D78062D95
:1041600004D00A2D1CD00B2D20D11DE04B88222518
:10417000B5EB132F07D1CA88212A00D92122D0F804
:104180001C120C6808E02125B5EB132F04D1CA8856
:10419000074C092A00D90922214600F047F805E01A
:1041A000012203F14801F8E788789864002070BD87
:1041B0006001002010B5D0F814225268904700200A
:1041C00010BD134610B50A46002100F078FA002011
:1041D00010BD134610B50A46002100F01AFB00205E
:1041E00010BD10B50446802100F0EAFA2046BDE873
:1041F0001040002100F0E4BA10B50323C0F80821F4
:10420000C0F8F431C0F80C2113460A46002100F032
:1042100056FA002010BD10B505210023C0F8F41196
:104220001A46194600F04BFA002010BD10B50223C3
:104230008261C0F8F431C26113460A46002100F0E1
:10424000E8FA002010BD10B504210023C0F8F411D5
:104250001A46194600F0DDFA002010BD10B50A46D6
:10426000024903A000F0E9F8004810BD000B00204F
:10427000437573746F6D2048494420436F6E6669BF
:104280006700000012200880004870473C000020B2
:1042900010B50A46024903A000F0CFF8004810BD4F
:1042A000000B0020437573746F6D2048494420490A
:1042B0006E7465726661636500000000042008800A
:1042C000004870473800002010B50A46024903A094
:1042D00000F0B3F8004810BD000B002053544D69A6
:1042E00063726F656C656374726F6E6963730000EF
:1042F00010B50A46024903A000F09FF8004810BD1F
:10430000000B002053544D333220437573746F6D8E
:104310002048756D616E20696E74657266616365B3
:104320000000000010B50A46024903A000F085F81D
:10433000004810BD000B00203030303030303030BD
:104340003030314100000000F8B5044648880D4681
:10435000010A082954D2DFE801F053040917535326
:104360004951D4F81012207C0A6819E0207C0226FA
:104370000028D4F8140205D0C16A6846884701466F
:1043800046704AE0816AF8E7C1B2062926D2DFE822
:1043900001F0030A0F14191ED4F81012207C4A6889
:1043A0006946904718E0D4F81012207C8A68F7E735
:1043B000D4F81012207CCA68F2E7D4F81012207CDE
:1043C0000A69EDE7D4F81012207C4A69E8E7D4F8CE
:1043D0001012207C8A69E3E701461EE0C1B2D4F8DE
:1043E00014026A46836B20469847F5E7207C38B96B
:1043F000D4F81402416B68468847EDE7207C20B171
:1044000029462046FFF7EDFEF8BDD4F81402016BF3
:1044100068468847014607204870BDF8000000281C
:10442000F2D0EA88002AEFD0824200D90246ADF8E5
:1044300000202046FFF7FAFEF8BD70B500230028E3
:104440001DD00446002502E06D1CEDB2641C2678E8
:10445000002EF9D1022404EB45041480CC545B1CDB
:104460000322CA5400245B1C06E0CA545B1CDAB267
:104470008C54521CD3B2401C0278002AF5D170BD76
:1044800010B580B1D0F8143213B10023C0F8143243
:1044900009B1C0F81012012180F8FC11027000F07F
:1044A000BBF8002010BD022010BD10B50024D0F8CC
:1044B0002002FDF7E3FC30B1012801D0022801D031
:1044C000022400E00124204610BD10B50024D0F8DD
:1044D0002002FDF7B1FC30B1012801D0022801D043
:1044E000022400E00124204610BD2DE9F0411746CA
:1044F000044641B1D4F8140242698AB394F8FC012D
:10450000032842D043E0D4F8F411002504F114004C
:10451000022933D1D0E902639E4207D9F31A83609E
:104520009AB239462046FFF754FE12E04068B0FBCD
:10453000F3F103FB1101A1B9984212D3D4F8F81199
:1045400088420ED2002211462046FFF742FEC4F8F0
:10455000F85100231A461946204600F0B0F80DE045
:1045600012E0D4F81402C16829B194F8FC010328C0
:1045700001D1204688472046FFF74DFE94F80002FF
:10458000012804D184F8005201E020469047002021
:10459000BDE8F08170B51546044641B1D4F8140267
:1045A00082693AB394F8FC01032824D025E0D4F8BA
:1045B000F41104F5827003291FD1D0E902218A4247
:1045C0000BD9531A83600846834200D303469AB23C
:1045D00029462046FFF7F5FD0FE0D4F814020169E3
:1045E00029B194F8FC01032801D1204688472046D0
:1045F000FFF729FE01E020469047002070BD002013
:10460000704710B5012180F8FC11D0F8142201790F
:1046100052689047002010BD10B5017821BB1349A6
:10462000C1F8DC03C0F820124FF0A040086004205D
:1046300048600220C8600020086148618861C86144
:104640000846FDF775FE08B1FCF796FA8021074889
:10465000FDF7B1FB402200210448FDF7B0FB8022AA
:1046600001210248FDF7ABFB002010BD2007002010
:104670000A0601F07F01D0F82002C1EBC10100EB76
:10468000810002D590F82A00704790F8EA0170473F
:10469000002070470020704770B51D461346002467
:1046A000D0F820022A46FDF711FC30B1012801D0D4
:1046B000022801D0022400E00124204670BD10B57C
:1046C0000024D0F82002FDF725FC30B1012801D0EC
:1046D000022801D0022400E00124204610BD70B55C
:1046E0000022044640231146FFF7D6FF40252B4603
:1046F000002280212046C4F81051FFF7CDFF012091
:10470000256284F8FC01D4F8180228B1D4F8140208
:104710002179426820469047002070BD90F8FD1135
:1047200080F8FC110020704710B590F8FC110329A7
:1047300004D1D0F81412C96901B18847002010BD16
:1047400001740020704710B50024D0F82002FDF756
:1047500087FE30B1012801D0022801D0022400E0F8
:104760000124204610BD70B5044600F502700546D0
:1047700000F05FF80120C4F8F401B4F80E02C4F8A8
:10478000F80194F8080210F01F010AD001290DD099
:10479000022910D000F08001204600F011F800201E
:1047A00070BD2946204600F0AAF8F8E729462046C1
:1047B00000F08CF9F3E72946204600F019F9EEE7FE
:1047C00010B50024D0F82002FDF7C1FB30B101285C
:1047D00001D0022801D0022400E00124204610BDAF
:1047E00010B50024D0F82002FDF755FE30B10128A5
:1047F00001D0022801D0022400E00124204610BD8F
:1048000090F8FC1180F8FD11042180F8FC110020C3
:10481000704710B50024D0F82002FDF7C7FB30B177
:10482000012801D0022801D0022400E00124204602
:1048300010BD0A7802704A7842708A78CB7802EB11
:10484000032242800A794B7902EB032282808A7923
:10485000C97902EB0121C18070470246002011B1E5
:10486000C2F8141270470220704710B5D0F8142215
:1048700002241AB11268904700B90024204610BDE6
:1048800070B50E461A4D897804462970012928D83A
:1048900094F8FC01022802D0032822D105E099B146
:1048A0000320616084F8FC0109E091B160688842EE
:1048B0000AD0C1B22046FFF77DFC2978616020460E
:1048C000FFF7D3FF02280CD02046BDE87040FFF769
:1048D000BABC022084F8FC0120466160FFF76AFC44
:1048E000F2E731462046BDE87040FFF77ABC000091
:1048F000F400002010B5FFF773FF002010BD2DE974
:10490000F04100264B78012532460A2B43D2DFE8DE
:1049100003F03C584251420805422A27FFF714FD94
:1049200063E004468888C8B9C888B8B9887800F0B8
:104930007F0794F8FC01032810D084F8FE713946F3
:104940002046FFF700FF2046FFF77DFC1FB1022045
:1049500084F8FC0149E084F8FC5146E020461AE066
:10496000FFF78EFF41E0CB88012B14D190F8FC318A
:10497000022B02D0032B0ED104E08260012200F151
:10498000080114E00122011D11E090F8FC21022A27
:1049900004D0032A02D0FFF724FC26E0C560D0F83B
:1049A000041209B10321C160022200F10C01FFF7DA
:1049B0003DFC1AE004464888012816D1C4F8045288
:1049C0000BE0044690F8FC01022801D00328C5D171
:1049D0004888012809D1C4F80422D4F81402826856
:1049E000204690472046FFF72EFC3046BDE8F08178
:1049F00070B50D460446287800260979C0F34110A9
:104A0000012806D06878A0B301281FD003283FD121
:104A100007E0D4F814022946826820469047002017
:104A200070BD94F8FC01022817D003282CD16888A7
:104A300028B921B1802902D02046FFF7C1FED4F861
:104A40001402294682682046904713E094F8FC013E
:104A5000022802D0032817D103E0C9B180291BD155
:104A600016E06888A0B9480604D02046FFF71DFD6F
:104A7000E5E703E02046FFF7E6FB09E094F8FC01D8
:104A8000022807D003280BD029462046FFF7A9FBB0
:104A9000304670BD4806FBD02046FFF791FEF7E791
:104AA000080601F07F0004EB001501D5143501E084
:104AB00005F582752046FFF7DBFD00B10120286077
:104AC000022229462046FFF7B1FBE1E770B5054613
:104AD00090F8FC010C4603280DD1207901280AD852
:104AE000D5F81402826828469047E08830B92846F5
:104AF000FFF7A9FB02E02846FFF773FB002070BD1B
:104B00007047000000487047C806002030B54B7859
:104B10000A7803B1CA80CA78022A01D100220A7138
:104B20001D4C01220D78AA40012BD0F81C3818D05A
:104B300043EA0242C0F81C280A7800EB4210D0F881
:104B4000002B12040BD4D0F8002B0B89C3F30A03FB
:104B50001A43C97844EA81410A43C0F8002B002077
:104B600030BD92B21343C0F81C380B7800EB4310F1
:104B7000D0F800291204F2D4D0F800290D89C5F329
:104B80000A052A43C978890441EA83510A4322432A
:104B9000C0F80029E3E7000000800010D0F80019F9
:104BA0006FF30A01C0F80019D0F80818C1F34101E9
:104BB000022905D1D0F8001941F00301C0F800190D
:104BC000D0F8041841F48071C0F804180020704730
:104BD00010B50446C06840F04000E060204600F098
:104BE00005F84FF48030A063002010BD014600227C
:104BF00000BF501C02460F4B984201D9032070475A
:104C0000086900F000400028F3D00022086940F055
:104C10000100086100BF501C0246064B984201D9B2
:104C20000320ECE7086900F001000028F3D100BF81
:104C3000E5E70000400D030030B54D7801220C7807
:104C400002FA04F3012DD0F83C4816D024EA0343BD
:104C5000C0F83C38D0F81C380C78A24023EA024255
:104C6000C0F81C28097800EB4110D0F8001B21F493
:104C70000041C0F8001B002030BD9BB29C43C0F82F
:104C80003C48D0F81C380C78A24092B29343C0F84C
:104C90001C38097800EB4110D0F8001921F40041CC
:104CA000C0F80019E7E710B5D0F8041821F00201A8
:104CB000C0F804180320FCF7A1FE002010BD10B5B9
:104CC000D0F8041841F00201C0F804180320FCF7E2
:104CD00095FE002010BD00002DE9F0410E4604466F
:104CE00000200546DDF82480DDF81C7004EB80010F
:104CF000C1F80451401C0F28F8D3A06B40F40020E9
:104D0000A063C4F8005ED4F80008C4F80008D4F822
:104D1000000840F00300C4F800081021204600F00D
:104D20007DFA204600F06AFAC4F81058C4F8145806
:104D30004FF0FF30C4F81808C4F81C5800204FF09A
:104D40009042FF2311E000BF04EB4011D1F800C9ED
:104D5000BCF1000F02DAC1F8002901E0C1F80059E6
:104D6000C1F81059C1F80839401C8642ECD800201F
:104D700011E000BF04EB4011D1F800CBBCF1000FF3
:104D800002DAC1F8002B01E0C1F8005BC1F8105B4A
:104D9000C1F8083B401C8642ECD8D4F8100820F437
:104DA0008070C4F81008A5616FF080406061A06950
:104DB00040F01000A061A06908490843A0611FB13C
:104DC000A06940F00800A061B8F1010F03D1A0690B
:104DD00003490843A0610020BDE8F08100383C8011
:104DE00004000040816821F00101816000207047CB
:104DF00010B54C78444B0A7800EB4212012C30D0AD
:104E0000D2F8104B6FF31204C2F8104B0A7800EB83
:104E10004212D2F8104B1C40C2F8104B4A690AB13A
:104E20008A684A610A7800EB4212D2F8103B43F4D8
:104E30000023C2F8103B0A7800EB4212D2F8103B74
:104E40008C68C4F312042343C2F8103B097800EBCA
:104E50004110D0F8001B41F00441C0F8001B0020B5
:104E600010BD4C69002CD2F8104939D06FF31204F0
:104E7000C2F810490A7800EB4212D2F810491C40DF
:104E8000C2F810494B698A68934200D94A610A788E
:104E900000EB4212D2F8103943F40023C2F8103963
:104EA0000A7800EB4212D2F810394C69C4F31204AC
:104EB00053EA0403C2F810394A693AB1D0F83428E9
:104EC0000C780123A3401A43C0F83428097800EB7A
:104ED0004110D0F8001941F00441C0F80019BEE7B4
:104EE0001C40C2F810490A7800EB4212D2F810397F
:104EF00043F40023C2F810390A7800EB4212D2F8CA
:104F000010396FF31203D5E7FFFF07E00021C0F867
:104F1000101BD0F8101B41F40021C0F8101BD0F872
:104F2000101B41F01801C0F8101BD0F8101B41F005
:104F3000C041C0F8101B002070474B780A7800EB86
:104F40004212012B0BD0D2F8003B23F40013C2F81D
:104F5000003BCA78032A17D0022A15D01DE0D2F8E8
:104F6000003923F40013C2F80039CA78032A01D0AB
:104F7000022A12D1097800EB4110D0F8001941F053
:104F80008051C0F8001908E0097800EB4110D0F812
:104F9000001B41F08051C0F8001B002070474B7887
:104FA0000A7800EB4212012B14D0D2F8003B002B00
:104FB00005DBD2F8003B23F08043C2F8003B0978C0
:104FC00000EB4110D0F8001B41F40011C0F8001BA9
:104FD00000207047D2F80039002B05DBD2F80039E9
:104FE00023F08043C2F80039097800EB4110D0F873
:104FF000001941F40011C0F80019E9E730B54D7807
:105000006FF06044794B0A7800EB4212012D30D0EA
:10501000D2F8105B6FF31205C2F8105B0A7800EB50
:105020004212D2F8105B1D40C2F8105B4A69002A98
:105030007ED08B681A44521EB2FBF3F292B20B7808
:1050400000EB4313D3F8105B04EAC2442543C3F8D2
:10505000105B0B7800EB4313D3F8104B8D6855436E
:10506000C5F312021443C3F8104BCA78012A75D055
:10507000B1E04D6965B3D2F810596FF31205C2F86B
:1050800010590A7800EB4212D2F810591D40C2F8AC
:1050900010594B698A6813445B1EB3FBF2F204EAB1
:1050A000C2430A7800EB4212D2F810492343C2F8F7
:1050B00010390A7800EB4212D2F810394C69C4F367
:1050C00012042343C2F81039CA78012A16D02AE004
:1050D000D2F810491C40C2F810490A7800EB42127D
:1050E000D2F8103943F40023C2F810390A7800EBE3
:1050F0004212D2F810396FF312030FE00A7800EB76
:105100004212D2F8103923F0C043C2F810390A789D
:1051100000EB4212D2F8103943F00053C2F81039B4
:10512000CA78012A0ED04A69EAB1D0F8342800E0E2
:105130002CE00C780123A3401A43C0F83428CA7825
:10514000012A10D1D0F80828D2050A7800EB4212C3
:10515000D2F8003903D443F0005302E02BE043F0CF
:105160008053C2F800390A7800EB4212D2F80039B5
:1051700043F00443C2F80039CA78012A34D18A8A3C
:1051800093B20A78C96800F0BFF82DE00A7800EB06
:105190004212D2F8103B8C68C4F312042343C2F8C5
:1051A000103B0A7800EB4212D2F8103B43F4002384
:1051B000C2F8103B59E7D0F80828D2050A7800EB6E
:1051C0004212D2F8003B02D443F0005301E043F016
:1051D0008053C2F8003B097800EB4110D0F8001B67
:1051E00041F00441C0F8001B002030BDFFFF07E084
:1051F000816841F001018160002070470021102288
:105200000261054A491C914201D903207047036994
:10521000DB06F7D400207047400D03000022202356
:1052200043EA811101610549521C8A4201D90320D8
:10523000704703699B06F7D400207047400D0300B8
:10524000406900F001007047D0F81818D0F81C0829
:10525000084080B27047D0F81818D0F81C080840F1
:10526000000C7047D0F81038D0F83428CA4002F04B
:10527000010243EAC21200EB4110D0F808091040C5
:10528000704700EB4111D1F8081BD0F81408084012
:105290007047416980690840704710B50346002097
:1052A000D21C920803F5805303E01C6841F8044BBC
:1052B000401C9042F9D3084610BD10B5C26822F0D8
:1052C000C042C260012901D021B107E0C16841F0AC
:1052D000005102E0C16841F08041C1603220FCF71A
:1052E0008DFB002010BDD0F8002822F4FE62C0F82B
:1052F0000028D0F800284FF4FE6303EA01110A43A6
:10530000C0F800280020704710B50024DB1C9B0863
:1053100000EB023000F5805004E000BF51F8042B90
:105320000260641C9C42F9D3002010BDFEE70022FD
:105330000261C0E902124261426070472DE9F0410A
:105340000F4601610446C1684FF07E563846FBF7B0
:105350001EF8E760054660611649A068FBF71DF876
:105360002946FBF739FA09D2A1686069FBF70FF803
:10537000606131466068FAF7B8FF60600E49A06866
:10538000FBF70BF86169FBF731FA09D2A168606994
:10539000FAF7ABFF606131466068FAF7F8FF6060CA
:1053A000D4E90101FAF7F9FF2169BDE8F041FAF704
:1053B000F1BF00003333333F333333BF0FB4054BFA
:1053C00010B503A9044A029800F018F810BC5DF863
:1053D00014FB0000F55600080002002002E008C897
:1053E000121F08C1002AFAD170477047002001E05F
:1053F00001C1121F002AFBD1704700002DE9FF4FA9
:1054000089B09B460446002506E025280BD05A4665
:105410000B999047641C6D1C20780028F5D10DB0C5
:105420002846BDE8F08F0027B8460122474900E032
:10543000074314F8013F203B02FA03F00842F7D17A
:1054400020782E2819D114F8010F47F004072A28D4
:105450000ED06FF02F022078A0F1300109290CD86E
:1054600008EB880102EB410100EB0108641CF2E744
:105470000A98641C50F8048B0A9020780028CED03B
:10548000642808D0692806D075281ED05A460B9982
:1054900090476D1C58E00A994FF00A0901C90A911A
:1054A000002802DA40422D2102E0390504D52B21E3
:1054B0008DF82010012103E0F90704D02021F7E73F
:1054C0008A4608AE0DE00021FAE70A994FF00A0972
:1054D00001C90A91F7E74946FBF792F9303106F81E
:1054E000011D0028F7D1ADEB060000F12009780777
:1054F00001D44FF00108C84502DDA8EB090000E027
:1055000000208046002706E008A85A46C05D0B9997
:1055100090476D1C7F1C5745F6DB04E030205A464F
:105520000B9990476D1CB8F10001A8F10108F5DC5A
:1055300005E016F8010B5A460B9990476D1CB9F11E
:105540000001A9F10109F4DC641C65E709280100E8
:1055500070B504460E4681F000450068FBF746F939
:1055600000D2266028462168FBF740F900D225606A
:1055700070BD0000012251030148FCF733BB00005D
:105580000010014000224FF400510148FCF72ABBF3
:10559000001001404FF400510148FCF71FBB000010
:1055A00000100140401A904201D9012070470020AC
:1055B0007047000001250D4C00264FF47A7700BF9C
:1055C00000F0A4F8C07B800700D5257000F09EF89D
:1055D000C07B400700D5267022780721062001F005
:1055E00051F8384600F078FCEAE70000C8010020D6
:1055F00010B51348134C8AB0007800F0030101295C
:1056000002D0800703D00DE014220F4902E00E49BA
:105610001422143105A8FAF744FE002105A800F071
:1056200071FC20600849142228316846FAF739FED7
:105630000021684600F066FC044908600AB010BD0D
:10564000F20100200C000020607300081000002010
:105650004FF47A75114FDFF84880124E124C4FF01C
:105660000009206890FBF5F105FB110058B90FA067
:10567000FFF7A4FEF98B14A0FFF7A0FEB8F8001006
:1056800016A0FFF79BFE2068401C2060B04201DDA1
:10569000C4F80090012000F01FFCE2E7BC1E0020CF
:1056A000E8010020A0860100CC0100206672696339
:1056B00074696F6E576865656C20737065656420EA
:1056C0006973200A0000000079617720616E676CC1
:1056D000652069732025640A000000007069746306
:1056E000682073657420616E676C6520697320257E
:1056F000642F6E0013B54FF6FF730122694602480E
:10570000FDF7E2FD00981CBD14030020004870471F
:10571000581E00200148006870470000701E0020DD
:1057200000F0CEF85C4C5D4FFFF7F0FF4079C0F31E
:105730000110022875D0FFF7E9FF4079C0F301108E
:10574000032807D0FFF7E2FF4079C0F301100128DA
:1057500069D089E0FFF7DAFFB0F90600FAF7CBFF6E
:105760006FF00102FAF7A2FF06460D46A068FAF7AD
:10577000ECFF32462B46FAF780FEFBF711F8A060EB
:10578000FFF7C4FFB0F90800FAF7B5FF4FF0333266
:10579000434BFAF719FF05460E466068FAF7D5FF46
:1057A0002A463346FAF70AFFFAF7FAFF6060FFF776
:1057B000ADFF807BC0F34000FAF798FF394E3146C9
:1057C000FAF7EBFD0546FFF7A1FF807B00F0010033
:1057D000FAF78CFF3146FAF7E0FD6168FAF785FDCC
:1057E0002946FAF7D4FD6060FFF790FF807BC0F395
:1057F0008000FAF77BFF3146FAF7CFFD0546FFF749
:1058000085FF807BC0F3C000FAF770FF3146FAF7DE
:10581000C4FDB96AFAF769FD2946FAF7B8FDA06038
:1058200022E035E0FFE7FFF771FFD0F80100C0F399
:105830008A30A0F58060FAF750FF1B49FAF7ADFDFA
:10584000A168FAF752FDA060FFF760FF8088C0F3FF
:105850004A00A0F58060FAF740FF1449FAF79DFD71
:105860006168FAF742FD60600B48114A1149001D5A
:1058700000F0CCFA0848104A1049083000F0C6FA87
:105880006068FAF749FF044918310880A068B862D7
:10589000012000F021FB47E7D0010020BC1E0020C2
:1058A0003333C33FCDCCCC3D0AD7A33C0AD7A33B6F
:1058B00000005C430000484400409C4400E09245E6
:1058C0003EB5174C00201749207040F20720A06019
:1058D00004F1C400FFF72BFD032020731248A062DF
:1058E0001448124A12498DE807000D4847F2305417
:1058F0005023224601217830FDF7BCFF0E480F49A6
:10590000CDE90010029006485023224601212C3098
:10591000FDF7B0FF0A494FF4FA7008803EBD000061
:10592000BC1E002000F8FF4500803B45CDCC4C3D1F
:105930006F12833A8FC2753D00002041000048433A
:10594000E801002000F0EEF86A4C00BFFFF7DEFE31
:105950004079C0F3011002287ED0FFF7D7FE4079CE
:10596000C0F30110032807D0FFF7D0FE4079C0F341
:105970000110012854D077E0FFF7C8FEB0F9080005
:10598000FAF7ABFE5C4E3146FAF707FD2169FAF7EC
:1059900001FD2061FFF7BAFEB0F90600FAF79DFE9F
:1059A0003146FAF7FAFC6169FAF7F4FC6061FFF737
:1059B000ADFE807BC0F34000FAF798FE3146FAF75F
:1059C000ECFC0546FFF7A2FE807B00F00100FAF731
:1059D0008DFE3146FAF7E1FC2169FAF786FC29468B
:1059E000FAF7D5FC2061FFF791FE807BC0F38000C1
:1059F000FAF77CFE3146FAF7D0FC0546FFF786FE43
:105A0000807BC0F3C000FAF771FE3146FAF7C5FC9F
:105A10006169FAF7BFFC2946FAF767FC606123E089
:105A2000FFF774FED0F80100C0F38A30A0F5806063
:105A3000FAF753FE314D2946FAF7AFFC6169FAF7E0
:105A4000A9FC6061FFF762FE8088C0F34A00A0F500
:105A50008060FAF742FE00E047E02946FAF79DFC35
:105A60002169FAF742FC2061FFF754FE244E0546F7
:105A70002449306AFAF78BFCE168FAF7C0FC294642
:105A8000FAF785FC20601B481F4A2049103000F0BF
:105A9000BDF921681E480F46FAF779FC05463946DC
:105AA0001C48FAF774FC014612482A46143000F0EC
:105AB000ADF96069B06218492069FAF76EFC1749C0
:105AC000FAF713FCFAF728FE0A4D183528803046FD
:105AD000FBF786F8024640F2FF111148FAF7E2FFA1
