:020000040800F2
:10000000380900206501000897130008FD12000858
:100010009513000899070008492100080000000016
:1000200000000000000000000000000001170008B0
:100030005F1100080000000051140008B917000803
:100040007F0100087F0100087F0100087F01000890
:100050007F0100087F0100087F0100087F01000880
:100060007F0100087F0100087F0100087F01000870
:100070007F0100087F0100087F0100087F01000860
:100080007F0100087F0100087F0100087F01000850
:100090009D0700087F0100087F0100087F0100081C
:1000A0007F0100087F0100087F0100087F01000830
:1000B0007F0100087F0100087F0100087F01000820
:1000C0007F0100087F0100087F0100087F01000810
:1000D0007F010008991C0008BD1C0008E11C0008F5
:1000E0007F0100087F0100087F0100080000000078
:1000F0000000000000000000000000000000000000
:1001000000000000000000007F0100087F010008DF
:10011000091C00082D1C00087F0100087F01000851
:100120007F010008610F00087F0100087F010008BF
:100130007F0100087F0100087F0100087F0100089F
:10014000C5070008E50700087F0100087F010008D7
:10015000DFF80CD000F0FEFA004800474D250008FB
:10016000380900200648804706480047FEE7FEE7BA
:10017000FEE7FEE7FEE7FEE7FEE7FEE7FEE7FEE757
:10018000E51700085101000840EA01039B0703D06E
:1001900009E008C9121F08C0042AFAD203E011F8C6
:1001A000013B00F8013B521EF9D27047F0B480EADF
:1001B0000102D40F4200B2EB410F02D202460846C0
:1001C00011464A0042D0C30DDDB2C1F3C752AD1A89
:1001D000202D35DAC1F3160141F4000204B1524278
:1001E000C5F1200602FA06F12A411044B3EBD05FB4
:1001F00023D0C4B1012DA0EBC35009DCF0BC4FF0FB
:10020000004202EAC352DBB200F5000000F016BA69
:10021000400000F1807000EBC350A0F1807040EA14
:10022000D170490009E0490841EAC071A0EBC35010
:1002300000F50000400800EBC350F0BC00F0F5B939
:100240006142012202EB4101001BF6E7F0BC70475E
:1002500081F00041AAE780F00040A7E780EA0102B0
:1002600010B502F00043400022D04A001FD0010E1A
:1002700001EB1261C0F35600C2F3560240F40000D5
:1002800042F40002A0FB022000047F39140400D0D5
:10029000401C50EA124001D44000491EC2B20C0674
:1002A00004EBD010401C4008802A02D003E000205C
:1002B00010BD20F00100002900DA0020184310BD15
:1002C0002DE9FE4F804681EA0300C00F0C460090E6
:1002D00021F0004123F00045B8EB0200A94105D20E
:1002E0004046214690461C460B46024623F00040FD
:1002F000104347D0270DC7F30A00C3F30A510290F9
:10030000401A019040286BDAC3F3130040F4801BBD
:100310000098924620B10023D2EB030A63EB0B0B4B
:1003200001985946C0F14002504600F05DF906467A
:100330000D4650465946019A00F065F910EB080049
:100340006141002487EA115284EAE7731A4340D0DE
:10035000009A62B3019A012A4FEA075215DC001B8A
:1003600061EB02014FF0004202EA0752CDE9004280
:10037000001C41F5801132462B4600F09CF903B079
:10038000BDE8F08F40462146F9E7001B61EB020112
:10039000001C41F5801300185B412018A2F50017DE
:1003A00047EB030140EAD570B6196D4111E06D08C5
:1003B0004FEA360645EAC0754FEA0752001B61EB6B
:1003C0000201001C41F5801149084FEA3000001974
:1003D000514132462B4603B0BDE8F04F00F05CB906
:1003E0000098012240000023D0EB020263EBE0738F
:1003F000009821464FEAE074B8EB000061EB04017D
:10040000E9E783F000435BE781F0004158E72DE91D
:10041000FE4F81EA030404F0004421F000410094FF
:100420004FF0000B23F0004350EA01045ED052EA83
:1004300003045BD0C3F30A54C1F30A552C44A4F25D
:10044000F3340194A0FB0254C1F3130141F4801171
:10045000C3F3130343F4801301FB024400FB034E78
:10046000840A970A44EA815447EA8357A4FB076841
:1004700002958D0A05FB07854FEA932C04FB0C546B
:100480002705029D4FEA065847EA1637B5EB0805DF
:100490006EEB070C870E920E47EA811742EA831231
:1004A000A7FB0201B6EB0B0164EB00042B0D43EA42
:1004B0000C335E1844EB1C50DA465146E7FB020150
:1004C000C5F313044FEA0B3343EA14534FEA0432E3
:1004D000019C43EA0603A4F10C040294009CCDE9BC
:1004E00000B400F0E8F803B0BDE8F08F002001464A
:1004F000F9E7C10F80EAE0700844CA07962300219B
:1005000000F09CB896230022114600F097B80EB573
:10051000C10F80EAE0700844CA07002140F233436B
:100520008DE80E000A460B4600F0C5F803B000BD8A
:1005300000F0004220F00040C10DC0F3160040F46E
:1005400000007F2901DA00207047962903DCC1F101
:100550009601C84001E096398840002AF4D0404214
:10056000704700F0004230F000400AD0C10D01F5A4
:100570006071C0F3160042EA0151C20840071143FE
:10058000704700200146704701F0004330B421F06D
:10059000004150EA010206D00A0DA2F56072C1F3D3
:1005A0001301002A02DC30BC00207047440F44EAEB
:1005B000C104C100E01830BC00EBC25000F035B8F7
:1005C000002801DBC0F10040002901DBC1F100413E
:1005D00081427047002801DBC0F10040002901DBA7
:1005E000C1F1004188427047202A04DB203A00FA1A
:1005F00002F1002070479140C2F1200320FA03F37A
:10060000194390407047202A06DBCB17203A41FA65
:1006100002F043EAE07306E041FA02F3D040C2F18F
:10062000200291400843194670470029A8BF70472F
:10063000401C490008BF20F00100704710B4B0FA18
:1006400080FC00FA0CF050EA010404BF10BC7047B3
:1006500049B1CCF1200421FA04F411FA0CF118BFCD
:10066000012121430843A3EB0C01CB1D4FEA00619C
:100670004FEA102042BF002010BC704700EBC3506F
:1006800010440029A4BF10BC7047401C490008BF9B
:1006900020F0010010BC704710B5141E73F1000467
:1006A00008DA401C41F1000192185B411A4301D164
:1006B00020F0010010BD2DE9F04D92469B4611B18E
:1006C000B1FA81F202E0B0FA80F220329046FFF7F0
:1006D0008BFF04460F4640EA0A0041EA0B015346ED
:1006E0005A46084313D0114653EA010019D0C8F105
:1006F0004002504600F040F805460E465046594626
:100700004246FFF771FF084305D0012004E0204670
:100710003946BDE8F08D0020054346EAE0762C43DB
:1007200037430A986305E40AA0EB08000022FD0A9B
:1007300044EA47540A3002D500200146E9E70105A2
:1007400010196941DDE9084500196941BDE8F04D1E
:10075000A2E70000064C074D06E0E06840F0010308
:1007600094E8070098471034AC42F6D3FFF7F4FC46
:10077000142A0008342A0008202A04DB203A21FA2F
:1007800002F00021704721FA02F3D040C2F12002AA
:100790009140084319467047FEE7000010B586B047
:1007A000074C01AA0021204600F062FA01A800F0DF
:1007B00055FB0121204600F025F806B010BD0000D1
:1007C0000064004000B585B06A460021044800F08E
:1007D0004FFA0021684600F07DFB05B000BD000027
:1007E0000068004000B585B06A460121044800F069
:1007F0003FFA0121684600F06DFB05B000BD000026
:100800000068004030B5082310240422B1F5007FB1
:1008100033D011DC20292AD007DC012922D0042979
:1008200023D0082900D1C46030BD402921D0B1F5C2
:10083000807FF9D1426030BD0025B1F5004F20D056
:1008400008DCB1F5806F1AD0B1F5006FF3D1856186
:10085000426030BDB1F5803F0DD0B1F5003FF8D119
:10086000446030BD0849816030BDC36030BD036164
:1008700030BD046130BD436030BD426030BD426078
:1008800030BD8561426030BD010101002DE9F05F9E
:100890000121092000F008FE0121480600F0E8FDD2
:1008A0000121880600F0E4FD644D4FF48070E8807B
:1008B0004000688105F13804C000E0804FF4005A20
:1008C000A4F80AA0482169721820687361726073E5
:1008D00003202872287320722073594EA91D3046B8
:1008E00000F089FCA4F12E01304600F084FCA11D2B
:1008F000304600F080FC04F10A01304600F07BFC39
:1009000001214FF4EA1000F0C9FC142028770026DA
:100910006E77AE770127EF77A4F11C0000F04AFD57
:10092000412020776677A677E77704F11C008046A0
:1009300000F040FD402020776677A677E7774046B5
:1009400000F038FDDFF8FCB0584600F07FF83E4874
:1009500000F07CF8A81F00F015FAA01F00F012FAB2
:100960002E706F70AF70EF702E716F7105F8046CA0
:1009700005F8036C4FF0040805F8028C4FF00209EB
:1009800005F8019C25F8068CA91F584600F0EEF8E2
:1009900026706770A770E7702671677104F8046CA1
:1009A00004F8036C04F8028C04F8019C24F8068C0B
:1009B000A11F254800F0DAF82E766E76AF76EE812C
:1009C0002E826E82AE82EE82EF76A4F12A0000F0D3
:1009D00059F801220221584600F0BEF81020207676
:1009E0006676A776E68126826682A682E782E77629
:1009F00004F10E00804600F045F80F20207667765F
:100A0000A776A4F80EA0268242F220006082A68279
:100A1000E682E776404600F035F8012202210A48D6
:100A200000F09AF801221021074800F095F885F8A7
:100A3000207084F82090BDE8F09F00006A0000203C
:100A4000000C0140006400400068004010B50C49F3
:100A500088420AD101214C06204600F017FD2046AD
:100A6000BDE81040002100F011BD01218C06204698
:100A700000F00CFD2046BDE81040002100F006BD4E
:100A800000640040F0B5827A01219140304C226828
:100A900042F0010222602E4D1C352A688A432A60EA
:100AA0002B4A067B0C322B4B002E14D116688E433A
:100AB00016604688C78846EA0746877A03EBC70769
:100AC000C7F840660688878846EA0746877A03EBB8
:100AD000C707C7F84466067B012E14D116680E437B
:100AE00016604288068842EA0642867A03EBC6060A
:100AF000C6F84026C288868842EA0642867A03EB18
:100B0000C603C3F84426124AC37A121D3BB11368C8
:100B10000B4313600E4A0389143223B106E01368B5
:100B20008B431360F6E713688B4313600389012B33
:100B300002D113680B431360407B012802D128685F
:100B400008432860206820F001002060F0BD00000C
:100B50000066004000600040002A03D042690A435A
:100B60004261704742698A434261704710B5002272
:100B7000036823F002030360036843F0010303608A
:100B80004FF6FF7300E0521C4468E40701D19A421B
:100B9000F9D14268D2073ED08A79012A3DD0026855
:100BA00022F080020260CA79012A3BD0026822F05A
:100BB000400202600A7A012A39D0026822F020023B
:100BC00002604A7A012A37D0026822F010020260DD
:100BD0008A7A012A35D0026822F008020260CA7AB5
:100BE000012A33D0026822F0040202608A78CC78AD
:100BF000920742EA04620C7942EA04424C7909887D
:100C000042EA0452491E0A43C261016821F001010F
:100C10000160002120E0002010BD026842F0800247
:100C20000260C0E7026842F040020260C2E7026868
:100C300042F020020260C4E7026842F01002026043
:100C4000C6E7026842F008020260C8E7026842F0A4
:100C500004020260CAE7491C4268D20701D09942E7
:100C6000F9D14068C00701D0002010BD012010BD9F
:100C700010B500EB0113D3F8B04104F00404147272
:100C8000002C2CD0D3F8B041E408546003F5D8739D
:100C90001C6804F0020454725C6804F00F0494723F
:100CA0005C68240AD4749C68D4729C68240A147307
:100CB0009C68240C54739C68240E9473DC68D47371
:100CC000DC68240A1474DC68240C5474DB681B0E82
:100CD000937449B1016941F02001016110BDD3F85D
:100CE000B041640D1460D1E7C16841F02001C160DA
:100CF00010BD000010B586B0019100218DF80C10D8
:100D00008DF80D1008218DF80E1000214418535C49
:100D100084F82730491C0829F8DB10F8271F8DF8C4
:100D20000F1041788DF8101081788DF81110C1786E
:100D30008DF8121001798DF8131041798DF8141087
:100D400081798DF81510C17927388DF816100A4968
:100D50000978022909D090F82600012807D0022836
:100D600003D101A9054800F01DF806B010BD01A986
:100D7000034800F017F8F8E73C0000200068004046
:100D80000064004000218171C17101724172817261
:100D9000C1728170C1700321017102214171012171
:100DA0000180704730B50246002093685B010AD489
:100DB0009068000101D5012005E09068C00001D5D0
:100DC000022000E0042004283BD002EB0012D2F8FD
:100DD000803103F00103C2F880310B7A93B3D2F86B
:100DE00080414D681C434B7A43EAC5031C43C2F85B
:100DF00080418B7A03F00F038B7202F5C072536847
:100E000023F00F03536053688C7A23435360CB7AEB
:100E10008C7B0D7B43EA04634C7B240444EA052469
:100E200023439360CB7B8C7C43EA04634C7C097C3A
:100E3000240444EA01210B43D360116841F001010D
:100E4000116030BDFFE7D2F880314C7A23430C8823
:100E500043EA4453C2F88031CBE7000010B5016883
:100E6000194AA1F50071013918D006292AD10021AB
:100E700043185418DB7A84F82030491C0829F7DB22
:100E800011491248203100F06BF902460E48BDE8C6
:100E9000104040F2FF117038FFF72CBF00214318BB
:100EA000DB7A5354491C0829F9DB0749084800F04C
:100EB00026FA02460448BDE810404FF4007170382D
:100EC000FFF718BF10BD0000D400002074030020FD
:100ED0005804002010B5204A00291BD001293AD11E
:100EE0000168A1F50071033935D143185418DB7A34
:100EF0002372491C0829F8DB17491848083100F00B
:100F0000FEF902461448BDE810404FF4007138382D
:100F1000FFF7F0BE0168B1F5807F04D0A1F58071C4
:100F2000013918D107E0002143185418DB7A2374E3
:100F3000491C0829F8DB002143185418DB7A237672
:100F4000491C0829F8DB0449BDE810401831A1F11B
:100F5000080001F0EFBA10BDD40000209802002074
:100F600010B5064C204600F0C9F8012804D12046EF
:100F7000BDE8104000F004B810BD000020000010D3
:100F8000C10002D5024908607047024948607047B5
:100F90000404024000000240002904D0016841F02E
:100FA00001010160704701684FF6FE721140016057
:100FB00070472DE9FF4F8BB018AF0C4697E8800FB4
:100FC00015461E460B9800F019F8009401950296FC
:100FD0000397CDF81080CDF81490CDF818A0CDF877
:100FE0001CB01D9808901E9809901F980A90694699
:100FF0000B9800F095F80FB0BDE8F08F01684FF640
:10100000FE72114001600021016041608160C16099
:101010003649364A0839904204D1486840F00F00FA
:1010200048607047314A1432904204D1486840F019
:10103000F000486070472D4A2832904204D1486839
:1010400040F4706048607047284A3C32904204D1B6
:10105000486840F4704048607047244A50329042DB
:1010600004D1486840F47020486070471F4A6432D9
:10107000904204D1486840F47000486070471B4AB1
:101080007832904204D1486840F070604860704700
:10109000174A111F904204D1086840F00F00086001
:1010A0007047134A1432904204D1086840F0F000AF
:1010B000086070470E4A2832904204D1086840F414
:1010C0007060086070470A4A3C32904204D1086858
:1010D00040F4704008607047054A50329042FAD19F
:1010E000086840F470200860704700000800024063
:1010F00008040240406880B27047000002460020A9
:10110000D10002D50449096801E004490968114287
:1011100000D001207047000000040240000002409F
:1011200030B5026847F6F0739A430C6A8B68234324
:10113000D1E904452C4323438C692343CC692343E1
:101140004C6A23438C6A234313430360CA6842609A
:101150000A6882604968C16030BD4160704770476D
:101160007CB5044648780A7840EA0220E083CA78D1
:101170008B7842EA0322A2844A79097942EA012162
:10118000E184FFF7BFF9014604F1C40000F0B4F8B0
:1011900005462062B4F92400FFF7ABF9217B034632
:1011A000CDE9005104F1780104F12C00A26A01F0AC
:1011B00029FAFFF7BDF900B2A082A168A1F500717C
:1011C000053906D0012908D002290AD003290FD1F8
:1011D0000BE0010AA175E0750AE0010A217660764C
:1011E00006E0010AA176E07602E0010A2177607745
:1011F00004F116007CBD2DE9F0410022CC7804F00A
:101200000F03E40601D58C7823430C784FF00F07C9
:1012100014F0FF0F4FF0010C1CD005680CFA02F41B
:101220000E882640A64211D1960007FA06F825EA54
:10123000080503FA06F848EA0505CE78282E02D0FC
:10124000482E02D002E0446100E00461521C082AEA
:10125000E4D305600A88FF2A1ED94568002202F1FE
:1012600008060CFA06F40E882640A64210D1960015
:1012700007FA06F825EA080503FA06F848EA05051C
:10128000CE78282E00D14461CE78482E00D104615A
:10129000521C082AE3D34560BDE8F081F0B5154C37
:1012A000002801DAE36900E06368C0F30346420DF9
:1012B000120185B2C0F301579540032F07D0C20237
:1012C0000CD50322B240934343F0706209E023F04F
:1012D0007062636823F07063636002E0AB4343F0C5
:1012E000706201B12A43002801DAE261F0BD626058
:1012F000F0BD00000000014000F02EBFFEE77CB50D
:10130000044648780A7840EA0220E083CA788B785D
:1013100042EA0322A2844A79097942EA0121E1845E
:10132000FFF7F0F8014604F1C400FFF7E5FF0546BA
:101330002062B4F92400FFF7DCF8217B0346CDE9F5
:10134000005104F1780104F12C00A26A01F05AF96D
:10135000FFF7EEF800B2A082A168A1F50071013993
:1013600006D0012908D002290AD003290FD10BE0A9
:10137000010AA175E0750AE0010A2176607606E0AF
:10138000010AA176E07602E0010A2177607704F194
:1013900016007CBDFEE7704708B58DF800008DF89B
:1013A00001108DF8022001208DF80300684600F03E
:1013B00001F808BD70B50F23C27801260178002A14
:1013C0001ED0144A126802F4E062C2F5E062120A0A
:1013D000C2F10404D3404578A54082781A402A43DC
:1013E000120101F1E02181F80024007800F01F01D2
:1013F0008E404009800000F1E020C0F8006170BD1F
:1014000001F01F0086404809800000F1E020C0F88C
:10141000806170BD0CED00E0FEB508AD0446E0CD86
:10142000094860640948A0648DE8E000204601F0A6
:1014300076F9D4F848C003B03B46324629462046E8
:10144000BDE8F040604700001F2700083327000870
:1014500070470000054A002903D0516901435161DA
:10146000704751698143516170470000001002408C
:10147000054A002903D0D1690143D1617047D16980
:101480008143D1617047000000100240054A0029E5
:1014900003D01169014311617047116981431161E2
:1014A0007047000000100240054A002903D09169EE
:1014B00001439161704791698143916170470000D8
:1014C0000010024070B5304C616801F00C012F4AE9
:1014D000002927D0042927D0082927D00260616875
:1014E00001F0F00109092A4A535C0168D9404160C2
:1014F000636803F4E0631B0AD35C21FA03F383609F
:10150000636803F46053DB0AD25CD140C160626857
:1015100002F44042920B1E4B1B1F9A5CB1FBF2F18E
:10152000016170BD0260DAE70260D8E7616801F42A
:101530007011636803F48033890C0D2901D0891C74
:1015400000E00621BBB1E36A03F48035E36A03F0EF
:101550000F035B1C9DB1E56AC5F303156D1CE66ABC
:10156000C6F30326B61CB2FBF5F27243B2FBF3F2EC
:101570004A430260B3E7074A51430160AFE7B2FB59
:10158000F3F24A430260AAE70010024000127A0018
:101590001C00002000093D00F0B457485549416344
:1015A0000B784A7843EA0223C3F30A040480D30881
:1015B0008A7843EA4213C3F30A054580CB7892093F
:1015C00042EA83030A7943EA8223C3F30A06868048
:1015D00053084A7943EAC213C3F30A07C780C2F328
:1015E00001130372930943728A7991F807C042EAA2
:1015F0000C2242810A7A91F809C042EA0C228281C7
:101600008A7A91F80BC042EA0C22C2810A7B0274EA
:101610004A7B42748A7B02F0010CA0F812C0C2F32C
:10162000400CA0F814C0C2F3800CA0F816C0C2F39E
:10163000C00CA0F818C0C2F3001CA0F82EC0C2F362
:10164000401CA0F830C0C2F3801CA0F81AC0D20918
:101650008283CA7B02F0010CA0F81EC0C2F3400CCA
:10166000A0F820C0C2F3800CA0F822C0C2F3C00CC6
:10167000A0F824C0C2F3001CA0F826C0C2F3401C8E
:10168000A0F828C0C2F3801CA0F82AC0D209828525
:10169000012280F83220002280F83320012B03D071
:1016A0000122032B01D102E00022012300E00023EC
:1016B0001A4302D0114B02221A70A4F2F2344FF4F2
:1016C00080621D2C00D20280A5F2F2351D2D00D2C1
:1016D0004280A6F2F736132E00D28280A7F2F737A7
:1016E000132F00D2C280F0BC034812221438FEF738
:1016F0004BBD0000EE010020480200203C0000200D
:10170000704700F001B800000CB500220192009271
:101710002748016841F4803101604FF4A0630168FB
:1017200001F4003100910199491C0191009911B90E
:1017300001999942F3D10168890302D501210091F1
:1017400000E000920099012900D0FEE719490A68DB
:1017500042F010020A600A6822F003020A600A6876
:1017600042F002020A60416841604168416041689C
:1017700041F480614160416821F47C11416041681D
:1017800041F4E8114160016841F080710160016835
:101790008901FCD5416821F003014160416841F0B5
:1017A000020141604168C1F381010229FAD10CBDF7
:1017B000001002400020024009494868401C48606F
:1017C000B0F57A7F0AD38868401C886000224A609E
:1017D0003C2803D3C868401CC8608A6000F0CABEB9
:1017E0003C0000200C48016841F0010101604168A3
:1017F0000A4A114041600168094A114001600168CC
:1018000021F480210160416821F4FE014160002142
:101810008160FFF776BF0000001002400000FFF873
:10182000FFFFF6FE002904D0018841F0800101800D
:101830007047018821F080010180704730B4DDE9F4
:101840000245018042808380C4800572C2680146DF
:1018500030BC104600F08AB9002904D0018841F05C
:10186000010101807047018821F00101018070476A
:10187000F0B589B03B4D3A4EEE6001210420FFF7F0
:1018800013FE01210820FFF7F3FD01210220FFF7DD
:10189000E1FD354C012223461146284600F086F82A
:1018A000022223461146284600F080F800240094C6
:1018B0001D232246032128460194FFF7BFFF019410
:1018C000029403940494002301226021284600948A
:1018D00000F03EF905F110010F46E86800F0A0F8AD
:1018E0003946E86800F0E6F80821E86800F0DCF81E
:1018F0000821E86800F022F9B114C810CDE90614F7
:101900002022CDE904028021CDE902102422CDE974
:1019100000241349164F1023144A4C313846FFF760
:1019200048FBB41522460D21304600F03BF8012259
:101930002146304600F02CF801213846FFF72CFBF9
:101940000121E868FFF76EFF0121E868FFF784FFD7
:10195000E86809B00121BDE8F04000F00BB80000D4
:10196000000C0040FC0000200008014000020020A4
:101970001C040240002905D030F8441F41F4004106
:101980000180704730F8441FC1F30E010180704799
:10199000002A03D082890A438281704782898A4360
:1019A000828170471143A0F84810704730B4032477
:1019B0001825012910D0022919D0032922D0042981
:1019C0002BD1C28680F8395080F8384000F13601BA
:1019D00030BC1846FFF70FBC428580F82D5080F8C8
:1019E0002C4000F12A0130BC1846FFF704BCC28528
:1019F00080F8315080F8304000F12E0130BC18469C
:101A0000FFF7F9BB428680F8355080F8344000F18A
:101A1000320130BC1846FFF7EEBB30BC7047000007
:101A200030B5028C22F001020284028C8388048B80
:101A300024F0700424F003050C882C4322F00202E9
:101A40000D8915434A882A43124DA8420BD0124DE6
:101A5000A84208D0114DA84205D0114DA84202D08D
:101A6000104DA8420FD122F008054A892A4322F0DE
:101A700004058A882A4323F4807323F400738D8934
:101A80001D43CB892B4383800483C98881860284CC
:101A900030BD0000002C01400034014000400140F6
:101AA0000044014000480140028B22F008020A4332
:101AB0000283704770B5028C22F010020284028CFF
:101AC0008388048B24F4E04424F440760D884FF698
:101AD000FF7404EA0525354322F020020E8904EA4A
:101AE000061616434A8804EA02123243114EB042E7
:101AF00002D0114EB04217D122F080024E8904EA82
:101B00000616164326F040068A8804EA021232437B
:101B100023F4806323F400638E8904EA86061E435F
:101B2000CB8904EA8303334383800583C988018713
:101B3000028470BD002C014000340140028B22F46D
:101B400000624FF6FF7303EA0121114301837047DE
:101B5000F0B505AC94E8F010018242828382C48221
:101B6000058346838783A0F81EC0F0BD30B5028888
:101B70001B4C1C4DA0420DD0A8420BD0B0F1804FA1
:101B800008D0194B984205D0184B984202D0184BF8
:101B9000984203D122F070034A881A43154B9842A9
:101BA00006D0154B984203D022F44073CA881A43DA
:101BB00002808A8882850A880285A0420AD0A842CB
:101BC00008D00E4A904205D00D4A904202D00D4AEC
:101BD000904201D1097A01860121818230BD000045
:101BE000002C014000340140000400400008004087
:101BF000000C004000100040001400400040014074
:101C0000004401400048014010B5074C40F22661F5
:101C1000204600F0FFF9002805D02046BDE810401E
:101C2000402100F0A5B810BD0044004010B5074C9D
:101C300040F22661204600F0EDF9002805D020464C
:101C4000BDE81040402100F093B810BD00440040B2
:101C500030B4DDE902454160028143818481C58160
:101C6000002101820268011D30BC104600F00EBA4E
:101C700001830421C1760321817600F11801104609
:101C8000FFF7B9BA81821821C1750321817500F16E
:101C900014011046FFF7AFBA10B5074C40F22661A9
:101CA000204600F0B7F9002805D02046BDE81040D6
:101CB000402100F05DB810BD0044004010B5074C55
:101CC00040F22661204600F0A5F9002805D0204604
:101CD000BDE81040402100F04BB810BD004400406A
:101CE00070B500F0D5FA00F0D9FA00F0CBFA1D4C2F
:101CF00020880009C00734D02088201D00881A4E93
:101D000000213046FFF748F93046FFF7F3F9174D49
:101D1000C0F11E016960122905D1FFF73DFC1E21AB
:101D20003046FFF71AFA01213046FFF735F940F245
:101D30002551204600F01CF800F0AAFA044600F0F5
:101D4000ADFA00EB4001C1EBC01004EBC00400F0A1
:101D500099FA40F25371484304EB4010FEF7D2FB6E
:101D6000286070BD004800403000024000000020A4
:101D700040F66A120A0A01219140C9430180704766
:101D8000002904D0818941F4005181817047818903
:101D900021F40051818170472DE9F04F89B0DFF8BF
:101DA00030B28A48CBF800000BF11C088948C8F80B
:101DB000000008F11C0A8848CAF8000008F1380140
:101DC000864808601C318648086001210014FFF72E
:101DD0006BFB01214FF4F010FFF74AFB01213C207F
:101DE000FFF762FB01210846FFF734FB7D4A5846A6
:101DF00015152946FFF73CFF7A4A58465115FFF75B
:101E000041FF784A08214046FFF732FF754A042116
:101E10004046FFF737FF744A5046D114FFF728FFBA
:101E2000724A08F13800D114FFF722FF6F4A2946A1
:101E300008F13800FFF726FF6C4A08F154009614A9
:101E40003146FFF715FF6A4A042108F15400FFF7F5
:101E500019FF012211462520FFF79EFA01221146A3
:101E60002620FFF799FA012211462720FFF794FA5E
:101E7000012211463420FFF78FFA01221146352046
:101E8000FFF78AFA20200024CDE90450CDE906644A
:101E90004FF4807980272A208DE89102DBF800102A
:101EA0001023091D08F170025248FFF782F8CDE9AE
:101EB0000664CDE904544FF0080BCDE900B4CDE938
:101EC0000279D8F800104B48091D00234A4A2830EF
:101ED000FFF76FF8CDE90664CDE90454CDE900B40D
:101EE000CDE90279D8F80010434A4248091D102371
:101EF00008323C30FFF75DF80494CDE905461E201A
:101F000007948DE8910003943A4CDAF80010143CE1
:101F1000091D002308F19A022046FFF74AF8012123
:101F20002046FFF739F801224021284800F068F8E0
:101F300001228021254800F063F801224021254834
:101F400000F05EF801228021224800F059F80122B9
:101F50004021214800F054F80C20CDE90050002326
:101F600008224FF4E1311A48FFF772FE0420CDE950
:101F700000500023082221495046FFF769FE40F235
:101F8000255401222146114800F064F8012221461F
:101F9000104800F05FF8012240F224410E4800F0A2
:101FA00059F8012221460D4800F054F8012221463B
:101FB0000B4800F04FF801210448FFF7E1FE09B09B
:101FC0000121BDE8F04F0448FFF7DABE00380140B8
:101FD000380100200044004000480040004C004010
:101FE0000050004000080140000C0140001001407A
:101FF000001401404400024008000020A0860100B7
:10200000002A03D0828A0A4382827047828A8A43E6
:102010008282704770B5002440F66A12C1F3421301
:1020200001F01F05012606FA05F2012B0CD0022B48
:102030000DD0838A1340090A8E40008830400BB1CE
:1020400000B10124204670BD83891340F3E7038A61
:102050001340F0E710B540F66A13C1F3421301F0E4
:102060001F040121A140012B07D0022B07D01430FF
:102070003AB102680A43026010BD0C30F8E7103034
:10208000F6E702688A43026010BD000030B585B0F3
:1020900004460D46208A4CF6FF710840E98801434A
:1020A0002182A0894EF6F3110840A9882A8911439C
:1020B0006A8902431143A181A08A4FF6FF4108407B
:1020C000A9890143A1826846FFF7FCF91D488442B3
:1020D00001D1039800E00298A189090408D500EB1A
:1020E000C00101EB001029684900B0FBF1F007E0E6
:1020F00000EBC00101EB001029688900B0FBF1F092
:102100006422B0FBF2F109010B096FF018056B4373
:1021100000EB8300A3891D044FF0320307D503EBC6
:10212000C000B0FBF2F000F00700084306E003EB4C
:102130000010B0FBF2F000F00F000843208105B062
:1021400030BD000000380140FEE7002202618160DE
:10215000C2604261426070472DE9F04104460D467D
:102160004FF07E5725612846E168FEF771F8064674
:102170006061E5601649A068FEF770F83146FEF729
:102180001FFA09D2A1686069FEF762F860613946FA
:102190006068FEF70BF860600E49A068FEF75EF815
:1021A0006169FEF717FA09D2A1686069FDF7FEFFC1
:1021B000606139466068FEF74BF86060D4E9010160
:1021C000FEF74CF82169BDE8F041FEF744B8000085
:1021D0003333333F333333BF02E008C8121F08C123
:1021E000002AFAD170477047002001E001C1121F98
:1021F000002AFBD1704770B504460E4686F00045B4
:1022000031462068FEF7E6F900D2266028462168AC
:10221000FEF7E0F900D2256070BD10B5002242F64D
:102220003C0404E02146491E4B1CFCD1521C824256
:10223000F8D310BD10B50C48FFF744F9FFF7D2FAF8
:102240004FF0E02009494161094AF0211170002155
:10225000816107210161FEF719FBFFF709FBBDE86A
:102260001040FFF799BD0000500000203F19010009
:1022700023ED00E000F06FB938220149FDF784BF7B
:10228000480200200148C068704700003C00002060
:1022900001484068704700003C0000200148806809
:1022A000704700003C0000202DE9FE432D4C002625
:1022B000267040F20720A060DFF8AC9004F1C40063
:1022C0004946FFF742FF03272773DFF8A08028481D
:1022D000CDE90108274947F23055009150232A469D
:1022E000012104F17800FFF797F823482349CDE94D
:1022F0000010029050232A46012104F12C00FFF720
:102300008BF8A4F1DC050120287040F20320A860BE
:102310004946A4F11800FFF718FF2F7318494FF032
:102320008142CDE900214FF07F504FF4FA7747F614
:10233000FF7902903B464A460121A4F1B000FFF725
:102340006BF8CDE901860F4800903B464A460121D3
:10235000A4F16400FFF760F8206AA062286AA8620E
:10236000BDE8FE837403002000F8FF45CDCC4C3D52
:102370006F12833ACDCCCC3D000020410000964343
:10238000CDCC4C3EAE47613EF0B5BFB06448654E23
:1023900003240078A6F1DC07002827D0012823D1E8
:1023A00001A8FFF769FF382201A920A8FDF7ECFE7C
:1023B00020A81DAB07C807C39DF87C00012871D079
:1023C0000FA8FFF759FF38220FA931A8FDF7DCFE4F
:1023D00031A82EAB07C807C39DF8C000022861D002
:1023E000306AB062386AB8623FB0F0BD01A8FFF74A
:1023F00043FF382201A920A8FDF7C6FE20A81DAB87
:1024000007C807C39DF87C00012814D00FA8FFF768
:1024100033FF38220FA931A8FDF7B6FE31A82EAB45
:1024200007C807C39DF8C000022804D0306AB06214
:10243000386AB862D8E734733C7320A8FFF71CFFF2
:10244000382220A931A8FDF79FFE31A82EAB07C87E
:1024500007C3BDF8BC00A0F58060FEF74AF8324C17
:102460002168FDF7FBFEB16AFDF7A0FEB06220A86F
:10247000FFF702FF382220A931A8FDF785FE31A819
:102480002EAB07C807C3BDF8BE00A0F58060FEF7FD
:1024900030F86168FDF7E2FEB96AFDF787FEB862C1
:1024A000A2E7FFE734733C7321A8FFF7E5FE38226B
:1024B00021A931A8FDF768FEDDF8CE002F90DDF8E8
:1024C000D2003090BDF9BC00FEF721F8174A184B36
:1024D000FDF79DFF04460D46B06AFEF742F822461E
:1024E0002B46FDF7EDFEFEF74FF8B06221A8FFF78F
:1024F000C3FE382221A931A8FDF746FEDDF8CE0043
:102500002F90DDF8D2003090BDF9BE0000EB8000C6
:10251000FDF7EFFFB96AFDF749FEB86264E7000016
:102520003C00002074030020300000209A99999903
:102530009999B93F044A036853604068D0600868BD
:10254000106048689060704780020020FFF772FEBC
:10255000FFF790FEFEE710B54FF496742046FFF7A4
:102560005CFEFFF7A1FE2046FFF757FEBDE81040D6
:1025700000F060B910B5A0B001A8FFF77DFE3822C9
:1025800001A912A8FDF700FE12A80FAB07C807C3E8
:102590009DF845001A4C012820D001A8FFF76CFED9
:1025A000382201A912A8FDF7EFFD12A80FAB07C84A
:1025B00007C39DF84500032813D001A8FFF75CFE70
:1025C000382201A912A8FDF7DFFD12A80FAB07C83A
:1025D00007C39DF84500022806D007E000202070C0
:1025E00004E00120207001E0022020700120FFF7AC
:1025F000CBFE20B00120BDE8104000F053B9000030
:102600003C0000202DE9F0410C46DDE9065106466C
:1026100010461F4600290AD001290AD002290FD0EE
:10262000032914D004291ED0052928D00020BDE894
:10263000F081024639463046BDE8F04100F02EB840
:10264000024629462046BDE8F04100F027B8024680
:102650002946204600F022F8024639463046BDE8B9
:10266000F04100F01BB802462946204600F016F85B
:10267000024639463046BDE8F04100F00FB8064D3D
:1026800002462046296800F009F802463046A9684B
:10269000BDE8F04100F002B8800200202DE9F041D1
:1026A000044610462161E060FDF7D2FD05466061F9
:1026B0002946206BFDF77AFD2063A561206CFDF7AC
:1026C00021FF014604F13000FFF795FD65692068A0
:1026D0002946FDF7C3FD06462062216B6068FDF7C1
:1026E000BDFD074660622846A169FDF7B1FDA168FE
:1026F000FDF7B4FD0546A06239463046FDF756FDAC
:102700002946FDF753FDE062E06BFDF7FBFE014655
:1027100004F12C00FFF76FFDE06ABDE8F08170B5B1
:1027200004AC70CC0364C26381630460456086605E
:1027300070BD01604260836000210162416281627C
:10274000C16270472DE9F04F384A4FF0000E117802
:1027500003295AD3B0F5006F01D340F2FF7034491A
:10276000C0F380230B70C0F340244C70C0F30025ED
:102770008D70C0F3C016CE70C0F380170F71C0F318
:10278000401C81F805C0C0F3001881F80680C0F332
:10279000C00981F80790C0F3800A81F808A0C0F34F
:1027A000400B81F809B000F00100887281F80BE05D
:1027B0007B4083EA0A030B7384EA0C0484EA0B046B
:1027C0004C7385EA080545408D7386EA0906CE7389
:1027D0000020A1F124040B5C012B07D04FF00B0368
:1027E00004F8103005D14FF0160304E04FF0160343
:1027F000F6E74FF00B0304EB40056B7000F10100AE
:102800001028E8DB82F800E00BE0002008492439BA
:1028100001F810E001EB400383F801E0401C1028B0
:10282000F6DB1078401C1070BDE8F08F2C00002003
:1028300024020020FEB50020FFF784FF154814494C
:10284000C0F8CC100321017340F2012181601249CC
:102850004FF081424FF07F50CDE900214FF4FA75DF
:1028600002900C482E012B46324601212C30FEF7F7
:10287000D3FD0A4900200A4CCDE9004102900548E9
:102880002B46324601217830FEF7C6FDFEBD000022
:1028900000F8FF4558040020CDCC4C3ECDCC4C3D3B
:1028A000AE47613E2DE9F041A4B05648002501260F
:1028B0000078554F554CDFF85881002807D0012883
:1028C00042D0022800D1A56224B0BDE8F08105A85D
:1028D000FFF7D2FC382205A916A8FDF755FC16A86B
:1028E00013AB07C807C39DF85400012818D005A8EA
:1028F000FFF7C2FC382205A916A8FDF745FC16A86B
:1029000013AB07C807C39DF85400032811D07D807E
:102910002673A56224B00020BDE8F041FFF712BF86
:102920007D802673A56224B00020BDE8F041FFF74A
:1029300009BF7D802673C4F82880388824B080B20F
:10294000BDE8F041FFF7FEBE6846FFF795FC382270
:10295000694616A8FDF718FC20220DF16A010EA8A1
:10296000FDF712FCBDF83C00012812D06846FFF7C5
:1029700083FC3822694616A8FDF706FC20220DF1DB
:102980006A010EA8FDF700FCBDF84000012804D044
:1029900005E02673C4F8288001E02673A562684626
:1029A000FFF76AFC3822694616A8FDF7EDFB2022E6
:1029B0000DF16A010EA8FDF7E7FBBDF83A0001280A
:1029C00018D06846FFF758FC3822694616A8FDF76C
:1029D000DBFB20220DF16A010EA8FDF7D5FBBDF847
:1029E000380001287FF470AF24B00020BDE8F0412A
:1029F000FFF7A8BE388824B080B2BDE8F041FFF7E9
:102A0000A1BE00003C000020380000205804002037
:102A100000803B45342A0008000000203C000000F4
:102A2000D8210008702A00083C000020FC080000A3
:102A3000E821000800000000000000000000000085
:102A40000000000000000000000000000204060872
:102A50000000000001020304010203040607080944
:102A6000000000000AD7A33C0000803FF4010000F2
:04000005080001519D
:00000001FF
