:020000040800F2
:10000000681B0020FD010008BF29000841240008EA
:10001000BD2900082D030008D931000800000000A8
:100020000000000000000000000000006501000862
:100030001304000800000000A9010008ED2A0008D0
:10004000170200081702000817020008170200082C
:10005000170200081702000817020008170200081C
:10006000170200081702000817020008170200080C
:1000700095030008A1030008AD030008B9030008B8
:10008000C5030008D1030008170200081702000882
:1000900031030008170200081702000817020008C1
:1000A00017020008C12B00081702000817020008F9
:1000B00017020008CD2B0008D92B000817020008F2
:1000C00017020008170200081702000817020008AC
:1000D0001702000891310008A9310008C131000859
:1000E00017020008170200081702000800000000AD
:1000F0000000000000000000000000000000000000
:1001000000000000000000001702000817020008AD
:10011000C52E0008DD2E000817020008170200088F
:100120001702000817020008DD0300081702000884
:10013000170200080000000000000000170200087D
:100140003D03000817020008170200081702000804
:10015000DFF80CD000F0D8F800480047F93100086B
:10016000681B0020224B19680868B0E8F00F80F384
:100170000988BFF36F8F4FF0000080F311884EF0B5
:100180000D0E70470000000006480068006880F30C
:10019000088862B661B6BFF34F8FBFF36F8F00DF81
:1001A00000BF00BF08ED00E0EFF30980BFF36F8FE1
:1001B0000F4B1A6820E9F00F106008B54FF050009F
:1001C00080F31188BFF34F8FBFF36F8F03F004FFED
:1001D0004FF0000080F31188BDE8084019680868F6
:1001E000B0E8F00F80F30988BFF36F8F704700BF4E
:1001F0001C000020EFF30580704700000648804790
:1002000006480047FEE7FEE7FEE7FEE7FEE7FEE7FB
:10021000FEE7FEE7FEE7FEE76D2B00085101000850
:100220002DE9F05F0546002092469B46884606462B
:10023000814640241BE0284641464746224600F0BE
:1002400020F853465A46C01A914110D31146184619
:10025000224600F04AF82D1A67EB01084F46224665
:100260000120002100F041F817EB00094E41201E4B
:10027000A4F10104DFDC484631462A464346BDE886
:10028000F09F202A04DB203A21FA02F00021704777
:1002900021FA02F3D040C2F12002914008431946EE
:1002A000704740EA01039B0703D009E008C9121F09
:1002B00008C0042AFAD203E011F8013B00F8013B20
:1002C000521EF9D27047D2B201E000F8012B491E4C
:1002D000FBD270470022F6E710B513460A460446E3
:1002E0001946FFF7F0FF204610BD202A04DB203A14
:1002F00000FA02F1002070479140C2F1200320FA79
:1003000003F3194390407047064C074D06E0E06840
:1003100040F0010394E8070098471034AC42F6D34C
:10032000FFF71AFF90490008B0490008FEE70000F7
:10033000014800F0F8B80000B0000020014800F0CB
:10034000F2B80000D800002010B58AB000210446A1
:100350000120CDE9061003910591009101910291D0
:10036000049108900E200A4909908C4200D1059012
:100370006946204600F050F808B100F04BF82046DE
:1003800000F0ECFA002801D000F044F80AB010BDEB
:10039000D8000020014800F0ADBB0000700500202F
:1003A000014800F0A7BB00002C050020014800F028
:1003B000A1BB000060040020014800F09BBB0000CE
:1003C0001C040020014800F095BB0000A40400209C
:1003D000014800F08FBB0000E8040020014800F055
:1003E00089BB0000D803002030B590F840500124AC
:1003F000AC40C56B6C60046863604368102B036895
:1004000003D099600068C26030BD9A600068C16026
:1004100030BD7047FEE7000010B590F82020012A9B
:1004200007D0022A05D0416A41F4802141620120AF
:1004300010BD3B48D0F8002242F00102C0F8002273
:10044000D0F8002222F47C52C0F80022D0F800221A
:100450004B6A42EA0322C0F800220A7D02F01F0321
:1004600001229A40D0F81C329343C0F81C32CB6969
:10047000B3B9D0F80C329343C0F80C328C894B6876
:1004800064F31F434C6900EBC404C4F840320C8988
:100490000B6864F31F434C6900EBC404C4F8443296
:1004A000CB69012B16D1D0F80C321343C0F80C32B3
:1004B0000C884B6864F31F434C6900EBC404C4F818
:1004C00040320C89CB6864F31F434C6900EBC404D1
:1004D000C4F844328B69002BD0F804320ED0134399
:1004E000C0F804320B69002BD0F8143208D0134343
:1004F000C0F81432096A012904D008E09343EFE7F9
:100500009343F5E7D0F81C121143C0F81C12D0F841
:10051000001221F00101C0F80012002010BD0000FF
:100520000064004070472DE9F05F05460068002434
:100530004669D0F804908768D0F80CB0D0F810A0C5
:10054000D0F81880F10748D0F90714D00121816054
:10055000B80703D5284600F02EFA0CE0780702D53C
:100560004FF4006407E0380702D54FF4805402E0EE
:10057000284600F01FFAF80516D529684FF4807058
:100580008860B80503D5284600F017FA0CE0780516
:1005900002D544F4005407E0380502D544F4804401
:1005A00002E0284600F008FAF80316D529684FF44F
:1005B00080308860B80303D5284600F000FA0CE0CC
:1005C000780302D544F4004407E0380302D544F42C
:1005D000803402E0284600F0F1F9300707D55FEAE1
:1005E000CB6004D52968102044F40074C8607007FB
:1005F0004FF0080707D55FEA0B7004D52868C7607D
:10060000284600F0A5F9B00706D52868C06880071D
:1006100002D0284600F09DF9700607D55FEACA604F
:1006200004D52968102044F480640861B00607D519
:100630005FEA0A7004D528680761284600F08AF945
:10064000F00606D528680069800702D0284600F029
:1006500082F9B00308D55FEAC96005D52968102082
:100660004860284600F078F9F00307D55FEA097082
:1006700004D528684760284600F0A2F9300446D522
:100680005FEA497040D5F00504D55FEAC87001D033
:1006900044F00104B00504D55FEA887001D544F048
:1006A0000204700504D55FEA487001D544F00404E3
:1006B000300529D518F0700F26D008F070004028BA
:1006C00015D006DC102809D020280AD0302816D1F1
:1006D0000AE050280ED0602811D10EE044F0080442
:1006E0000DE044F010040AE044F0200407E044F078
:1006F000400404E044F0800401E044F4807428687D
:10070000816921F070018161296804204860002C12
:1007100005D0686A204368622846FFF703FFBDE8FA
:10072000F09F70B5040003D094F8200010B104E0ED
:10073000012070BD204600F081F82068016821F09A
:100740000201016000F066FC0546052604E000F0A9
:1007500061FC401B0A2811D8206840688007F6D445
:100760002068016841F00101016000F053FC05467A
:100770000BE000F04FFC401B0A2806D9606A40F4E9
:100780000030606284F82060D2E720684068C007CB
:10079000EFD0207E0128206801683DD021F0800143
:1007A0000160607E01282068016838D021F0400196
:1007B0000160A07E01282068016833D021F020016B
:1007C0000160E07E0128206801682ED041F0100110
:1007D0000160207F01282068016829D021F00801EC
:1007E0000160607F01282068016824D021F00401A5
:1007F0000160D4E902010843D4E90412114308431B
:100800006168491E08432168C861002060620120B8
:1008100084F82000002070BD41F08001C0E741F065
:100820004001C5E741F02001CAE721F01001CFE700
:1008300041F00801D4E741F00401D9E7F0B585B0F3
:1008400000213E4A009101910291039103681068D2
:10085000394F3B4C022503263A49401CBB4232D15A
:100860001060012807D1C86940F00070C861C869EC
:1008700000F000700490886940F008008861886981
:10088000694600F0080004904FF480700090204604
:1008900000F0DCFA4FF40070CDE9000569460396DC
:1008A000204600F0D3FA2848416821F4C04141F0C5
:1008B000E06141F48041416000220521142000F0F4
:1008C00027FD142033E0214FBB4232D1CB6943F0E6
:1008D0008063CB61CB69012803F0806304931060CF
:1008E00007D1C86940F00070C861C86900F00070A5
:1008F0000490886940F0080088618869694600F0C2
:10090000080004904FF480500090204600F09EFABA
:100910004FF40050CDE9000569460396204600F0EB
:1009200095FA00220521402000F0F2FC402000F062
:10093000E4FC05B0F0BD00000064004004000020AD
:10094000000C01400010024000000140006800401F
:1009500070477047704770477047000070B5044695
:1009600090F82000012804D0606A40F40020606202
:1009700018E0022084F820002068016821F00101BD
:10098000016000F047FB05460EE000BF00F042FBAF
:10099000401B0A2808D9606A40F4003060620520D4
:1009A00084F82000012070BD20684068C007EDD1A8
:1009B000606270BD704770477047704770477047FE
:1009C000704700002DE9F05F90F821100024022903
:1009D00003D004218163012485E001680A6822F0C4
:1009E0000E020A6001680A6822F001020A603F4EA6
:1009F0003E4FB215DFF8F4C0DFF8F090DFF8ECA05E
:100A0000DFF8E8B0DFF8E4E00168783F1301150291
:100A1000ACF1640CA9F15009AAF13C0AABF1280B26
:100A2000AEF1140E4FF48018B14227D9B9420ED05E
:100A3000614512D049451DD0514518D0594518D0AF
:100A4000714501D1424615E0294EB14201D1012242
:100A500010E0274E1436B14201D110220AE0244E94
:100A60002836B14206D0224A3C32914201D11A4680
:100A700000E02A461E49091F0A602BE0B94213D044
:100A8000614517D0494522D051451DD059451DD04B
:100A9000714501D142461AE0B14202D14FF0807255
:100AA00015E0134EB14201D1012210E0104E143670
:100AB000B14201D110220AE00D4E2836B14206D0D3
:100AC0000B4A3C32914201D11A4600E02A460749BE
:100AD00080394A60012180F82110002180F820101F
:100AE000416B01B188472046BDE8F09F800002407D
:100AF000080402402DE9F05FC16B0A6801680B68C9
:100B0000046C4FF0040808FA04F8844D844E854FB5
:100B1000DFF814C2DFF81492DFF814A2DFF814B281
:100B2000DFF814E218EA020F65D05FEA437862D575
:100B30000A68920603D40A6822F004020A60DFF809
:100B4000F0814FF48062016808F114081301140267
:100B5000414524D9A9420DD0B1420FD0B9421AD093
:100B6000614515D0494515D0514501D1120312E018
:100B7000594501D104220EE0714501D140220AE01D
:100B80006D4D1435A94206D06B4A2832914201D1ED
:100B90001A4600E022466749091F0A6029E0A94277
:100BA00013D0B14215D0B94220D061451BD0494580
:100BB0001BD0514502D14FF4800217E0414502D1CC
:100BC0004FF0806212E0594501D104220EE07145D8
:100BD00001D140220AE0584D1435A94206D0564AA8
:100BE0002832914201D11A4600E022464B49083989
:100BF0004A60C16A71E04FF0020808FA04F818EA86
:100C0000020F70D05FEA83786DD50A68920606D429
:100C10000A6822F00A020A60012180F82110DFF838
:100C200010814FF40072016808F1140813011402D6
:100C3000414524D9A9420DD0B1420FD0B9421AD0B2
:100C4000614515D0494515D0514501D1120312E037
:100C5000594501D102220EE0714501D120220AE05E
:100C6000354D1435A94206D0334A2832914201D17C
:100C70001A4600E022462F49091F0A6029E0A942CE
:100C800013D0B14215D0B94220D061451BD049459F
:100C90001BD0514502D14FF4001217E0414502D15B
:100CA0004FF0007212E0594501D102220EE0714569
:100CB00001D120220AE0204D1435A94206D01E4A57
:100CC0002832914201D11A4600E0224613490839E0
:100CD0004A60002180F82010816A00291CD0BDE8FC
:100CE000F05F0847FFE70825A540154214D01A0712
:100CF00012D50A6822F00E020A6090F84020C36BF9
:100D0000012101FA02F25A60816380F8211000216A
:100D100080F82010016BE0E7BDE8F09F080002407A
:100D20001C000240300002404400024058000240D3
:100D30006C000240080402401C04024030B560B15F
:100D40001A4B026814219A4209D2194B1344B3FB7F
:100D5000F1F18900016417490AE0012030BD134B0D
:100D60005B421344B3FBF1F1890001640F49083978
:100D7000C163022180F82110136843F6F0718B43A0
:100D8000F0E901142143D0E902452C4321430469D1
:100D9000214344692143846921431943116000219F
:100DA0004163012242770177084630BD08040240C2
:100DB000F8FFFDBF0000024070B5044690F8200027
:100DC000002501280CD0012084F8200094F821602F
:100DD0000020012E06D084F820000225284670BD90
:100DE000022070BD022684F82160A0632068066896
:100DF00026F0010606602046FFF7F6FAE06A0028B2
:100E00002068016802D041F00E0106E021F00401E3
:100E100001602068016841F00A01016020680168F2
:100E200041F001010160D9E770B5044600F0F2F825
:100E30000546601C02D004480078044400F0EAF83B
:100E4000401BA042FAD370BD0C0000202DE9F84FE2
:100E5000DFF890A100220AF1040B144601274FF09D
:100E60000F090BF1040E00BF0B6807FA04F52B40C5
:100E7000AB4274D1DFF870C14E68A6EB0C08664532
:100E80002BD00DDC032E34D005DC36B3012E19D067
:100E9000022E2FD11BE0112E16D0122E2AD119E0CE
:100EA000B8F5881F19D006DCB8F5803F15D0B8F525
:100EB000801F1FD111E0B8F5001F0ED0B8F5041F38
:100EC00018D10AE0CA6815E0CA68121D12E0CA68A3
:100ED00008320FE0CA680C320CE08A682AB1012A95
:100EE0004FF0080203D0456104E0042202E00561EE
:100EF00000E00022FF2B01D8064601E000F10406C5
:100F00004FEA840501D9A5F12005D6F800C009FAF9
:100F100005F82CEA080C02FA05F54CEA050CC6F8AF
:100F200000C04D68ED0057D5304DAE6946F0010662
:100F3000AE61AD6924F0030605F0010500952C4D66
:100F400006EB050CDCF80850A6074FEA167809FAFC
:100F500008F6B543274EB04202D1002610E03BE030
:100F6000254EB04201D101260AE0244EB04201D103
:100F7000022605E0224EB04201D1032600E00426FD
:100F800006FA08F62E43CCF808604D68DAF80060DF
:100F9000ED03554601D51E4300E09E432E604D688B
:100FA000DBF80060AD035D4601D51E4300E09E43C3
:100FB0002E604D68DEF80060ED02754601D51E43D7
:100FC00000E09E432E604D68AD020E4D2E6801D5A7
:100FD0001E4300E09E432E60641C102CFFF444AFBF
:100FE000BDE8F88F0004014000001110001002401D
:100FF0000000014000080140000C014000100140C9
:10100000001401400C0401400AB101617047090459
:10101000FBE7000001488068704700000C000020DA
:1010200070B504001BD094F83D00002520B984F869
:101030003C50204600F094F8242084F83D002068BD
:10104000016821F00101016000F04AFA404A61683C
:10105000914201D83F4900E03F49884201D2012036
:1010600070BD3E492368B0FBF1F15960636893425B
:1010700006D94FF4967359434FF47A73B1FBF3F1E9
:101080002368491C19626168914210D84900401ECA
:10109000B0FBF1F2521CC2F30B02042A01D204206D
:1010A00022E0B0FBF1F0401CC0F30B001CE0A36891
:1010B000CBB301EBC10202EB0116421EB2FBF6F20A
:1010C000521C42F48042120536D06BB301EBC102D0
:1010D00002EB0111401EB0FBF1F0401CC0F30B000D
:1010E00040F4804040F400402168C861D4E9070121
:1010F000084321680860D4E9031008432168886028
:10110000D4E9050108432168C8602068016841F0FE
:10111000010101602564202084F83D00256384F8E6
:101120003E50002070BD00E008E001EB4106421E89
:10113000B2FBF6F2521CC6E70120D5E701EB4101F4
:10114000401EB0FBF1F0401CC0F30B00CAE70000EA
:10115000A086010080841E0000093D0040420F006F
:1011600010B586B0002100910191029103910068B1
:101170000F4988421AD10F4CA06940F00800A061C5
:10118000A069694600F008000490C0200090122079
:101190000190032003900848FFF758FEE06940F4EF
:1011A0000010E061E06900F40010049006B010BD8A
:1011B0000054004000100240000C014002488168C9
:1011C00002781144816070470C000020074810B578
:1011D000016841F010010160032000F0B9F80F2010
:1011E00000F006F800F024F8002010BD00200240B6
:1011F00070B50D4D04464FF47A712878B1FBF0F0CC
:101200000A490968B1FBF0F000F0CCFB48B9102C9A
:1012100007D200222146501E00F07AF800206C60B0
:1012200070BD012070BD00000C00002018000020DF
:101230000F4808B5816941F001018161816901F0C0
:1012400001010091C16941F08051C161C069002272
:1012500000F0805000900F21901E00F059F80548D2
:10126000416821F0E06141F00071416008BD00007B
:1012700000100240000001402DE9F04116460F46E3
:10128000040004D094F83900002518B107E00120CB
:10129000BDE8F08184F83850204600F035FF242066
:1012A00084F839002068C16821F40051C1602046EB
:1012B00001F07CFE2068016921F490410161206801
:1012C000416921F02A0141612068016921F00F0183
:1012D000394301612068C16821F400613143C16074
:1012E0002068C16841F40051C160E563202084F8A2
:1012F000390084F83A000020CAE700F01F020121FB
:1013000091404009800000F1E020C0F800117047D2
:10131000F0B40E4B1B680C46C3F30223C3F1070560
:10132000042D00D90425191D072901D2002300E04E
:10133000DB1E012606FA05F1491E214099409E4018
:10134000761E16403143F0BC01F03ABB0CED00E0D4
:10135000064900F0070208684FF6FF03184040EA0C
:101360000220034A10430860704700000CED00E0C3
:101370000000FA052DE9F047DFF8548105460E46D6
:10138000D8F8000000F00700B0420CD2D8F80010E6
:1013900021F007013143C8F80010D8F8000000F030
:1013A0000700B0426FD128684A4C810712D5400728
:1013B00003D5606840F4E06060602878000703D5DA
:1013C000606840F4605060606068A96820F0F000D8
:1013D000084360602878C00744D06868012816D0A8
:1013E0002168022816D0890700294CDA616821F0AB
:1013F000030101436160FFF70DFE6968074641F292
:10140000883001290ED00229814618D026E02168B3
:101410008903E9E78901E7E7FFF7FCFDC11B4945BF
:1014200001D918E081466068C0F381000128F3D13A
:1014300018E000BFFFF7EEFDC11B49450BD86068FF
:10144000C0F381000228F5D10CE000BFFFF7E2FDF8
:10145000C11B494502D90320BDE8F087606810F040
:101460000C0FF3D1D8F80010404601F00701B1424B
:101470000BD9016821F0070131430160006800F0D9
:101480000700B04201D00120E6E72878400705D5E3
:101490006068E96820F4E06008436060287800072D
:1014A00006D56068296920F4605040EAC100606098
:1014B00000F036F86168084AC1F30311515CC84076
:1014C000064908600F20FFF793FE0020C4E70000E4
:1014D00000200240001002406C4900081800002063
:1014E0000448054900684968044AC1F30221515C77
:1014F000C840704718000020001002407C490008D6
:101500000448054900684968044AC1F3C221515C96
:10151000C840704718000020001002407C490008B5
:10152000F0B523A289B00FCA04AC84E80F0024A14F
:101530000FC98DE80F0026494A68264802F00C03BF
:10154000042B2FD0082B2DD104A8C2F38343C45CF5
:10155000D00329D5C86A00F00F001DF80020C86A22
:10156000C00316D5C86AC96AC0F30310C1F30321CA
:10157000401C891CA0FB0223A1FB0416154F00256B
:10158000A1FB070C06FB07C601FB0561FEF748FE41
:1015900003E010486043B0FBF2F09DF81D10A1423B
:1015A00000D1400809B0F0BD0B486043FAE70000E5
:1015B000000004050607080900000000000D0000F7
:1015C0000102030405060708090A0B0C0D0E0F1093
:1015D0000010024000127A0000093D002DE9F84F8A
:1015E00004460078EA4DC00748D06868C0F381001F
:1015F000012807D06868C0F38100022809D1686813
:10160000C00306D52868800338D5A06800286FD0AD
:1016100034E0A068B0F5803F0BD010B1B0F5A02F3A
:1016200011D0286820F480302860286820F48020B9
:1016300002E0286840F480302860A06888B1FFF795
:10164000E9FC064609E0286840F480202860F0E7BD
:10165000FFF7E0FC801B642878D828688003F7D562
:101660000CE0FFF7D7FC064605E000BFFFF7D2FC11
:10167000801B6428F0D828688003F7D42078C54EF2
:1016800080074FF001094FF000073CD5686810F063
:101690000C0F07D06868C0F38100022809D1686880
:1016A000C00306D42868800715D5606901281FD1BA
:1016B00011E06069B8B1C6F80090FFF7ABFC804656
:1016C00006E000BFFFF7A6FCA0EB08000228C3D885
:1016D00028688007F6D52868A16920F0F80040EA5C
:1016E000C10028600FE03760FFF794FC804607E0F8
:1016F0002DE100BFFFF78EFCA0EB08000228ABD85D
:1017000028688007F6D4207800072ED5A248E16922
:10171000E9B1C0F80090FFF77DFC804606E000BF0D
:10172000FFF778FCA0EB0800022895D8686A8007CC
:10173000F6D59A484FF4FA510068B0FBF1F00090EA
:1017400000BF0098411E0091FAD20EE0B0E00760A1
:10175000FFF760FC804605E0FFF75CFCA0EB0800AB
:10176000022887D8686A8007F6D42078400763D5B6
:10177000E8694FF00008C00009D4E86940F08050E3
:10178000E861E8694FF0010800F08050009084485B
:101790000168C90512D40168834641F48071016073
:1017A000FFF738FC824605E0FFF734FCA0EB0A00A7
:1017B00064287DD8DBF80000C005F5D52069012834
:1017C0000AD008B1052813D0286A20F00100286249
:1017D000286A20F0040002E0286A40F00100286234
:1017E000206941F2883B98B1FFF714FC82460BE078
:1017F000286A40F004002862EEE700BFFFF70AFC09
:10180000A0EB0A01594553D8286A8007F6D50CE0A9
:10181000FFF700FC824605E0FFF7FCFBA0EB0A01A6
:10182000594545D8286A8007F6D4B8F1000F03D08F
:10183000E86920F08050E861E06AD0B36968C903C4
:1018400007D56968C1F38101022902D1E96AC90398
:101850007DD4022808D0E86A20F48030E862B766B8
:10186000FFF7D8FB80463BE02868C00005D5E86A52
:10187000616B00F0F000884269D1B766FFF7CAFBE0
:10188000804605E0FFF7C6FBA0EB0800642874D88B
:1018900028680001F6D4E86A616B20F0F000084384
:1018A000E862E86A216B20F470600843E86201E0B6
:1018B00063E018E0C6F86890FFF7ACFB804605E0EF
:1018C000FFF7A8FBA0EB0800642856D828680001A1
:1018D000F6D508E0FFF79EFBA0EB080064284CD883
:1018E00028680001F6D4206A90B36968C1F38101C9
:1018F00002294AD00228376603D0FFF78BFB044643
:101900003EE0FFF787FB074605E000BFFFF782FBDD
:10191000C01B022831D828688001F7D4606AB0F56E
:10192000803F09D1E86A61680843E862E86AE168D3
:1019300020F00F000843E862D4E909010843696810
:1019400021F4741108436860C6F8609001E01CE05F
:1019500019E0FFF75FFB044605E000BFFFF75AFB05
:10196000001B022809D828688001F7D50BE000BFCA
:10197000FFF750FB001B022802D90320BDE8F88FB7
:1019800028688001F4D40020F8E70120F6E7000081
:101990000010024000004242800442421800002031
:1019A0000070004010B5401EB0F1807F01D30120CF
:1019B00010BD4FF0E02460610F21601701F000F8C6
:1019C0000020A06107202061002010BD70477047F3
:1019D00030B590F83C20012A20D0012280F83C202C
:1019E000022380F83D3003685C6824F070045C607A
:1019F00003685C680D682C435C6003689C6824F095
:101A000080049C6003689C6849680C439C6080F873
:101A10003D20002180F83C10084630BD022030BD3A
:101A200010B5040003D094F83D0010B107E0012088
:101A300010BD002084F83C00204600F00DF8022084
:101A400084F83D00211D206801F0CCF8012084F8C5
:101A50003D00002010BD000008B5154A016815487A
:101A600091420ED1816941F4006181618069002257
:101A700000F40060009005211920FFF749FC1920AF
:101A800010E00D4A914211D1C16941F00401C161D8
:101A9000C069002200F00400009005211E20FFF71D
:101AA00037FC1E20BDE80840FFF727BC08BD00003A
:101AB000002C0140001002400008004070B50446B0
:101AC00090F83C00012817D0012584F83C500220F2
:101AD00084F83D002068826822F0770222F47F4279
:101AE00082600868502837D00DDC202859D005DCEA
:101AF00088B3102841D151E0022070BD302853D066
:101B000040283AD13FE060282ED070280BD0B0F5A5
:101B1000805F03D0B0F5005F2FD110E020688168AE
:101B200021F0070115E0CB68D1E90121206801F01F
:101B3000C9F82168886840F0770088601DE0CB68AC
:101B4000D1E90121206801F0BDF82068816841F4E5
:101B50008041816011E01EE0CA684968206801F098
:101B600065F95021206806E0CA684968206801F0DC
:101B70006EF96021206801F0AFF884F83D50002034
:101B800084F83C0070BDCA684968206801F04EF9CD
:101B900040212068EFE700212068ECE71021206851
:101BA000E9E720212068E6E730212068E3E7704775
:101BB000704770B50446006801694FF00005C943DD
:101BC000890715D4C168C943890711D4E91E016189
:101BD00001202077206880698007204602D0FFF727
:101BE000E7FF04E000F0E2F8204600F08DF92577E9
:101BF00020680169C943490717D4C168C943490727
:101C000013D46FF0040101610220207720688069FD
:101C100010F4407F204602D0FFF7CAFF04E000F036
:101C2000C5F8204600F070F9257720680169C9439E
:101C3000090716D4C168C943090712D46FF0080117
:101C40000161042020772068C0698007204602D007
:101C5000FFF7AEFF04E000F0A9F8204600F054F9C9
:101C6000257720680169C943C90617D4C168C943EB
:101C7000C90613D46FF01001016108202077206895
:101C8000C06910F4407F204602D0FFF791FF04E0C6
:101C900000F08CF8204600F037F9257720680169BC
:101CA000C943C90708D1C168C943C90704D1891EFE
:101CB0000161204600F09CF920680169C9430906CA
:101CC00009D4C168C943090605D46FF080010161D8
:101CD0002046FFF77BFE20680169C943490609D405
:101CE000C168C943490605D46FF04001016120462F
:101CF00000F07FF920680169C94389060BD4C168E7
:101D0000C943890607D46FF0200101612046BDE870
:101D10007040FFF75CBE70BD00B585B0002100913A
:101D20000191029103911B4B02681B4802219A42C8
:101D30001BD1826942F0100282618069039100F038
:101D4000100004904FF4E070CDE90001694613489B
:101D5000FFF77CF81248416821F4406141F0E061EE
:101D600041F44061416005B000BD0E4B9A42FAD18A
:101D7000826942F0040282618069039100F00400EC
:101D800004900320CDE9000169460748FFF75EF89B
:101D9000E9E700000004004000100240001001408C
:101DA00000000140000C004000080140704770B581
:101DB000044690F83C000D4601280DD0012684F819
:101DC0003C60022084F83D0042B1042A18D0082A61
:101DD0002AD00C2A4DD139E0022070BD206800F0D5
:101DE00083FF2068816941F0080181612068816971
:101DF00021F004018161206881692A69114311E0A1
:101E0000206800F099FF2068816941F400618161D8
:101E10002068816921F480618161206881692A6973
:101E200041EA0221816124E0206800F0B1FF2068CE
:101E3000C16941F00801C1612068C16921F0040154
:101E4000C1612068C1692A69114311E0206800F06E
:101E5000CBFF2068C16941F40061C1612068C1699C
:101E600021F48061C1612068C1692A6941EA0221C7
:101E7000C16184F83D60002084F83C0070BD10B55D
:101E8000040003D094F83D0010B107E0012010BD1C
:101E9000002084F83C00204600F00CF8022084F872
:101EA0003D00211D206800F09DFE012084F83D00CA
:101EB000002010BD08B5114A01681148914211D1A6
:101EC000C16941F00201C161C069002200F0020055
:101ED000009005211D20FFF71BFABDE808401D20DA
:101EE000FFF70BBA074A914207D1C16941F00801D7
:101EF000C161C06900F00800009008BD0004004006
:101F000000100240000C00407047000070B504460D
:101F100090F83D0016460D46022805D094F83D0085
:101F2000012805D10EB903B170BD022084F83D002F
:101F30002C482D4935B1042D13D0082D34D00C2D4B
:101F40001ED140E0626A9062606A01632268314695
:101F50003432606AFEF730FF2068C16841F40071D6
:101F60000DE0A26A9062A06A0163226831463832AD
:101F7000A06AFEF721FF2068C16841F48061C1605A
:101F800001222946206800F06BFE1849206888422B
:101F900003D1416C41F4004141642068016841F083
:101FA00001010160002070BDE26A9062E06A016395
:101FB000226831463C32E06AFEF7FEFE2068C168C6
:101FC00041F40061DBE7226B9062206B01632268C1
:101FD00031464032206BFEF7EFFE2068C16841F4C5
:101FE0008051CCE7772C0008B52C0008002C01406C
:101FF000704770477047000070B50268044610686B
:10200000D168536910F00F0F50D003F0010501F4AF
:10201000907635435DD0C20705D0CA0503D5E26B83
:1020200042F00102E263420705D5DA0703D0E26B12
:1020300042F00202E263820705D5DA0703D0E26BC1
:1020400042F00402E263020705D5DA0703D0E26B2F
:1020500042F00802E263E26B002A33D0800604D526
:10206000880602D5204600F055FF20684069E16BE4
:10207000C0F38010090700D428B3204600F03CFFCD
:102080002068416949061AD5416921F04001416142
:10209000606BA0B11B494163606BFEF793FC0028A5
:1020A00010D0606B416BBDE870400847830610D5C7
:1020B0008B060ED52046BDE8704000F02BBF2046B1
:1020C000FFF798FF70BD2046FFF794FF0020E06304
:1020D00070BD030606D50B0604D52046BDE870404A
:1020E00001F01CB84006F3D54806F1D5D16820466A
:1020F00021F04001D160202184F8391000F09FF9CF
:1021000070BD0000E92E00082DE9F04F85B00025D4
:1021100000950195029503950446DFF8E8C203682F
:10212000B94802210322B94E80274FF480684FF44A
:10213000006B634536D1C36943F40023C361C369AF
:1021400003F400230493836943F0100383618069DF
:10215000CDE9008100F01000CDE90320694630464A
:10216000FEF774FECDE900B5694630460295FEF7EC
:102170006DFEA84EA648C6E90005C6E902573561BE
:102180007561B5613046F561FEF7D8FD08B1FEF71F
:1021900041F966630022052134207462FFF7B8F824
:1021A000342033E0DFF870C24FF0040A634532D1C7
:1021B000C36943F48013C361C36903F480130493B8
:1021C000836943F010038361836903F01003049370
:1021D000836943F0200383618069039200F020004B
:1021E00004904FF48050CDE9000169463046FEF777
:1021F0002DFECDE900A5694688480295FEF726FE2A
:10220000002205213520FFF783F83520FFF775F808
:1022100005B0BDE8F08FDFF808C2824E4FF010091C
:1022200063454CD1836943F480438361836903F43C
:1022300080430493836943F00403836180690392BC
:1022400000F0040004907015CDE9000169463046A5
:10225000FEF7FCFDCDE90085694630460295FEF7A4
:10226000F5FD6C4E70484436C6E90005C6E90257D4
:1022700035617561B5613046F561FEF75FFD08B106
:10228000FEF7C8F866637462624E67488836143891
:10229000C6E9025735617561B561F561C6E90009A6
:1022A0003046FEF74BFD08B1FEF7B4F82663002276
:1022B000052125207462FFF72BF82520A6E7DFF81B
:1022C0006CC163454CD1C36943F40033C361C36936
:1022D00003F400330493836943F00403836180694A
:1022E000CDE900A100F00400CDE9032069463046A5
:1022F000FEF7ACFD0820CDE90005694630460295A1
:10230000FEF7A4FD434E4848CC361430C6E900051C
:10231000C6E9025735617561B5613046F561FEF772
:102320000DFD08B1FEF776F866637462404E3E48D4
:10233000C6E9025735617561B5612830F561C6E9B6
:1023400000093046FEF7FAFC08B1FEF763F8266391
:102350000022052126207462FEF7DAFF262055E7C9
:10236000344EB3427FF454AFC36943F48023C36156
:10237000C36903F480230493836943F008038361F2
:102380008069CDE9008100F00800CDE903202A4EE4
:1023900069463046FEF75AFDCDE900B5694630463C
:1023A0000295FEF753FD224E1F4844362838C6E9F1
:1023B0000005C6E9025735617561B5613046F561C2
:1023C000FEF7BCFC08B1FEF725F866637462184E90
:1023D000154888363C38C6E9025735617561B561E4
:1023E000F561C6E900093046FEF7A8FC08B1FEF722
:1023F00011F826630022052127207462FEF788FF6A
:10240000272003E7004C004000100240001001406C
:1024100030040240D8030020005000400014014066
:1024200000380140000801405800024000440040CC
:10243000E804002000480040000C0140704770474D
:10244000FEE700000F4810B50D490160042141600E
:1024500000218160C1604FF480210161C9004161A8
:102460000121017641768176C17601774177FEF7C9
:1024700058F9002803D0BDE81040FDF7CBBF10BDD0
:1024800000640040B00000200F4810B50D49016005
:102490000421416000214FF480228160C0E90312D1
:1024A000D20042610176012242768276C2760177BD
:1024B0004277FEF736F9002803D0BDE81040FDF75B
:1024C000A9BF10BD00680040D80000202F4808B503
:1024D000416941F001014161416901F0010100914F
:1024E000416941F0020141614069294900F002005F
:1024F0000090284801604FF4804141604021816094
:102500008021C1600021016141618161C161FEF7EB
:1025100015FC08B1FDF77EFF002205210C20FEF717
:10252000F7FE0C20FEF7E9FE002205210D20FEF744
:10253000EFFE0D20FEF7E1FE002205210E20FEF742
:10254000E7FE0E20FEF7D9FE002205210F20FEF740
:10255000DFFE0F20FEF7D1FE002205211020FEF73E
:10256000D7FE1020FEF7C9FE002205211120FEF73C
:10257000CFFE1120FEF7C1FE002205213A20FEF712
:10258000C7FEBDE808403A20FEF7B7BE0010024083
:10259000080002400001002000B585B01422064961
:1025A0006846FDF77EFE0021684600F077FE03498D
:1025B000086005B000BD0000584900080800002070
:1025C0002DE9F04186B0002428480094019402943B
:1025D0000394816941F010018161816901F010016A
:1025E0000491816941F020018161816901F020013C
:1025F0000491816941F004018161816901F0040164
:102600000491816941F0080181618069184F00F0EF
:10261000080046F202050490002229463846FEF7DB
:10262000F3FCDFF850800022F0214046FEF7ECFC7E
:102630000095022601250396CDE9015469463846E6
:10264000FEF704FC0C20CDE90004694638460294EC
:10265000FEF7FCFBF020CDE90005CDE90246694616
:102660004046FEF7F3FB06B0BDE8F08100100240E3
:1026700000100140000801400D4810B50B490160F1
:102680000C49416000214FF480428160C0E903128F
:1026900041618161C1610162FEF7C2FC002803D083
:1026A000BDE81040FDF7B6BE10BD0000005400406C
:1026B00044010020A086010010B586B00024174810
:1026C00000940194029403940494134905940160C6
:1026D0004721C0E9011440F2E731C0E90314446125
:1026E0008461FFF79DF908B1FDF794FE4FF4805027
:1026F000009069460948FFF7E1F908B1FDF78AFE45
:10270000049404A905480594FFF762F9002801D054
:10271000FDF780FE06B010BD002C0140980100209E
:1027200010B58AB0002407941C2168460894FDF770
:10273000D1FD1E481C4901604721C0E90114C46055
:1027400004618461FFF79BFB08B1FDF763FE07940A
:1027500007A916480894FFF73BF908B1FDF75AFEA0
:10276000602000900C20CDE90104002269460F484A
:102770000494FFF71CFB08B1FDF74CFE04226946E8
:102780000A48FFF714FB08B1FDF744FE082269462A
:102790000648FFF70CFB08B1FDF73CFE0348FFF7C6
:1027A000BBFA0AB010BD000000040040D8010020B0
:1027B00010B586B000241648009401940294039446
:1027C00004941249059401604721C0E90114C460D2
:1027D00004618461FFF724F908B1FDF71BFE4FF493
:1027E0008050009069460A48FFF768F908B1FDF784
:1027F00011FE049404A906480594FFF7E9F800289F
:1028000001D0FDF707FE06B010BD00000008004033
:102810001802002010B58AB0002407941C216846D5
:102820000894FDF757FD19481749C0E90014846062
:10283000C46004618461FFF722FB08B1FDF7EAFD83
:10284000079407A911480894FFF7C2F808B1FDF7EB
:10285000E1FD6020CDE900040294002269460B48A6
:102860000494FFF7A4FA08B1FDF7D4FD04226946E9
:102870000648FFF79CFA08B1FDF7CCFD0348FFF7C7
:102880004BFA0AB010BD0000000C004058020020B6
:102890000D4810B50B4901604FF4E1314160002152
:1028A00081600C22C160C0E9041281610A46C161E5
:1028B000FEF7E2FC002803D0BDE81040FDF7AABDFA
:1028C00010BD0000004C0040980200200D4810B5DB
:1028D0000B4901604FF4E1314160002181600C221D
:1028E000C160C0E9041281610A46C161FEF7C4FCFF
:1028F000002803D0BDE81040FDF78CBD10BD0000DE
:1029000000500040D80200200D4810B50B4901606E
:102910004FF4E1314160002181600C22C160C0E9C7
:10292000041281610A46C161FEF7A6FC002803D0AB
:10293000BDE81040FDF76EBD10BD0000003801403D
:10294000180300200D4810B50B4901604FF4E13128
:102950004160002181600C22C160C0E904128161E4
:102960000A46C161FEF788FC002803D0BDE810408C
:10297000FDF750BD10BD000000440040580300208A
:102980000D4810B50B4901604FF4E1314160002161
:1029900081600C22C160C0E9041281610A46C161F4
:1029A000FEF76AFC002803D0BDE81040FDF732BDF9
:1029B00010BD00000048004098030020FEE770476B
:1029C0000907090E002806DA00F00F0000F1E020E8
:1029D00080F8141D704700F1E02080F80014704763
:1029E000F0B53F483D4941630A88C2F30A060680B4
:1029F0004A78D3088A7843EA4213C3F30A0545802C
:102A0000CB78920942EA83030A7943EA8223C3F32B
:102A10000A04848053084A7943EAC213C3F30A03C1
:102A2000C2F30117C380077292094272CA884281B9
:102A30000A8982814A89C2810A7B02744A7B427474
:102A40008A7B02F001074782C2F340078782C2F304
:102A50008007C782C2F3C0070783C2F30017C78588
:102A6000C2F340170786C2F380174783D2098283D7
:102A7000C97B01F00102C283C1F340020284C1F3A9
:102A800080024284C1F3C0028284C1F30012C28476
:102A9000C1F340120285C1F380124285C9098185C4
:102AA000012180F83210002180F83310A6F2F236AE
:102AB0004FF480611D2E00D20180A5F2F2351D2D4C
:102AC00000D24180A4F2F734132C00D28180A3F20B
:102AD000F733132B00D2C180F0BD0000900000201E
:102AE000B4050020012000F0C3FBFBE710B5FEF7A2
:102AF00065FBBDE8104000F0C7BB000030B593B0E7
:102B000038216846FDF7E6FB14210EA8FDF7E2FB2D
:102B1000012528040421CDE902010224CDE9084061
:102B20000095019005954FF4E010CDE90A044802A4
:102B30000C9010200D906846FEF750FD00B1FEE7A6
:102B40000F20CDE90E0400204FF48061CDE9100183
:102B5000129002210EA8FEF70DFC00B1FEE702481C
:102B6000056713B030BD0000000042421048016804
:102B700041F00101016041680E4A11404160016865
:102B80000D4A11400160016821F480210160416813
:102B900021F4FE014160016821F0A05101604FF471
:102BA0007F0181600021C1620449C0030860704751
:102BB000001002400000FFF0FFFFF6FE08ED00E00D
:102BC0000148FEF7F6BF0000980100200148FEF71B
:102BD000F0BF0000D80100200148FEF7EABF000066
:102BE00018020020F0B50268194B1A4C1A4D1B4E02
:102BF0004FF08047984207D0B84205D0A04203D09A
:102C0000A84201D0B04204D122F0700C4A6842EAD6
:102C10000C02984207D0B84205D0A04203D0A84287
:102C200001D0B04203D122F44074CA68224322F09A
:102C300080044A69224302608A68C2620A6882622A
:102C4000984201D10969016301214161F0BD000091
:102C5000002C01400004004000080040000C00402F
:102C600010B50123046A8B409C430462036A8A40C6
:102C70001343036210BD10B5446A012184F83D106E
:102C8000626A824201D121770EE0A16A814201D1BC
:102C9000022008E0E16A814201D1042003E0216BB7
:102CA000814201D1082020772046FFF72DF900202E
:102CB000207710BD10B5406A012180F83D10FEF765
:102CC00076FF10BD10B5846842EA032224F47F44E5
:102CD0000A432243826010BD826822F070020A43D8
:102CE00042F007018160704730B5026A22F00102AC
:102CF0000262026A4368846924F073050C682C43FD
:102D000022F002058A682A430A4DA8420BD122F01C
:102D10000805CA6823F440732A434D6922F004026F
:102D20001D438B692B4343608461496841630262A0
:102D300030BD0000002C014030B5026A22F01002C4
:102D40000262026A436884690D6824F4E64444EA36
:102D500005248D6822F0200242EA05120B4DA8429C
:102D60000ED1CD6822F0800242EA05124D6923F4AB
:102D7000406343EA85038D6922F0400243EA8503FC
:102D80004360846149688163026230BD002C014068
:102D900030B5026A22F480720262036A4268C46932
:102DA00023F4007324F073050C682C438D6843EA08
:102DB00005230C4DA8420ED1CD6823F4006343EAED
:102DC00005234D6922F4405242EA05128D6923F42D
:102DD000806342EA05124260C4614968C1630362CC
:102DE00030BD0000002C014030B5026A22F4805250
:102DF0000262046A4268C3690D6823F4E64343EA49
:102E000005238D6824F4005444EA0534064DA84295
:102E100004D14D6922F4804242EA85124260C361C6
:102E200049680164046230BD002C014010B5036A9A
:102E3000046A24F001040462846924F0F00444EA82
:102E4000021423F00A020A438461026210BD10B525
:102E5000036A23F0100303628369046A23F4704356
:102E600043EA023224F0A00343EA011182610162C5
:102E700010BD000038B5114C20680168C9061CD58A
:102E8000016840680090606B0068016821F00101F2
:102E90000160606B006840680C2808D10849012077
:102EA0000870FFF79DFD616B1E2009684860606B2C
:102EB0000068016841F00101016038BD98030020FD
:102EC0000000002010B5042000F059F9BDE81040C2
:102ED0000148FFF791B80000980200200148FFF771
:102EE0008BB80000D802002010B5406A0021C185CF
:102EF000C184FFF77FF810BD0168CA6822F49072A0
:102F0000CA6001684A6922F001024A61202180F802
:102F10003A10704710B590F83A10222901D00220DB
:102F200010BD8168B1F5805F11D001690029016889
:102F30001FD0496801F07F03816A4A1C82620B70CE
:102F4000C18D491E0904090CC18518D02BE0026906
:102F5000816A002A0268526805D0D2B20A80816A6A
:102F6000491C8162ECE7C2F308020A80816A891C6D
:102F7000F7E74A68816A4B1C83620A70E0E70168E0
:102F8000CA6822F02002CA600168CA6822F480720E
:102F9000CA6001684A6922F001024A61202180F872
:102FA0003A10FFF74BFA002010BD00002DE9F04168
:102FB000044600680169E26821F44051114301614F
:102FC0002169A0680843616908432168CA6841F221
:102FD0000C639A430243CA6020684169A26921F4E4
:102FE0004071114341614C49206864253226884272
:102FF0003CD1FEF785FA00EBC00101EB00106168DF
:103000008900B0FBF1F7FEF77BFA00EBC00101EBA2
:1030100000106168B0468900B0FBF1F0B0FBF5F03C
:103020006FF01801484307EB800106EB0110B0FB7D
:10303000F5F000F0F006FEF763FA00EBC00101EBDB
:10304000001061688900B0FBF1F0B0FBF5F006EB11
:103050000016FEF755FA00EBC00101EB00106168A5
:103060008900B0FBF1F7FEF74BFA3BE0FEF738FAC8
:1030700000EBC00101EB001061688900B0FBF1F7C3
:10308000FEF72EFA00EBC00101EB00106168B046BC
:103090008900B0FBF1F0B0FBF5F06FF01801484388
:1030A00007EB800106EB0110B0FBF5F000F0F00635
:1030B000FEF716FA00EBC00101EB00106168890011
:1030C000B0FBF1F0B0FBF5F006EB0016FEF708FAE6
:1030D00000EBC00101EB001061688900B0FBF1F763
:1030E000FEF7FEF900EBC00101EB001061688900FA
:1030F000B0FBF1F0B0FBF5F06FF01801484307EBBF
:10310000800108EB0110B0FBF5F0216800F00F0022
:1031100030448860BDE8F0810038014090F83910F3
:10312000212901D0022070478168B1F5805F016AD2
:103130000BD04A1C0262026809785160C18C491E9A
:103140000904090CC1840ED017E009880268C1F394
:103150000801516001690029016A02D0491C01621D
:10316000ECE7891CFBE70168CA6822F08002CA60AC
:103170000068C16841F04001C16000207047042828
:1031800005D2DFE800F004040402FFF773BE7047C5
:1031900010B50120FFF7F3FFBDE810400148FEF72E
:1031A0002BBF00001803002010B50220FFF7E7FF37
:1031B000BDE810400148FEF71FBF00005803002083
:1031C00010B50320FFF7DBFFBDE810400148FEF714
:1031D00013BF000098030020FEE702E008C8121F9A
:1031E00008C1002AFAD170477047002001E001C1F0
:1031F000121F002AFBD17047FDF7E8FFFFF77EFCA6
:10320000FFF7DEF9FFF762F9FFF71CF9FFF73CF96A
:10321000FFF7B6FBFFF730FAFFF73AFBFFF774FB57
:10322000FFF790FBFFF77CFAFFF7C2FAFFF744FACB
:10323000FFF74CFBFFF7EEFA0848FDF785F8084862
:10324000FDF782F8FFF7A8F900F019F8642000F004
:1032500049FC2820FDF7E8FDF8E70000B000002059
:10326000D800002001460020842900D0C81C7047E7
:1032700010B500B9012000F0BBFD002010BD10B555
:1032800000F06AFE002010BD10B501F0B1F9012870
:1032900003D0BDE8104000F007BF10BD3EB50446A6
:1032A0000D46B0F90800FFF7DDFF02A9CDE90001E6
:1032B000208A2B4682B2D4E9001001F06DF9012872
:1032C00001D000203EBD02983EBD00002DE9F04136
:1032D000184C0F460546E6682068001D00F072FC99
:1032E00038B9206890F82C1001208840216981436A
:1032F0002161681C07D137B12168BDE8F0410E4853
:10330000091D00F097BC20683544B542456021682E
:1033100005D2A06BBDE8F041091D00F073BC606BE5
:10332000091D00F06FFCA06A854200D2A562BDE8CD
:10333000F08100001C0000202C0700202DE9F04146
:10334000054600F083FC2E4CA068401CA06020685D
:103350002C4F10B1606940B32DE02560A0680128B2
:1033600029D1002606EB860007EB800000F03CFC2C
:10337000761C072EF6D323488C3000F035FC21480C
:10338000A03000F031FC1F48B43000F02DFC1D4887
:10339000C83000F029FC1B48DC3000F025FC19483F
:1033A0008C3060631430A06305E02068E96AC06A6D
:1033B000884200D82560606A401C6062E96A01208A
:1033C000226988401043206101EB810007EB8000F7
:1033D000291D00F02FFC00F059FC606900280CD07A
:1033E0002068E96AC06A884207D207494FF08050D6
:1033F0000860BFF34F8FBFF36F8FBDE8F08100000F
:103400001C0000205006002004ED00E010B500F084
:103410001DFC0E4C2068A0B90D4800F0E5FB0C48DF
:10342000143000F0E1FB0A48E06014302061002213
:103430000C210A2000F04EFE206010B105A100F022
:10344000A1FCBDE8104000F021BC000058000020A5
:1034500040070020546D72510000000070B5114EFD
:10346000114C17E000F0B0FD3068B8B101F0BEF9C2
:1034700000F0ECFBF068C568281D00F0A3FBA06815
:10348000401EA0606068401E606000F0FFFB2846A0
:1034900000F055F860680028E4D170BD01F0A6F98D
:1034A000F8E70000180700201C00002030B4026C70
:1034B0000B46002A0BD0C1681144C1604468A14288
:1034C00001D30168C16030BC1846FCF7EABE30BCCD
:1034D00070472DE9F041856B174604460026026CC3
:1034E00082B1C7B1E068FCF7DCFEE168206C091A24
:1034F000E1602268914202D26168081AE060022FFE
:1035000016D017E02068A8B9606801F0E9F806460F
:10351000002060600EE0A068FCF7C3FE216CA0688C
:103520000844A0606168884204D32068A06001E07C
:1035300005B16D1E6D1CA5633046BDE8F08110B568
:103540000446006B00F0B6FB2046BDE8104000F0DA
:10355000B1BB000010484FF48051420706D0C01D97
:103560000D4920F00700411AC1F580510B4A002394
:103570000144C2E900030839103A21F00701116043
:103580004B600B600B1AC0E9001393604FF00040D2
:103590005360D06070470000680700207C00002066
:1035A000074C4FF08056074DFFF758FF2068012861
:1035B000FAD92E60BFF34F8FBFF36F8FF4E700008F
:1035C0005006002004ED00E02DE9F0479A46DDE9C1
:1035D000098481466FF00303206B03EB82021044E1
:1035E000089D20F00706700707D0502080F311884F
:1035F000BFF34F8FBFF36F8FFEE723180A5C83F88A
:1036000034200A5C12B1401C1028F6D3002784F83D
:103610004370072D00D30625E562C4E91157201D2C
:1036200000F0EDFA04F1180000F0E9FA2461C5F1A8
:1036300007006462A061E76484F85070524649460E
:10364000304600F03DFA2060B8F1000F01D0C8F814
:103650000040BDE8F087000030B5114900E0114698
:103660000A688242FBD34B685C18844203D14068ED
:1036700018444860084643681C18944209D1084C15
:10368000103C2468A24209D052681A4442600A6879
:1036900012680260814200D0086030BD0460F9E722
:1036A0007C00002070B5002441600B4D0061914208
:1036B00006D8D11A8269914206D2011D286907E015
:1036C0009A4203D2994201D3012403E0011DE86824
:1036D00000F098FA204670BD5800002010B504464E
:1036E00000F0B4FAA06B28B15FF0000400F0CEFA4D
:1036F000204610BD0124F9E730B587B02B4D4BE0D3
:103700000498002848DB069C606910B1201D00F079
:1037100059FA02A800F0B6F8024604980A283BD2EB
:10372000DFE800F00505053A263705053A26059835
:10373000A169034601442046FFF7B4FF00B3616A64
:1037400020468847E069012826D10020009005988E
:10375000A169002342181946204601F0CDF878B936
:10376000502080F31188BFF34F8FBFF36F8FFEE7B8
:103770000598A06128B1811813462046FFF792FFF3
:103780000AE0502080F31188BFF34F8FBFF36F8F93
:10379000FEE7204600F08EFA00231A4604A92868A6
:1037A00000F0BCFC0028ABD107B030BD58000020B1
:1037B0002DE9FC410F46054600F006FC01A800F08B
:1037C00061F80446019818B101F010F8BDE8FC81D9
:1037D000224EAFB130690068A8B30027291B3A46D2
:1037E000306800F0E3FA01F001F80028EED11C493E
:1037F0004FF080500860BFF34F8FBFF36F8FE5E746
:10380000A542EBD800F0F2FFF0682746C068C46814
:10381000201D00F0D7F9E069012810D1A0692B46DE
:1038200041193A462046FFF73DFF40B100200346CC
:10383000014600902A46204601F05EF820B1616AF8
:1038400020468847C2E707E0502080F31188BFF385
:103850004F8FBFF36F8FFEE70127BFE758000020AF
:1038600004ED00E00648416B096829B1416BC96865
:10387000C9684968816270474FF0FF31FAE700007C
:103880001C00002070B5054600F0C0FE064E044640
:10389000B068844203D200F009F8012000E0002063
:1038A00028602046B46070BD58000020F8B5194D5E
:1038B0001FE0C068C4680668201D00F083F9616AD3
:1038C00020468847E069012813D1A0693044B042FE
:1038D00006D924616060211DE86800F093F908E0D2
:1038E00000200346014600903246204601F004F8CD
:1038F00038B1E86801680029DBD12969C5E90310FE
:10390000F8BD502080F31188BFF34F8FBFF36F8F46
:10391000FEE700005800002008484068401C4FF0B7
:10392000500080F3118804D0BFF34F8FBFF36F8F27
:10393000FEE7BFF34F8FBFF36F8FFEE784000020D9
:10394000074CE068016841B1C0680021D0F8000070
:10395000FFF72EFFFFF7D0FEF3E701210020F7E786
:10396000580000202DE9F041044600F06FF994F969
:10397000455004F1240609E0606A48B1304600F081
:10398000FBFE08B100F05AFA6D1E6DB2002DF3DC9B
:103990004FF0FF3684F8456000F078F900F056F9F2
:1039A00094F9445004F1100709E0206948B1384601
:1039B00000F0E2FE08B100F041FA6D1E6DB2002D7C
:1039C000F3DC84F84460BDE8F04100F05FB900002A
:1039D0002DE9F0410546002700F0F6FA314E306837
:1039E00008B9FFF7B7FDF06805424BD1C5B30835FC
:1039F00068070ED005F00700C0F10800054468070D
:103A000007D0502080F31188BFF34F8FBFF36F8F23
:103A1000FEE72DB37068854234D822481030014645
:103A20000C6801E020460C466168A94202D2216878
:103A30000029F7D131688C4224D0076821680160E1
:103A400060680837411B10290FD96019420708D058
:103A5000502080F31188BFF34F8FBFF36F8FFEE7C5
:103A600010E041606560FFF7F7FD61687068401A1B
:103A70007060B268904200D2B060F06801430020EC
:103A8000C4E9000100F0B2FE780707D0502080F3AF
:103A90001188BFF34F8FBFF36F8FFEE73846BDE845
:103AA000F08100006C0000200449086818B1086823
:103AB000826C521C82640868704700001C00002061
:103AC00010B5031F4FF080741C601B1F21F0010113
:103AD0001960191F024B0B60143940380A6010BD81
:103AE000193900082DE9F05FB0F5006F01D340F2FD
:103AF000FF703249C0F38025C0F340240D704C7034
:103B0000C0F300238B70C0F3C012C0F38018CA70DA
:103B1000C0F3401781F804804F71C0F30016BB4614
:103B20008E71B146C0F3C00CC0F38007C0F34006ED
:103B3000C24681F807C00F7200F001004E7285EA9C
:103B40000A0588724FF000087D4084EA0B04744037
:103B500081F80B8083EA09030D7343404C738B7328
:103B600082EA0C02CA734046A1F114020B5C012BDD
:103B700008D000BF4FF00B0302F8103005D14FF012
:103B8000160304E04FF01603F6E74FF00B0302EBC9
:103B9000400400F1010063700828E7DB074A1223A4
:103BA000143A00210648FEF7B1F9BDE8F05F034A78
:103BB0001223143A04210248FEF7A8B90006002097
:103BC00058020020D0E9013201699A60D0E901234E
:103BD0005A604A68824201D182684A6000220261CA
:103BE0000868401E0860704700F108014FF0FF327E
:103BF000C0E90112C160016100210160704700212C
:103C00000161704730B50B685A1C02D000F1080200
:103C100002E0026904E02246546825689D42FAD910
:103C200053684B6099608A60516008610168491C63
:103C3000016030BD42684A6093688B609368596048
:103C4000916008610168491C01607047502080F351
:103C50001188BFF34F8FBFF36F8F0A494868401C2C
:103C6000486001280CD10848006810F0FF0F07D009
:103C7000502080F31188BFF34F8FBFF36F8FFEE7A3
:103C8000704700008400002004ED00E00849486807
:103C900028B1401E486001D180F311887047502040
:103CA00080F31188BFF34F8FBFF36F8FFEE70000E3
:103CB0008400002070B5002827D0144DA0F108041E
:103CC0006168E868014207D1502080F31188BFF392
:103CD0004F8FBFF36F8FFEE722683AB1502080F319
:103CE0001188BFF34F8FBFF36F8FFEE78143616091
:103CF00000F06AF960686968084468602046FFF768
:103D0000ABFCBDE8704000F071BD70BD6C000020E0
:103D100006484FF47A710068B0FBF1F14FF0E020F3
:103D2000491E416107210161704700001800002011
:103D300010B5FCF75FFA114910280ED300F1E0200E
:103D400090F8F0030A78904207D2502080F311884F
:103D5000BFF34F8FBFF36F8FFEE709480068896894
:103D600000F4E060884207D9502080F31188BFF347
:103D70004F8FBFF36F8FFEE710BD0000840000205F
:103D80000CED00E010B5084B002200BF53F83240A4
:103D90001CB1521C082AF9D310BD43F8321003EBB2
:103DA000C201486010BD00001006002070B5154625
:103DB0000E460446FFF74AFF94F944100020491CC0
:103DC00001D184F8440094F94510491C01D184F8CC
:103DD0004500FFF75BFFA06B28B92A46314604F186
:103DE000240000F049F82046BDE87040FFF7BABD56
:103DF00010B5020014D00F48006B38B1502080F38A
:103E00001188BFF34F8FBFF36F8FFEE700F0DCF830
:103E100000211046FFF75AFA00F0E8FC002807D10D
:103E200005494FF080500860BFF34F8FBFF36F8F8D
:103E300010BD00001C00002004ED00E0014901203D
:103E4000C86170471C00002010B50C4650B10949EC
:103E500009681831FFF7D6FE2046BDE81040012161
:103E6000FFF734BA502080F31188BFF34F8FBFF3B0
:103E70006F8FFEE71C00002070B514460D4668B138
:103E80000A4909681831FFF7D5FE0CB14FF0FF352C
:103E900021462846BDE87040FFF718BA502080F34D
:103EA0001188BFF34F8FBFF36F8FFEE71C00002018
:103EB00070B5040039D01D4DE06A2968C96A88428E
:103EC00033D2A069002804DB2868C06AC0F107006B
:103ED000A061E16A164E01EB8101606906EB810188
:103EE00088421FD1201DFFF76DFE012150B9E06A05
:103EF00000EB800256F8222022B92A6901FA00F06C
:103F000082432A612868C06AE0622A6981401143BD
:103F1000296100EB800006EB8000211DBDE87040A8
:103F2000FFF788BE2868C06AE06270BD1C000020F0
:103F30005006002028B107490A6A0260C96841603A
:103F40007047502080F31188BFF34F8FBFF36F8FFE
:103F5000FEE700001C0000201CB517480024CDE936
:103F600000402346802215A1164800F015FB0128C9
:103F700003D100F09DFC012809D0401C1AD150202B
:103F800080F31188BFF34F8FBFF36F8FFEE7502090
:103F900080F31188BFF34F8FBFF36F8F06484FF048
:103FA000FF312C38816201214161C460BDE81C40B1
:103FB00000F040B81CBD00004800002049444C45BA
:103FC00000000000A13500080248016B491C016394
:103FD000704700001C0000201448016B11B1012142
:103FE000C16170470021C1610169B1FA81F1C1F17C
:103FF0001F0101EB81020E4951F822306BB101EB38
:10400000820101F108034A6852684A609A4201D16C
:1040100052684A60D16801607047502080F311886F
:10402000BFF34F8FBFF36F8FFEE700001C0000202F
:10403000500600201CB5194908780190FF2008702F
:1040400008788DF800009DF80000154A00F0500037
:1040500010700720906005E09DF800305B008DF83F
:104060000030401E9DF800301B06F5D4000200F41D
:10407000E0609060019808700A48016841F470019E
:104080000160016841F070410160FFF741FE0020CE
:104090005060FCF779F800201CBD000000E400E04F
:1040A0008400002020ED00E010B5502080F311883E
:1040B000BFF34F8FBFF36F8F00F0AEFA18B1044912
:1040C0004FF080500860002080F3118810BD000080
:1040D00004ED00E070B50E46050013D0D6B105FB27
:1040E00006F04830FFF774FC040009D004F14801E1
:1040F00020468EB10160C0E90F56012100F0C4F8DE
:10410000204670BD502080F31188BFF34F8FBFF35E
:104110006F8FFEE70020E4E70060ECE72DE9FF4F3A
:10412000002683B09B468A46040003D0BAF1000FF4
:1041300008D011E0502080F31188BFF34F8FBFF3F8
:104140006F8FFEE7206C38B1502080F31188BFF3E9
:104150004F8FBFF36F8FFEE700F04AFADFF824813C
:104160004FF000094FF0805748B9059838B15020FA
:1041700080F31188BFF34F8FBFF36F8FFEE7FFF718
:1041800065FDA56B45B351462046E668FFF78EF9FD
:10419000BBF1000F13D0E660606A50B104F1240057
:1041A00000F0EAFA28B1C8F80070BFF34F8FBFF3F0
:1041B0006F8FFFF76BFD012007B0BDE8F08F6D1E1C
:1041C000A563206810B9FFF76FFC606020690028C4
:1041D000EFD004F11000E3E7059808B11EB106E046
:1041E000FFF754FD27E06846FFF7A4FE0126FFF71E
:1041F0004DFDFFF7E9FEFFF729FD94F94400401C4F
:1042000001D184F8449094F94500401C01D184F810
:104210004590FFF73BFD05A9684600F087F90028A7
:1042200020460AD0FFF79EFB00F0E0FA2046FFF799
:1042300055FA0028A3D00020BEE7FFF74FFAD8B107
:10424000206830B9FFF702FD6068FFF731FEFFF725
:104250001DFD04F124000599FFF7F6FD2046FFF748
:1042600081FB00F0C3FA002889D1C8F80070BFF3C1
:104270004F8FBFF36F8F82E72046FFF773FB00F08D
:10428000B5FA7CE704ED00E070B50D46040025D0DA
:10429000FFF7DCFCD4E90F20216802FB001161600C
:1042A0000021A1632168A1600A46D4E90F01401EE4
:1042B00000FB0121E16021464FF0FF3001F8440F7F
:1042C000487004F110008DB1FFF78EFC04F124005A
:1042D000FFF78AFCFFF7DAFC012070BD502080F365
:1042E0001188BFF34F8FBFF36F8FFEE7216900295D
:1042F000F0D000F041FA0028ECD004494FF0805093
:104300000860BFF34F8FBFF36F8FE3E704ED00E06A
:104310002DE9FF4782B01D468A464FF00008040091
:1043200003D0BAF1000F08D011E0502080F31188BB
:10433000BFF34F8FBFF36F8FFEE7206C38B1502073
:1043400080F31188BFF34F8FBFF36F8FFEE7022D0D
:104350000AD1E06B012807D0502080F31188BFF309
:104360004F8FBFF36F8FFEE700F042F93F4F4FF0E2
:1043700000094FF0805648B9049838B1502080F3B6
:104380001188BFF34F8FBFF36F8FFEE7FFF75EFC1F
:10439000A06BE16B884207D3022D05D00498D0B101
:1043A000B8F1000F1AD01EE02A4651462046FFF70A
:1043B00090F8616A19B104F1240000F0DDF920B130
:1043C0003E60BFF34F8FBFF36F8FFFF75FFC01209D
:1043D00006B0BDE8F087FFF759FC22E06846FFF71A
:1043E000A9FD4FF00108FFF751FCFFF7EDFDFFF7C6
:1043F0002DFC94F94400401C01D184F8449094F9B8
:104400004500401C01D184F84590FFF73FFC04A90A
:10441000684600F08BF830B12046FFF7A3FA00F0B1
:10442000E5F90020D4E7FFF711FCA06BE16B8842AF
:1044300013D1FFF72BFC04F110000499FFF704FDE2
:104440002046FFF78FFA00F0D1F900289ED13E6098
:10445000BFF34F8FBFF36F8F98E7FFF717FC20462E
:10446000FFF780FA00F0C2F990E7000004ED00E0E9
:104470002DE9F0471F4690468946040003D0B9F164
:10448000000F08D011E0502080F31188BFF34F8F48
:10449000BFF36F8FFEE7206C38B1502080F3118896
:1044A000BFF34F8FBFF36F8FFEE7022F0AD1E06B90
:1044B000012807D0502080F31188BFF34F8FBFF33E
:1044C0006F8FFEE7FFF734FC5020EFF3118680F387
:1044D0001188BFF34F8FBFF36F8FA06BE16B8842E2
:1044E00006D3022F04D0002086F31188BDE8F087A0
:1044F00094F945503A4649462046FEF7EAFF681CC3
:1045000004D06D1C84F845500120EDE7606A002856
:10451000FAD004F1240000F02FF90028F4D0B8F10B
:10452000000FF1D00121C8F80010EDE770B50D467D
:10453000040019D005B3FFF789FB164AD168286833
:10454000431C0FD02368126A934202D062688A42E9
:104550001AD96268891A814216D2401A2860204608
:10456000FFF7E8FC002410E0502080F31188BFF32F
:104570004F8FBFF36F8FFEE7502080F31188BFF39A
:104580004F8FBFF36F8FFEE70124FFF77FFB2046BD
:1045900070BD00001C0000202DE9FF5F8346DDE9AF
:1045A0000E87994616468A469000FFF711FA0500D5
:1045B0001AD05420FFF70CFA040012D02563002112
:1045C000CDE90241CDE900874B4632465146584677
:1045D000FEF7FAFF2046FEF7B1FE012004B0BDE869
:1045E000F09F2846FFF766FB4FF0FF30F6E700002C
:1045F0000548416919B1006B18B1002070470120CE
:1046000070470220704700001C0000200148C0686D
:10461000704700001C0000202DE9F0412E4C0027BF
:10462000206B40B1A069401CA061E06900B1012786
:104630003846BDE8F081E668761CE66013D1606B11
:10464000006838B1502080F31188BFF34F8FBFF35B
:104650006F8FFEE7606BA16B6163A063206A401CF3
:104660002062FFF7FFF8A06ADFF87080864209D366
:10467000606B006880B1606BC068C568686886421E
:104680000DD2A0622068C06A00EB800158F82100BA
:104690000128CAD90127C8E74FF0FF30F1E7281DEC
:1046A000FFF790FAA86A18B105F11800FFF78AFA27
:1046B000E86A0121226981401143216100EB8001F8
:1046C00008EB8100291DFFF7B5FAE86A2168C96A7D
:1046D0008842CDD30127CBE71C00002050060020E4
:1046E00070B504004FF0000140D0214D286884428D
:1046F00007D0502080F31188BFF34F8FBFF36F8F27
:10470000FEE7A06C38B1401EA064636CE26A9A4276
:104710002CD040B12AE0502080F31188BFF34F8F96
:10472000BFF36F8FFEE7201DFFF74CFA114A0121FE
:1047300050B9E06A00EB800352F8233023B92B69AB
:1047400001FA00F083432B61606CE062C0F1070066
:10475000A061E06A2B6981401943296100EB800068
:1047600002EB8000211DFFF765FA0121084670BDAC
:104770001C000020500600202DE9F041C068C468EC
:10478000ACB104F118000746FFF71CFA154D286B71
:104790000126A0B139461448FFF74CFAE06A2968AF
:1047A000C96A88421CD90120EE61BDE8F081502021
:1047B00080F31188BFF34F8FBFF36F8FFEE7201D8B
:1047C000FFF700FAE16A2A6906FA01F0104328614E
:1047D00001EB81000449B43901EB8000211DDBE7C6
:1047E0000020E2E71C000020040700202DE9F0472C
:1047F0002C4D00242746286B38B1FFF727FA286B89
:10480000401E2863286B40B146E0502080F3118899
:10481000BFF34F8FBFF36F8FFEE7A968224E0120D1
:10482000D1B3A6F1B40980463068E8B1F068C46835
:1048300004F11800FFF7C6F9201DFFF7C3F9E06A7D
:104840002A6908FA00F11143296100EB800109EBA4
:104850008100211DFFF7EEF9E06A2968C96A8842E4
:10486000E2D3C5F81C80DFE70CB1FEF7FBFFAC69B3
:1048700044B14646FFF7D0FE00B1EE61641EF9D1A7
:104880000020A861E86938B10849012738070860A5
:10489000BFF34F8FBFF36F8FFFF7F8F93846BDE8CE
:1048A000F08700001C0000200407002004ED00E059
:1048B0001CB5FEF7ABFD0C48006860B10A49022048
:1048C000091DCDE90001C201002308A10948FFF735
:1048D00063FE002807D1502080F31188BFF34F8F6B
:1048E000BFF36F8FFEE71CBD58000020546D72208F
:1048F0005376630041390008FEB51E461346020098
:10490000089D4FF0000014D0124C2768002F0FD0E4
:10491000CDE900130292062915DAFFF769FE022895
:104920004FF000030DD0002269462068FFF7F0FC2D
:10493000FEBD502080F31188BFF34F8FBFF36F8F00
:10494000FEE72A46F0E70023324669463846FFF77D
:104950008FFDFEBD5800002084490008E52A0008AC
:1049600000000000000000008000000000000000C7
:10497000000000000102030406070809000000000F
:104980000102030464656661756C745461736B00A5
:10499000B04900080000002090000000DA31000853
:1049A000404A000890000020D81A0000EA310008B0
:1049B00000000000000000000000000001000000F6
:1049C000100000000000000000A24A0400000000E7
:1049D00000000000000000000000000000000000D7
:1049E00000000000000000000000000000000000C7
:1049F00000000000000000000000000000000000B7
:104A000000000000000000000000000000000000A6
:104A10000000000000000000000000000000000096
:104A20000000000000000000000000000000000086
:104A30000000000000000000AAAAAAAA00000000CE
:04000005080001519D
:00000001FF
